:10000000B8C0D2C0D1C0D0C000C8CEC0CDC0CCC056
:10001000CBC01ECDC9C0D2CBF5CBC6C0C5C0C4C0F5
:10002000C3C0C2C0C1C00D0A417661696C61626C17
:100030006520636F6D6D616E64733A0D0A0D0A730E
:1000400074617475730D0A646174652044442E4DA7
:100050004E2E595920570D0A74696D652048483A4B
:100060004D4D3A53530D0A74696D65202B43430D72
:100070000A74696D65202D43430D0A74696D65200E
:1000800048483A4D4D3A5353202B43430D0A746967
:100090006D652048483A4D4D3A5353202D43430D4A
:1000A0000A68656174204C4F2D48490D0A686561E6
:1000B00074206F6E0D0A68656174206F66660D0AA4
:1000C00068656174206175746F0D0A6C6967687486
:1000D0002048313A4D313A53312D48323A4D323A77
:1000E00053320D0A6C69676874206C6576656C2004
:1000F0004C4C4C0D0A6C69676874207269736520FA
:1001000052520D0A6C696768742048313A4D313A91
:1001100053312D48323A4D323A5332204C4C4C2018
:1001200052520D0A6C69676874206F6E0D0A6C6913
:10013000676874206F66660D0A6C69676874206171
:1001400075746F0D0A646973706C61792074696DE0
:10015000650D0A646973706C61792074656D700D4A
:100160000A7265626F6F740D0A68656C700D0A0D16
:100170000A0011241FBECFE5D4E0DEBFCDBF11E0E1
:10018000A0E6B0E0EAE4FEE102C005900D92AC3AD0
:10019000B107D9F722E0ACEAB1E001C01D92AB3A59
:1001A000B207E1F795DC48CE2BCFE82FF0E0E9521B
:1001B000FE4F90E080E03AE02191839F200D1124D2
:1001C000822F80539F5F6913F7CF0895E82FF0E0E7
:1001D000E255FE4F91A59B3211F09D32A1F4909310
:1001E000C50162E08F5FE1DF8C3308F08BE3809321
:1001F000C2016091C50188E090E00DDE6091C2010E
:1002000089E090E008CE9BE2EACF63E0CEDF682F82
:10021000853608F064E66093D2018DE090E0FBCD76
:1002200062E0C3DF682F8F3108F06EE16093D30185
:100230008EE090E0F0CD823029F0843031F080EA19
:1002400090E002C08BE990E03FCB8CEA90E0FCCFDD
:100250001F93CF93DF93C82F162F87FF02C08DE225
:1002600022DBDC2FD7FDD195D43658F081E31BDBA0
:100270008D2F64E65DDC892F6AE05ADC805D13DB3C
:1002800004C0DA30A8F7123099F38C2F6AE05CDCF6
:1002900080E3890FDF91CF911F9105CBCF9362E06F
:1002A00086E083DFC82F883108F0C7E1C093CA0118
:1002B00062E089E07ADF8C3308F08BE38093C90138
:1002C00062E08CE072DF8C3308F08BE38093C8012E
:1002D00062E08FE06ADF883108F087E18093CF0128
:1002E00062E082E162DF8C3308F08BE38093CE0121
:1002F00062E085E15ADF8C3308F08BE38093CD0117
:100300006C2F82E090E087DD6091C90183E090E08E
:1003100082DD6091C80184E090E07DDD6091CF01D5
:1003200085E090E078DD6091CE0186E090E073DDBD
:100330006091CD0187E090E0CF916DCD62E085E0E6
:1003400034DF883108F087E18093B20162E088E011
:100350002CDF8C3308F08BE38093B10162E08BE0FB
:1003600024DF8C3308F08BE38093B0011092B4014A
:100370001092B30189E0E0EBF1E0A9EBB1E001906C
:100380000D928A95E1F780EB91E080D860E089EBEF
:1003900091E0FBC8CF93DF93BE9AC698A19AA99A21
:1003A000A09AA89AD6DAC0DA4CD52DD883E390E08B
:1003B00049DA7894CEEAD1E08FE789831092170268
:1003C00080E090E020DD8FA381E090E01CDD88A735
:1003D0008DE090E018DD8CA38EE090E014DD8DA31D
:1003E00082E090E010DD8C8F83E090E00CDD8B8F5D
:1003F00084E090E008DD8A8F85E090E004DD89A349
:1004000086E090E000DD88A387E090E0FCDC8F8F41
:1004100088E090E0F8DC8F8B89E090E0F4DC8C8B56
:100420008AE090E0F0DC8EA38BE090E0ECDC898F3A
:100430008CE090E0E8DC8883A8988FE19EE4019747
:10044000F1F700C00000A89A9FEF24E38CE09150E0
:1004500020408040E1F700C0000060E089EB91E0BF
:1004600068D86DA18CA1DF91CF91BBCA80EB91E0E0
:10047000D0D78091AE01813019F480EB91E006D5A0
:1004800069EB71E080EB91E062D9882381F169EB3F
:1004900071E080EB91E077D9882349F18091C50123
:1004A0008B32C9F08D32E9F080EB91E0EFD780918B
:1004B000B8018093C1018091B7018093C001809100
:1004C000B6018093BF018091B5018093BE0160E0C9
:1004D00089EB91E05AC862EC71E080EB91E088D83A
:1004E000E3CF62EC71E080EB91E0D4D8DDCF0895EA
:1004F000CF9381E01EDAC82F8091AD018C1709F4EB
:100500005BC0C093AD01C13009F056C082E011DA82
:100510009091AE01811117C0913041F0923069F095
:100520006091AE018CE090E0CF9175CC82E0809339
:10053000AE018091AF01E6D4F3CFC093AE0180EB62
:1005400091E0A4D4EDCF9130E1F48091C7018136E0
:1005500051F42CD58DE68093C70118DA6091C7015C
:100560008BE090E0E1CF07DA87FF06C02ED58DE65D
:100570008093C70118DAF2CF37D581E68093C7019F
:10058000EDCF8091D401813651F410D58DE6809362
:10059000D401C69A6091D4018AE090E0C5CFB69BA1
:1005A00006C013D58DE68093D401C698F3CF1CD531
:1005B00081E68093D401EECFCF9108952CD68F376A
:1005C00041F59091AC0121E0290F2093AC019430CA
:1005D00028F08093AF011092AC010ED68091AE014D
:1005E000823019F48091AF018DD49091D401809123
:1005F000AF01913651F49091D50189170CF4C69A48
:100600009091D60198170CF4C69884320CF0C698D5
:1006100008958E3719F39091AF019F3711F4853506
:10062000E9F28093AF01DACF8091C701813679F486
:1006300068EC71E080EB91E0A6D8882339F060EB9C
:1006400071E08DEC91E09FD88111F1C9F9C908954D
:10065000FF920F931F93CF93DF9309D99C0102E080
:10066000FF24F39411E6DDE6C9018827892BC9F53B
:100670008091170291E0980F90931702E82FF0E015
:10068000E255FE4F21A7903450F0109217028AEAEB
:1006900090E0DF91CF911F910F91FF9015C9E92F45
:1006A000F0E0E255FE4F40A5483041F49230B8F0FA
:1006B00081508093170284EB90E0EBCF4F37B1F37A
:1006C000822FF1D8E0911702F0E0EA52FE4F8081CC
:1006D0008A3069F08D3009F08EC18AE009C010922D
:1006E0001702DF91CF911F910F91FF9008958DE038
:1006F000DAD846E050E068EB70E087ED91E075DB1A
:10070000892B09F007C18FEB90E0DED862E0809181
:10071000B6019EDD8EE2C7D862E08091B70198DD18
:100720008EE2C1D862E08091B80192DD80E2BBD850
:10073000E091B501E150E73038F4F0E0E25EF04FCF
:10074000099486EC90E0C0D88FEF90E0BDD862E0CD
:100750008091B2017DDD8AE3A6D862E08091B1018B
:1007600077DD8AE3A0D862E08091B00171DD88E096
:1007700091E0AAD88091C50196D860E08091C2012D
:1007800067DD8BE091E0A0D862E08091BB0160DD85
:100790008AE389D862E08091BA015ADD8AE383D87E
:1007A00062E08091B90154DD89E27DD884E191E075
:1007B0008BD88091AF018F3709F08EC08DE191E029
:1007C00083D880E291E080D8B69B89C089E291E02D
:1007D0007BD88091D401813609F484C08D3609F428
:1007E00085C088E260D860E08091D50131DD8DE27E
:1007F0005AD860E08091D6012BDD89E254D880E49C
:1008000091E062D8B8D887FF74C089E291E05CD8E3
:100810008091C701813609F46FC08D3609F470C02C
:1008200088E241D862E08091CA0112DD8AE33BD8B8
:1008300062E08091C9010CDD8AE335D862E08091E5
:10084000C80106DD8DE22FD862E08091CF0100DD86
:100850008AE329D862E08091CE01FADC8AE323D8CA
:1008600062E08091CD01F4DC89E21DD880E21BD8E2
:1008700082D860E08F77ECDC8FE215D860E0809161
:10088000D201E6DC85E20FD880E20DD860E08091ED
:10089000D301DEDC8AE491E017D88EE491E014D82D
:1008A0008091AE01813079F1823089F18DE990E05B
:1008B0000BD89FC08DEC90E046CF85ED90E043CF04
:1008C0008FED90E040CF88EE90E03DCF8FEE90E04E
:1008D0003ACF88EF90E037CF60E0BADC72CF8CE29D
:1008E00091E076CF80E391E0EFD77BCF87E391E093
:1008F000FBCF8CE291E08BCF80E391E0E5D790CF06
:1009000087E391E0FBCF8AE591E0DED7CFCF8FE59B
:1009100091E0FBCF45E050E064E671E087ED91E0C7
:1009200064DA892B09F06AC08091DC0180538A3037
:1009300008F064C08091DD0180538A3008F05EC009
:100940008091DE018E3209F059C08091DF01805321
:100950008A3008F053C08091E00180538A3008F05B
:100960004DC08091E1018E3209F048C08091E201D2
:1009700080538A3008F042C08091E30180538A306E
:10098000E8F58091E4018032C9F58091E50180535A
:100990008A30A0F562E085E008DC803208F08FE163
:1009A0008093B60162E088E000DC8D3008F08CE0D6
:1009B0008093B70162E08BE0F8DB8093B80161E0DF
:1009C0008EE0F3DB883008F087E08093B50189E0A2
:1009D000E0EBF1E0A9EBB1E001900D928A95E1F72F
:1009E00080EB91E053D560E089EB91E0CED582E0D9
:1009F00022DC109217023BD79C0136CE45E050E036
:100A00006AE671E087ED91E0F0D9892B09F058C0D2
:100A10008091DC0190ED980F9A3008F041C08091F0
:100A2000DD0180538A30D0F58091DE018A33B1F543
:100A30008091DF0180538A3088F58091E0018053F6
:100A40008A3060F58091E1018A3341F58091E201BD
:100A500080538A3018F58091E30180538A30F0F496
:100A60008091E4018032A1F48091E5018B3211F094
:100A70008D32A1F48091E60180538A3078F4809120
:100A8000E70180538A3050F459DC8EE09FDBAFCF12
:100A90008D3011F08A3011F451DCA9CF84E0A8CF59
:100AA0008B3211F08D32D1F78091DD0180538A3085
:100AB000A8F78091DE0180538A3080F785E0E6CF89
:100AC00045E050E060E771E087ED91E08ED9892B39
:100AD00009F065C08091DC0180538A3070F5809107
:100AE000DD0180538A3048F58091DE018D3229F591
:100AF0008091DF0180538A3000F58091E0018053BE
:100B00008A30D8F462E085E050DBC82F823108F4E7
:100B1000C2E1C093D50162E088E047DB843208F08F
:100B200083E28093D6016C2F80E090E074D96091CD
:100B3000D60181E090E06FD95ACF42E050E066E7FD
:100B400071E08CED91E051D9892B41F4D093D4011F
:100B50006DE68AE090E05FD9C69A49CF43E050E065
:100B600069E771E08CED91E040D9892B41F4D09395
:100B7000D4016DE68AE090E04ED9C69838CF44E0C3
:100B800050E06DE771E08CED91E02FD9892B09F0F1
:100B900085CF1093D40161E68AE090E0CCCF46E0A7
:100BA00050E062E871E087ED91E01FD9892B09F0F0
:100BB000FBC08091DD0180538A3008F08CC08091A9
:100BC000DE0180538A3008F086C08091DF018A33CD
:100BD00009F081C08091E00180538A3008F07BC029
:100BE0008091E10180538A3008F075C08091E20164
:100BF0008A3309F070C08091E30180538A3008F095
:100C00006AC08091E40180538A3008F064C080910A
:100C1000E5018D3209F05FC08091E60180538A3092
:100C200008F059C08091E70180538A3008F053C022
:100C30008091E8018A3309F04EC08091E901805328
:100C40008A3008F048C08091EA0180538A3008F069
:100C500042C08091EB018A33F1F58091EC01805321
:100C60008A30C8F58091ED0180538A30A0F58091DB
:100C7000EE01803249F58091EF0180538A3008F00F
:100C80000DCF8091F00180538A3008F007CF80911A
:100C9000F10180538A3008F001CF8091F201803257
:100CA00009F0FCCE8091F30180538A3008F0F6CE33
:100CB0008091F40180538A3008F0F0CEEFDA88E1B9
:100CC000A4DA8CE1ADDA52C08D3019F08A3009F027
:100CD000E5CEE4DA8CCE42E050E066E771E08DEDDF
:100CE00091E083D8892B41F4D093C7016DE68BE066
:100CF00090E091D84BD67BCE43E050E069E771E0BD
:100D00008DED91E072D8892B41F4D093C7016DE647
:100D10008BE090E080D847D66ACE44E050E06DE7A3
:100D200071E08DED91E061D8892B31F41093C7010A
:100D300061E68BE090E0FFCE46E050E069E871E0CC
:100D40008DED91E052D8892BB9F48091E301805365
:100D50008A3090F48091E40180538A3068F4809165
:100D6000E50180538A3040F48CE04FDA6091D30182
:100D70008091D20136D63BCE45E050E060E971E08B
:100D80008DED91E032D8892B09F088CE8091E20177
:100D900080538A3008F082CE8091E30180538A30FC
:100DA00008F07CCE8BE08ECF48E050E066E971E041
:100DB00087ED91E01AD8892B39F544E050E06AE5D7
:100DC00071E08FED91E011D8892B51F4F092AE01D2
:100DD00061E08CE090E01FD880EB91E057D007CE27
:100DE00044E050E06FE571E08FED91E0FED7892B94
:100DF00009F054CE0093AE0162E08CE090E00BD895
:100E00008091AF017FD0F3CD46E050E06FE971E013
:100E100087ED91E0EAD7892B21F482E00CDAC698BD
:100E2000FFCF44E050E066EA71E087ED91E0DDD766
:100E3000892B21F486E290E052D5DBCD80EA90E068
:100E400037CD88B3836888BB87B3836887BB85B396
:100E5000886385BB84B3886384BB82B38C6F82BB99
:100E600081B38C6F81BB85B5826085BD14BC89B7A9
:100E7000806489BF10921B0210921A02ECE1F2E02A
:100E80008FEF80838183828383830895FC01809127
:100E9000180290911902892B91F581813AE0632F14
:100EA00047D6A92FB0E0A05ABF4F9C9190931C0247
:100EB000A82FB0E0A05ABF4F8C9180931D022281D1
:100EC000822F36D6A92FB0E0A05ABF4F9C919093A5
:100ED0001E022A30A8F0A82FB0E0A05ABF4F8C9174
:100EE00080931F02808180FD0AC080911C0280686F
:100EF00080931C0280911D02806880931D020895DA
:100F000080E0EECF282F8091180290911902892B52
:100F1000F9F42F3741F410921C0280E480931D02F3
:100F200080931E0213C0322F37FD31953A3088F47A
:100F300010921C02832F90E0805A9F4FDC018C910D
:100F400080931D022595207420931E0210921F028B
:100F50000895EAE0832F6E2FEBD5492F50E0405AD9
:100F60005F4FDA019C91343680F410921C0290930A
:100F70001D0290E0805A9F4FFC01808180931E02E9
:100F80002595207420931F02089590931C02832FAF
:100F900064E6CED5892F6E2FCBD590E0805A9F4F37
:100FA000DC018C9180931D0286E0BACFECE1F2E087
:100FB000108284E581838FE38283138282E49FE041
:100FC00090931902809318020895ECE1F2E081E712
:100FD000808381838FE38283138282E49FE09093F6
:100FE0001902809318020895ECE1F2E08FE3808308
:100FF00088E781838EE3828387E7838382E49FE0AF
:10100000909319028093180208950F920FB60F92D1
:101010001F9211242F933F934F935F936F937F936E
:101020008F939F93AF93BF93EF93FF93E2E8F0E02A
:1010300041E050E0A081B1812C918281BA0102C0CF
:10104000660F771F8A95E2F7CB01809582238C93F8
:10105000339670E0EE38F70769F7EAE6F0E081E0F2
:1010600090E0A081B1812C913281AC0101C0440F8C
:101070003A95EAF7242B2C93339620E0E238F207D6
:1010800081F7E0911B02F0E0E45EFD4F208140918A
:101090001A0230E002C0359527954A95E2F720FF05
:1010A00024C0E0911A02A0911A022A2F30E0D9013F
:1010B000AA0FBB1FA20FB31FA659BF4F0D90BC9123
:1010C000A02D4C912E2F30E0F901EE0FFF1FE20F03
:1010D000F31FE659FF4F228102C0880F991F2A95FE
:1010E000E2F78095909584238C93E0911B02A09168
:1010F0001B028A2F90E0DC01AA0FBB1FA80FB91FAB
:10110000AE57BF4F0D90BC91A02D2C918E2F90E02B
:10111000FC01EE0FFF1FE80FF91FEE57FF4F328162
:1011200081E090E001C0880F3A95EAF7822B8C931A
:1011300080911A028F5F80931A02883058F01092C3
:101140001A0280911B028F5F80931B02843010F083
:1011500010921B028091180290911902892B49F07C
:10116000809118029091190201979093190280932F
:101170001802FF91EF91BF91AF919F918F917F9155
:101180006F915F914F913F912F911F900F900FBEE4
:101190000F901895AA98A29A78948FEB93E00197F4
:1011A000F1F700C00000F894A29890EA9A95F1F740
:1011B00083B37894E7E4F3E03197F1F700C00000DF
:1011C000F89482FB882780F9089598E0AA98A29A5B
:1011D00022E02A95F1F700C080FDA298789420EAD9
:1011E0002A95F1F7F894A29822E02A95F1F700C029
:1011F0008695915059F70895A9988FE19EE401973B
:10120000F1F700C00000A99A8FE19EE40197F1F781
:1012100000C000000895EF92FF920F931F93CF93A9
:10122000DF93CDB7DEB72D970FB6F894DEBF0FBEB4
:10123000CDBF9A9B8FC0F894ADDF882379F0789466
:101240008FE72D960FB6F894DEBF0FBECDBFDF91AE
:10125000CF911F910F91FF90EF9008958CECB5DF27
:101260008EEBB3DFFE013196AE01465F5F4FCF01DB
:1012700020E038E0AA98A29A62E06A95F1F700C0EF
:10128000A29870E27A95F1F763B3789470E87A9552
:10129000F1F7F89462FB002700F910E0B8017695A9
:1012A000762F6627779567952695262B315011F76F
:1012B0002193E417F507E1F6789468E070E01CD319
:1012C0009985891342C08A8190E0982F88272981C7
:1012D000820F911D9C01990F440B550B2A873B8768
:1012E0004C875D87CA01B90191D420E030E040E825
:1012F0005DE36A877B878C879D876A857B858C8584
:101300009D85E8D47B018C01F89444DF811197CF4F
:101310008CEC5BDF8EE459DF8B8157DF8C8155DFEE
:101320008FE153DF37DF81118ACF8CEC4EDF84E40D
:101330004CDF7894EA86FB860C871D876A857B855F
:101340008C859D8535D4862F7CCFE12CF12C0EEF3A
:1013500012E4DACF8EE775CF6AE0EAD38295807F18
:10136000892B0895982F92959F708F702AE0929FF5
:10137000800D11240895C498C3980895C398C49A01
:10138000BD9A30E020E090E0C39842E04A95F1F742
:1013900000C0AC01022E02C0559547950A94E2F7B1
:1013A00040FF0CC0C59AC39A42E04A95F1F700C0CD
:1013B0002F5F3F4F2830310539F70895C598F3CF97
:1013C000BD98C59A30E020E080E061E070E0C3980D
:1013D000AB01022E01C0440F0A94EAF7B59B10C07E
:1013E000842B92E09A95F1F700C0C39A92E09A9507
:1013F000F1F700C02F5F3F4F2830310541F70895C6
:1014000040958423EECFBC9AC498BB9AC398BD98EC
:101410000895CF93DF93EC0181E8B0DFD1DFA2DF45
:101420008883A9DF83E8AADFCBDF9CDF8983A3DF82
:1014300085E8A4DFC5DF8A839EDF8A81982F9072BA
:101440009B83982F90789C8387FF1EC08F718A831F
:101450008A8188DF8A8387E891DFB2DF83DF8E832A
:101460008ADF89E88BDFACDF7DDF8F8384DF8BE869
:1014700085DFA6DF8D837FDF8DE880DFA1DF72DF70
:101480008887DF91CF9177CF8F73E1CFCF93DF93B1
:10149000EC018EE873DF80E071DF6DDF80E86EDFE6
:1014A00088815ADF6BDF67DF82E868DF898154DF7C
:1014B00065DF61DF84E862DF8A814EDF9B812C81FA
:1014C000922B892B5BDF57DF86E858DF8E8144DF64
:1014D00055DF51DF88E852DF8F813EDF4FDF4BDF82
:1014E0008AE84CDF8D814ADF46DF8CE847DF88855C
:1014F00033DF44DFDF91CF913ECFCF93880F8F53FF
:101500003DDF5EDFC82F37DF8C2FCF910895CF935B
:10151000DF93D82FC62F8EE831DF80E02FDF2BDF5F
:1015200080E68C0F880F2ADF8D2F28DFDF91CF9187
:1015300022CF1F93CF93DF93EC01162F862FDDDF91
:10154000888381E0810FD9DF898382E0810FD5DF35
:101550008A8383E0810FD1DF8B8384E0810FCDDF2D
:101560008C8385E0810FC9DF8D8386E0810FC5DF25
:101570008E8387E0810FC1DF8F8388E0810FBDDF1D
:101580008887DF91CF911F9108950F931F93CF9379
:101590008C01C62FFC018081BADF61E06C0FF8017D
:1015A0008181B5DF62E06C0FF8018281B0DF63E01A
:1015B0006C0FF8018381ABDF64E06C0FF80184816C
:1015C000A6DF65E06C0FF8018581A1DF66E06C0F96
:1015D000F80186819CDF67E06C0FF801878197DF57
:1015E00068E06C0FF8018085CF911F910F918FCF2C
:1015F000FC01DB0180819C91890F80838C3330F06A
:1016000091818C53808381E0890F81838181119640
:101610009C911197890F81838C3330F092818C5388
:10162000818381E0890F8283828112969C91890F48
:101630008283883150F0258196818851828381E0B0
:10164000820F858381E0890F86838581883010F041
:1016500081E085838781A82FB0E0A257BF4F2C91EE
:101660009085823021F4392F337009F42F5F368151
:10167000231720F421E026838F5F878387818D30B5
:1016800020F081E087839F5F90878085843608F013
:1016900010860895FC01DB0120819C91822F891B1B
:1016A0002917E0F5845C808391E0418111962C91AB
:1016B0001197842F821B290F3327331F42171306DC
:1016C00084F5845C891B818391E0428112962C9180
:1016D000842F821B290F3327331F421713062CF543
:1016E000885E891B82838681823010F587818230F3
:1016F00010F1815087839781A92FB0E0A257BF4F87
:101700008C91923021F49085937009F48F5F8683D9
:1017100085818230D0F0815085830895808390E068
:10172000C4CF891B818390E0D0CF891B8283089529
:101730008150868308958CE087838085882319F003
:1017400081508087D8CF83E6FCCF87E0E5CFDC01EE
:10175000FB0118969C9118978085891790F0981333
:101760000EC017969C9117978781891750F0981390
:1017700006C081E016962C919681921708F080E0C1
:10178000089581E00895DC01FB0112969C91129767
:101790008281891788F098130DC011969C9111973A
:1017A0008181891748F0981305C081E02C919081C0
:1017B000921708F080E0089581E008952F932FB7E5
:1017C0002F938F939F93EF93FF938BB19CB1E091F5
:1017D0002202EF5FEF73209121022E1789F08871AA
:1017E000E0932202F0E0EB5DFD4F908380932002B6
:1017F000FF91EF919F918F912F912FBF2F9118956E
:1018000082E0F4CF8F938FB78F939F93EF93FF93E3
:101810009091240280912302981791F0E091230285
:10182000EF5FEF73E0932302F0E0EB59FD4F80810F
:101830008CB9FF91EF919F918F918FBF8F911895E8
:101840005598F7CF9C011092240210922302109217
:1018500022021092210297FF03C082E08BB93F77EA
:1018600030BD29B988E98AB986E880BD089590918C
:10187000220280912102981799F0E0912102EF5FF6
:10188000EF73E0932102F0E0EB5DFD4F208190913A
:101890002002892F90E0982F8827820F911D0895AC
:1018A00080E091E00895909124029F5F9F732091C2
:1018B00023022917E1F3E92FF0E0EB59FD4F808374
:1018C00090932402559A0895CF93DF93EC01899168
:1018D000811103C0DF91CF910895E5DFF8CFCF9359
:1018E000DF93EC01FE0184912196811103C0DF9109
:1018F000CF910895D8DFF6CFFC01680F791F80E003
:1019000048E1E617F70709F40895219198E0382F88
:101910003227532F517030FD8427869551118068EE
:1019200026959150A1F7EDCF379A86B1866086B99A
:10193000089597B1907F97B997B18B5F892B87B93D
:10194000369A3699FECF95B181E0923008F480E066
:101950000895BA9AC29885E083BF89E282BF89B7A9
:10196000816089BF82E28FBD89E18EBD8FEF9FEFDD
:1019700097BD86BD089588B599B56FE872E0F1D03E
:10198000862F9091AA0291118068089589B78E7F61
:1019900089BF81E08093AA028091A8029091A90258
:1019A00099BD88BD089589B78E7F89BF1092AA021C
:1019B00019BC18BC08958091A6029091A702892BAA
:1019C00029F48091AA028111E1CFEDCF8091A70285
:1019D0008093A5028091A60282BF89B7816089BFEA
:1019E00008952FEF3FEF843639F04FE852E0849F9F
:1019F0009001859F300D11243093A9022093A802F5
:101A0000662391F0882381F04CEB52E0649F9001B3
:101A1000659F300D1124682F70E0C901B6D0709316
:101A2000A7026093A602C7CF70E060E0F8CF809174
:101A3000AA02811104C081E08093AA02BCCF08955C
:101A40008091AA02882319F01092AA02B4CF0895B7
:101A50002F932FB72F933F938F939F938091A5023E
:101A6000882351F081508093A5029F918F913F91DF
:101A70002F912FBF2F9118958091A7028093A502D7
:101A80008091A602809582BF8091AA028823C1F02E
:101A900028B539B58091A8029091A9022817390775
:101AA00030F488B599B5019699BD88BDDECF28B5CB
:101AB00039B58217930740F488B599B50197F4CFEB
:101AC00088B599B5892BC1F789B78E7F89BFCDCFEE
:101AD00088E19EE00FB6F894A89581BD0FBE91BD38
:101AE00059D4D0E0C0E008EE13E0A8952196C9389B
:101AF00083E1D80728F0BAD4D0E0C0E0A9D5F5CF6B
:101B0000CE01B8012ED0892BC9F7B0D4C03D87E0F3
:101B1000D80711F4EDD4F2CFC83B8BE0D80731F0F1
:101B2000C83883E1D80751F77FD5E8CF47D5E6CF4E
:101B3000991B79E004C0991F961708F0961B881F1F
:101B40007A95C9F78095089587FB082E062687FDAC
:101B5000819567FD6195ECDF0EF4919507FC819509
:101B60000895AA1BBB1B51E107C0AA1FBB1FA617E4
:101B7000B70710F0A61BB70B881F991F5A95A9F736
:101B800080959095BC01CD01089597FB072E16F422
:101B9000009406D077FD08D0E4DF07FC05D03EF4C2
:101BA000909581959F4F0895709561957F4F089509
:101BB00070D088F09F5790F0B92F9927B751A0F0B7
:101BC000D1F0660F771F881F991F1AF0BA95C9F7D1
:101BD00012C0B13081F077D0B1E0089574C0672FA2
:101BE000782F8827B85F39F0B93FCCF38695779581
:101BF0006795B395D9F73EF490958095709561956A
:101C00007F4F8F4F9F4F0895E89409C097FB3EF494
:101C100090958095709561957F4F8F4F9F4F992339
:101C2000A9F0F92F96E9BB279395F69587957795B7
:101C30006795B795F111F8CFFAF4BB0F11F460FF77
:101C40001BC06F5F7F4F8F4F9F4F16C0882311F0CF
:101C500096E911C0772321F09EE8872F762F05C0E3
:101C6000662371F096E8862F70E060E02AF09A957E
:101C7000660F771F881FDAF7880F9695879597F973
:101C8000089557FD9058440F551F59F05F3F71F06C
:101C90004795880F97FB991F61F09F3F79F08795D3
:101CA0000895121613061406551FF2CF4695F1DF5C
:101CB00008C0161617061806991FF1CF86957105EC
:101CC000610508940895E894BB2766277727CB0120
:101CD00097F908950BD078C069D028F06ED018F02D
:101CE000952309F05AC05FC01124EECFCADFA0F3DC
:101CF000959FD1F3950F50E0551F629FF001729FA1
:101D0000BB27F00DB11D639FAA27F00DB11DAA1FBF
:101D1000649F6627B00DA11D661F829F2227B00D0C
:101D2000A11D621F739FB00DA11D621F839FA00D97
:101D3000611D221F749F3327A00D611D231F849FE7
:101D4000600D211D822F762F6A2F11249F5750403E
:101D50008AF0E1F088234AF0EE0FFF1FBB1F661FD9
:101D6000771F881F91505040A9F79E3F510570F092
:101D700014C0AACF5F3FECF3983EDCF386957795CD
:101D80006795B795F795E7959F5FC1F7FE2B880F8D
:101D9000911D9695879597F9089597F99F6780E823
:101DA00070E060E008959FEF80EC089500240A94AD
:101DB0001616170618060906089500240A94121626
:101DC0001306140605060895092E0394000C11F459
:101DD000882352F0BB0F40F4BF2B11F460FF04C006
:101DE0006F5F7F4F8F4F9F4F0895FB01DC01415084
:101DF000504030F08D910190801919F40020B9F70E
:101E0000881B990B0895E199FECF9FBB8EBBE09A8A
:101E100099278DB30895262FE199FECF9FBB8EBBE6
:101E2000E09A01970DB2021631F02DBB0FB6F8946F
:101E3000E29AE19A0FBE0895F894FFCF82C43AC5A2
:0A1E40003CC53EC540C542C544C57F
:101E4A003F065B4F666D7D077F6F320004320002EA
:101E5A00320007320005380007320003380000322A
:101E6A000006380001350005350004350003001F5F
:101E7A001C1F1E1F1E1F1F1E1F1E1F4F4B0D0A0059
:101E8A00554E4B4E4F574E0D0A000D0A4552524FB2
:101E9A00520D0A00082008007374617475730044B7
:101EAA006174653A20004D6F6E64617900547565FE
:101EBA0073646179005765646E657364617900546F
:101ECA006875727364617900467269646179005356
:101EDA00617475726461790053756E646179000D7D
:101EEA000A54696D653A2000202800207365632032
:101EFA00617420000D0A54656D703A20002D2D0082
:101F0A000D0A486561743A20004F4E004F4646005C
:101F1A00206175746F2000206D616E75616C200000
:101F2A000D0A4C696768743A20006D696E000D0AE3
:101F3A00446973706C61793A200074696D65007444
:101F4A00656D700064617465200074696D652000B8
:101F5A006865617420006F6E006F66660061757453
:101F6A006F006C6967687420006C6576656C200088
:101F7A00726973652000646973706C6179200072FC
:0C1F8A0065626F6F740068656C70000089
:00000001FF
