:1000000019C033C032C031C0C3C12FC02EC02DC0F3
:100010002CC02BC02AC040C468C427C026C025C03D
:1000200024C023C022C094C696C698C69AC69CC651
:100030009EC6A0C611241FBECFE5D4E0DEBFCDBF53
:1000400011E0A0E6B0E0EEE7F5E102C005900D9208
:10005000A030B107D9F721E0A0E0B1E001C01D92C6
:10006000AB36B207E1F7D8D488CACACFCF92DF92B5
:10007000EF92FF92CF93C82F87FF02C08DE289D401
:10008000CC2E0C2E000CDD08EE08FF08F7FE08C091
:10009000F094E094D094C094C11CD11CE11CF11CDC
:1000A00084E6C816D104E104F10414F081E371D4AC
:1000B000C701B60124E630E040E050E0B2D82AE0C3
:1000C00030E040E050E0ADD880E3820F62D48C2F66
:1000D0006AE09AD880E3890FCF91FF90EF90DF908C
:1000E000CF9057C4E82FF0E0EB5BFE4F80E020E0BC
:1000F000261751F03191880F982F990F990F890F7A
:100100008053830F2F5FF4CF08958062089590EDA0
:10011000980F81E09A3008F080E0089580E990E03F
:1001200049C488B38F6388BB87B38F6387BB85B3AC
:100130008F6085BB84B38F6084BB82B3806C82BBCD
:1001400081B3806C81BB85B5826085BD14BC89B7E5
:10015000806489BF1092660110926501E7E6F1E0C4
:1001600080E4808381838283838308950F931F9328
:10017000CF93DF93CDB7DEB729970FB6F894DEBFE4
:100180000FBECDBF09831A832B833C834D835E83CF
:100190006F83788789873AE0812F632F29D8E92FE9
:1001A000F0E0E05AFF4F908190936701E82FF0E074
:1001B000E05AFF4F808180936801822F19D8E92F80
:1001C000F0E0E05AFF4F9081909369012A3018F4D3
:1001D00010926A0107C0E82FF0E0E05AFF4F8081DB
:1001E00080936A01898180FF0AC0809169018068DB
:1001F0008093690180916A01806880936A012996E1
:100200000FB6F894DEBF0FBECDBFDF91CF911F9127
:100210000F9108954F925F926F927F928F929F926B
:10022000AF92BF92CF92DF92EF92FF924B015C01AF
:10023000A7D86B017C0122E538E34EED52ECC501F5
:10024000B40139D8811106C01092670180E480930F
:1002500068018DC0D701C6010996A11DB11D439744
:10026000A105B105D0F410926701D701C601F7FED0
:1002700007C088279927DC018C199D09AE09BF09A1
:10028000FC01E05AFF4F808180936801F7FE02C0B5
:1002900080E46DC0109269016CC0D701C6018D5910
:1002A0009F4FAF4FBF4F873C9105A105B10520F58A
:1002B00010926701C701B601F7FE07C066277727CE
:1002C000CB016C197D098E099F092AE030E040E0DE
:1002D00050E0A7D7FB01E05AFF4F8081809368016F
:1002E000F901E05AFF4F808180936901F7FE41C018
:1002F00080E480936A013FC0F7FE08C0F094E09468
:10030000D094C094C11CD11CE11CF11C8AE0482E81
:10031000512C612C712CC701B601A301920181D728
:10032000FB01E05AFF4F80818093670194E6892E9C
:10033000912CA12CB12CC701B601A501940171D754
:10034000A30192016ED7F901E05AFF4F808180939B
:100350006801C701B60128EE33E040E050E061D704
:10036000A50194015ED7F901E05AFF4F8081809387
:10037000690110926A01FF90EF90DF90CF90BF90DB
:10038000AF909F908F907F906F905F904F90089567
:100390001F920F920FB60F9211242F933F934F93FA
:1003A0005F938F939F93AF93BF93EF93FF93E4E893
:1003B000F0E041E050E0A081B1819C919A0102807F
:1003C00002C0220F331F0A94E2F7822F80958923FF
:1003D0008C93339680E0E039F80769F7ECE6F0E0BB
:1003E00041E050E0A081B1812C91CA01028002C09D
:1003F000880F991F0A94E2F7822B8C93339680E042
:10040000E438F80779F7E0916601F0E0E959FE4F2A
:1004100080812091650190E002C0959587952A958D
:10042000E2F780FF25C0809165012091650130E0F1
:10043000F901EE0FFF1F2E0F3F1FF901E459FF4F87
:10044000A081B1812C9190E0FC01EE0FFF1F8E0F77
:100450009F1FFC01E459FF4F81E090E0028002C041
:10046000880F991F0A94E2F78095909582238C93C8
:10047000809166012091660130E0F901EE0FFF1FC7
:100480002E0F3F1FF901EC57FF4FA081B1812C9136
:1004900090E0FC01EE0FFF1F8E0F9F1FFC01EC5739
:1004A000FF4F81E090E0028002C0880F991F0A94FC
:1004B000E2F7822B8C93809165018F5F80936501B9
:1004C000883058F010926501809166018F5F8093AB
:1004D0006601843010F010926601FF91EF91BF9198
:1004E000AF919F918F915F914F913F912F910F907D
:1004F0000FBE0F901F90189593988B9A78948FEB5E
:1005000093E00197F1F700C00000F8948B9890EA0F
:100510009A95F1F780B37894E7E4F3E03197F1F737
:1005200000C00000F8948870089593988B9A92E028
:100530009A95F1F700C081118B98789480EA8A959A
:10054000F1F7F8948B98089593988B9A82E08A95A6
:10055000F1F700C08B9895E29A95F1F7000080B30F
:10056000789498E79A95F1F7F89483FB882780F9B7
:100570000895CF93DF93D82FC9E0C15029F08D2F74
:100580008170D3DFD695F9CFDF91CF910895CF93C6
:10059000DF93D9E0C0E0D15041F0D6DF20E8829F60
:1005A000C0011124C695C82BF6CF8C2FDF91CF91B7
:1005B0000895CF92DF92FF920F931F93CF93DF9313
:1005C000CDB7DEB72A970FB6F894DEBF0FBECDBF0A
:1005D000F89492DF811119C08CECCBDF8EE4C9DF77
:1005E00080E0C7DF80E0C5DF8FE1C3DF85DF8111F9
:1005F0000CC08CECBEDF84E4BCDF7894A5DF8823DC
:10060000E9F3F89479DF882311F0789430C08CEC0A
:10061000B0DF8EEBAEDF8E010F5F1F4F6E018AE001
:10062000C80ED11CF02E912F9A87B1DFF80181936B
:100630008F019A85EC15FD05B9F7789468E070E0B4
:100640008F2DD1D19985891312C06A8170E0762FE0
:1006500066278981680F711D072E000C880B990B86
:1006600030D620E030E040E85DE3BAD604C062E571
:1006700078E38EED92EC2A960FB6F894DEBF0FBEAB
:10068000CDBFDF91CF911F910F91FF90DF90CF9061
:1006900008956AE0ADD5292F30E1839FC001112470
:1006A000822B0895382F3F70982F969596959695A2
:1006B0009E70292F220F220F892F820F830F0895FA
:1006C000C698959ABF9A20E030E090E0C69842E044
:1006D0004A95F1F700C0AC01022E02C0559547952E
:1006E0000A94E2F740FF02C0C79A01C0C798C69AB1
:1006F00042E04A95F1F700C02F5F3F4F28303105A7
:1007000029F708959598C6980895BF98C79A20E04C
:1007100030E080E061E070E0C698AB01022E01C0DD
:10072000440F0A94EAF7B79B02C0842B02C040959D
:10073000842392E09A95F1F700C0C69A92E09A95C8
:10074000F1F700C02F5F3F4F2830310529F795980A
:10075000C69808958D9A9598BE9AC698BF980895A0
:10076000AF92BF92CF92DF92EF92FF920F931F93BF
:10077000CF93DF93EC0181E8A3DFC7DF93DFA82EDF
:1007800083E89EDFC2DF8EDFB82E85E899DFBDDF0C
:10079000082F0072182F1078103811F48F7101C0D3
:1007A0008F7380DFC82E87E88BDFAFDF7BDFE82E1B
:1007B00089E886DFAADF76DFD82E8BE881DFA5DF28
:1007C000F82E8DE87DDFA1DF6DDFA882B982CA82B5
:1007D000DB82EC828D83FE820F831887CE01DF914E
:1007E000CF911F910F91FF90EF90DF90CF90BF902E
:1007F000AF9008950F931F93CF93DF93CDB7DEB7DC
:1008000029970FB6F894DEBF0FBECDBF09831A83B8
:100810002B833C834D835E836F83788789878EE843
:100820004FDF80E04DDF6EDF80E84ADF898131DF16
:1008300047DF68DF82E844DF8A812BDF41DF62DF48
:100840008B8127DF18859985192B182B84E838DFD1
:10085000812F36DF57DF86E833DF8D811ADF30DF07
:1008600051DF88E82DDF8C8114DF2ADF4BDF8AE837
:1008700027DF8F8125DF46DF8CE822DF8E8109DFCD
:100880001FDF29960FB6F894DEBF0FBECDBFDF91F4
:10089000CF911F910F9136CF1F920F920FB60F92EB
:1008A00011242F938F939F93EF93FF938BB19CB160
:1008B0008871E0910201EF5FEF7120910101E21771
:1008C00039F0E0930201F0E0EB5FFE4F908301C04E
:1008D00082E080930001FF91EF919F918F912F9182
:1008E0000F900FBE0F901F9018951F920F920FB68A
:1008F0000F9211248F939F93EF93FF939091040194
:1009000080910301981761F0E0910301EF5FEF71AF
:10091000E0930301F0E0EB5DFE4F80818CB901C0F4
:100920005598FF91EF919F918F910F900FBE0F906F
:100930001F90189510920401109203011092020169
:100940001092010197FF03C022E02BB99F7790BD61
:1009500089B988E98AB986E880BD08959091020135
:1009600080910101981791F0E0910101EF5FEF7123
:10097000E0930101F0E0EB5FFE4F208180910001E8
:1009800090E0982F8827820F911D089580E091E0D4
:100990000895909104019F5F9F7120910301921728
:1009A000E1F3E92FF0E0EB5DFE4F808390930401CB
:1009B000559A0895CF93DF93EC018991882311F024
:1009C000E8DFFBCFDF91CF910895CF93DF93FC0158
:1009D0008491EF012196882319F0DBDFFE01F8CF27
:1009E000DF91CF910895FC01680F791F80E048E105
:1009F000E617F70781F0219198E0382F3227532F1F
:100A0000517030FD84278695513009F48068269511
:100A1000915099F7EDCF0895CF93DF93CDB7DEB71F
:100A2000A2970FB6F894DEBF0FBECDBF80E090E076
:100A30008BD58A8B81E090E087D5898B82E090E02E
:100A400083D58C8B83E090E07FD58D8B84E090E024
:100A50007BD58E8B85E090E077D58F8B86E090E01C
:100A600073D5888F87E090E06FD5898FA49AA59A77
:100A700058DB70DE83E390E05DDF78941B8A21E928
:100A80003FEF4FEF5FEF2D873E874F87588B82E513
:100A9000682E98E3792E0EED12EC1C8631E03B8730
:100AA0001E8ECE0101965CDED980EA80FB80BC8080
:100AB000CD809E808F807DDDA62E7A871C0122E569
:100AC00038E34EED52ECF7D3811109C04C85453027
:100AD00078F44F5F4C87A62C7A86180112C06A2DD5
:100AE0007A85C1014DD46D877E878F87988B08C02A
:100AF00081E99FEFAFEFBFEF8D879E87AF87B88B00
:100B00001C8620B3AE8D8A2F90E0229521702F8F06
:100B100018A22F8D38A128173907F1F03FE745EBD0
:100B200051E0315040405040E1F700C0000020B398
:100B30002295217029A31AA2A9A1BAA18A179B07FD
:100B400059F080B3829581708E8F849B05C0BB85E0
:100B5000B130E1F0B03131F02B85213019F0203186
:100B6000D9F414C0D982EA82FB82BC82CD829E82F3
:100B70008F820D2D1E2D2F2D3B2D4C2D592D682D87
:100B800078858985F3DA31E03B8706C06A2D7A855E
:100B9000C10140DB40E14B8722E538E34EED52ECEA
:100BA0006A2D7A85C10187D3882309F15A89852F57
:100BB000550F990BAA0BBB0B2D853E854F85588988
:100BC000281739074A075B0714F49D9BAD9A3989AA
:100BD000832F330F990BAA0BBB0B2D853E854F85B9
:100BE000588982179307A407B50714F49D99AD9807
:100BF0002F2D30E0A0E1BEE030D32B013C012E2DA3
:100C000030E0ACE3B0E029D3460E571E681E791ED3
:100C10004D0C511C611C711C4E89242F30E0A0E149
:100C2000BEE01BD36A8F7B8F8C8F9D8F5D89252FB4
:100C300030E0ACE3B0E011D32A8D3B8D4C8D5D8D5F
:100C4000260F371F481F591FDA01C9013C89830F3E
:100C5000911DA11DB11D481659066A067B0640F17B
:100C6000498D242F30E0A0E1BEE0F7D26A8F7B8F60
:100C70008C8F9D8F588D252F30E0ACE3B0E0EDD206
:100C80002A8D3B8D4C8D5D8D260F371F481F591FB8
:100C9000DA01C9013F89830F911DA11DB11D841582
:100CA0009505A605B70520F09C9904C0AC9A02C032
:100CB0009C99AC9853DE9C012227232B09F052C14A
:100CC0001B891F5F4B89E42FF0E0EB5BFE4F8083B5
:100CD000103208F046C1E12FF0E0EC5BFE4F80815E
:100CE0008A3009F03BC1809145018062833709F069
:100CF000A4C0809146018062843709F02BC18091A5
:100D000047018062813609F025C1809148018062E7
:100D1000843709F01FC1809149018062853609F04E
:100D200019C18C2DA3D98EE234DE8B2D9FD985E994
:100D300090E040DE892D9AD980E22BDE882D90E06C
:100D4000FC013197E730F105C0F4ED5EFF4F0994E7
:100D500089E990E011C080EA90E00EC088EA90E056
:100D60000BC082EB90E008C08BEB90E005C082ECFA
:100D700090E002C08BEC90E01DDE80E20ADE8F2D59
:100D800075D98AE306DE8E2D71D98AE302DE8D2DB8
:100D90006DD982ED90E00EDE22E538E34EED52ECA7
:100DA0006A2D7A85C10187D2811104C08BED90E054
:100DB00001DE02C08D855AD98EED90E0FBDD9D9B52
:100DC00003C087EE90E002C08AEE90E0F3DD80E29F
:100DD000E0DD88E2DEDD8A8949D98DE2DADD8989C4
:100DE00045D989E2D6DD8EEE90E0E4DD9C9B03C020
:100DF00087EE90E002C08AEE90E0DCDD80E2C9DDA3
:100E000088E2C7DD8E8932D98AE3C3DD8D892ED988
:100E10008AE3BFDD8C892AD98DE2BBDD898D26D995
:100E20008AE3B7DD888D22D98AE3B3DD8F891ED9A5
:100E300089E2AFDD82E990E08FC08436F1F48091E1
:100E400046018062813609F085C080914701806249
:100E5000843709F07FC0809148018062853609F0AF
:100E600079C080914901803209F074C080914A01B3
:100E700080538A3008F460C06DC08437F1F48091EB
:100E800046018062893609F065C080914701806221
:100E90008D3609F05FC0809148018062853609F087
:100EA00059C080914901803209F054C080914A01B3
:100EB00080538A3008F4A0C04DC08836E1F4809198
:100EC00046018062853609F045C080914701806205
:100ED000813609F03FC08091480180628437D1F5A6
:100EE000809149018032B1F580914A0180538A3066
:100EF00008F4CAC02FC08C3669F580914601806223
:100F0000893641F5809147018062873619F58091D5
:100F1000480180628836F1F480914901806284370B
:100F2000C9F480914A018032A9F480914B01805329
:100F30008A3008F4D0C00EC080914B0180538A30B3
:100F400048F480914C018E3229F480914D018053F8
:100F50008A30A8F088EF90E02DDD10E0FFDC1B8BDD
:100F6000AACE1B8A5FEF80E792E05150804090400C
:100F7000E1F700C000006A2C7A84810192CD809153
:100F80004E0180538A3030F780914F018E3211F735
:100F90008091500180538A30E8F68091510180534E
:100FA0008A30C0F6809152018032A1F680915301BF
:100FB00080538A3078F662E085E094D8C82E62E0EB
:100FC00088E090D8B82E62E08BE08CD8982E61E053
:100FD0008EE088D8882ED982EA82FB82BC82CD82BC
:100FE0009E828F830D2D1E2D2F2D3B2D4C2D592D87
:100FF000682F7885898546C080914B0180538A305F
:1010000008F0A8CF80914C018A3309F0A3CF8091DA
:101010004D0180538A3008F09DCF80914E0180535E
:101020008A3008F097CF80914F018A3309F092CF30
:101030008091500180538A3008F08CCF809151010B
:1010400080538A3008F086CF62E085E04BD8F82ED6
:1010500062E088E047D8E82E62E08BE043D8D82EE3
:10106000198618868983EA82FB82BC82CD829E82A1
:101070008F82082F1E2D2F2D3B2D4C2D592D682D85
:1010800070E080E0B7DBB2C080914B0180538A30C2
:1010900008F060CF80914C018D3209F05BCF8091D8
:1010A0004D0180538A3008F055CF80914E01805316
:1010B0008A3008F04FCF62E085E014D88A8B62E076
:1010C00088E010D8898B6A8980E090E045D26989F0
:1010D00081E090E08AC080914C0180538A3008F012
:1010E00039CF80914D018A3309F034CF80914E0180
:1010F00080538A3008F02ECF80914F0180538A3080
:1011000008F028CF809150018A3309F023CF8091D5
:10111000510180538A3008F01DCF809152018053D5
:101120008A3008F017CF809153018D3209F012CF29
:101130008091540180538A3008F00CCF8091550182
:1011400080538A3008F006CF809156018A3309F027
:1011500001CF8091570180538A3008F0FBCE8091F7
:10116000580180538A3008F0F5CE809159018A33B6
:1011700009F0F0CE80915A0180538A3008F0EACE0F
:1011800080915B0180538A3008F0E4CE62E086E013
:10119000A9D78E8B62E089E0A5D78D8B62E08CE0C9
:1011A000A1D78C8B62E08FE09DD7898F62E082E1CE
:1011B00099D7888F62E085E195D78F8B6E8984E01F
:1011C00090E0CAD16D8983E090E0C6D16C8982E05D
:1011D00090E0C2D1698D87E090E0BED1688D86E055
:1011E00090E0BAD16F8985E090E0B6D197D7B5CEBF
:1011F000991B79E004C0991F961708F0961B881F69
:101200007A95C9F78095089587FB082E062687FDF5
:10121000819567FD6195ECDF0EF4919507FC819552
:101220000895052E97FB16F400940FD057FD05D0B6
:1012300020D007FC02D046F408C050954095309568
:1012400021953F4F4F4F5F4F089590958095709532
:1012500061957F4F8F4F9F4F0895A29FB001B39F1D
:10126000C001A39F01D0B29F700D811D1124911D5B
:101270000895A1E21A2EAA1BBB1BFD010DC0AA1FD7
:10128000BB1FEE1FFF1FA217B307E407F50720F0EF
:10129000A21BB30BE40BF50B661F771F881F991F6A
:1012A0001A9469F760957095809590959B01AC01B3
:1012B000BD01CF01089540D008F481E00895E8947D
:1012C00009C097FB3EF490958095709561957F4F8E
:1012D0008F4F9F4F9923A9F0F92F96E9BB2793953C
:1012E000F695879577956795B795F111F8CFFAF44C
:1012F000BB0F11F460FF1BC06F5F7F4F8F4F9F4F7D
:1013000016C0882311F096E911C0772321F09EE8DA
:10131000872F762F05C0662371F096E8862F70E040
:1013200060E02AF09A95660F771F881FDAF7880F1A
:101330009695879597F90895990F0008550FAA0B70
:10134000E0E8FEEF16161706E807F907C0F01216D8
:101350001306E407F50798F0621B730B840B950BDB
:1013600039F40A2661F0232B242B252B21F4089530
:101370000A2609F4A140A6958FEF811D811D0895CD
:10138000C2D058F19E5758F19851A0F0E9F098302A
:1013900020F5092E9927660F771F881F991F0A9439
:1013A000D1F712C0062E672F782F8827985F11F487
:1013B000000C07C0993FB4F3869577956795939590
:1013C000D9F7611D711D811D3EF490958095709532
:1013D00061957F4F8F4F9F4F08956894AFC0ADC008
:1013E0000BD078C069D028F06ED018F0952309F0A2
:1013F0005AC05FC01124A2C07ED0A0F3959FD1F344
:10140000950F50E0551F629FF001729FBB27F00DB2
:10141000B11D639FAA27F00DB11DAA1F649F662707
:10142000B00DA11D661F829F2227B00DA11D621F56
:10143000739FB00DA11D621F839FA00D611D221F10
:10144000749F3327A00D611D231F849F600D211DF4
:10145000822F762F6A2F11249F5750408AF0E1F097
:1014600088234AF0EE0FFF1FBB1F661F771F881FE0
:1014700091505040A9F79E3F510570F014C05EC0D6
:101480005F3FECF3983EDCF3869577956795B795CB
:10149000F795E7959F5FC1F7FE2B880F911D9695F5
:1014A000879597F9089597F99F6780E870E060E065
:1014B00008959FEF80EC089500240A9416161706ED
:1014C00018060906089500240A9412161306140635
:1014D00005060895092E0394000C11F4882352F098
:1014E000BB0F40F4BF2B11F460FF04C06F5F7F4F50
:1014F0008F4F9F4F089557FD9058440F551F59F037
:101500005F3F71F04795880F97FB991F61F09F3FF0
:1015100079F087950895121613061406551FF2CF19
:101520004695F1DF08C0161617061806991FF1CF69
:1015300086957105610508940895E894BB27662790
:101540007727CB0197F90895E199FECF9FBB8EBB1A
:10155000E09A99278DB30895262FE199FECF9FBB7E
:101560008EBBE09A01970DB2021631F02DBB0FB67B
:0E157000F894E29AE19A0FBE0895F894FFCF26
:10157E003F305B79746D6F387F7D5C0F38000232BF
:10158E000006350002380005380004380001350029
:10159E000135000338000338000032000735000023
:1015AE004F4B0D0A002E3230004D6F6E6461790084
:1015BE0054756573646179005765646E6573646113
:1015CE00790054687572736461790046726964615A
:1015DE00790053617475726461790053756E64613C
:1015EE0079000D0A54656D703A20002D2D000D0AFC
:1015FE00486561743A20004F4E004F4646000D0A72
:10160E004C696768743A20004552524F520D0A00D9
:00000001FF
