:1000000012C02CC02BC02AC0C2C128C027C026C025
:1000100025C05BC623C05EC586C520C01FC01EC0EC
:100020001DC01CC01BC011241FBECFE5D4E0DEBF25
:10003000CDBF11E0A0E6B0E0EAECFCE102C0059023
:100040000D92AC34B107D9F721E0ACE4B1E001C0C6
:100050001D92AC3BB207E1F77CD635CED1CFCF9223
:10006000DF92EF92FF92CF93DF93C82FD62F87FFB7
:1000700002C08DE2ADD5CC2E0C2E000CDD08EE08B2
:10008000FF08F7FE08C0F094E094D094C094C11C1F
:10009000D11CE11CF11C84E6C816D104E104F10472
:1000A00014F4D33050F0C701B60124E630E040E04C
:1000B00050E095DC80E3820F8BD58AE0C816D1042E
:1000C000E104F10414F4D23078F0C701B60124E65B
:1000D00030E040E050E083DC2AE030E040E050E0F7
:1000E0007EDC80E3820F74D58C2F6AE057DC80E3DE
:1000F000890FDF91CF91FF90EF90DF90CF9068C58F
:10010000E82FF0E0EF56FE4F80E090E03AE09613E3
:1001100001C008952191839F200D1124822F8053C7
:100120009F5FF5CF882319F08DE990E062C582EAE0
:1001300090E0FCCF90ED980F81E09A3008F080E0DD
:1001400008950F931F93CF93DF93EC018B01BA01B6
:100150009885F8018085891760F0981339C09F81D0
:100160008781891730F0981333C09E818681891763
:1001700078F59A81F8018281891760F0981328C078
:1001800099818181891730F0981322C098818081EC
:100190008917F0F4FB0183818B32A1F08D32A9F035
:1001A000CE013FD38885F80180878F8187838E8138
:1001B00086838D818583B80180E0DF91CF911F9187
:1001C0000F91AEC3CE01DFD3EBCFCE012ED4E8CF5B
:1001D000DF91CF911F910F91089588B3836888BBF9
:1001E00087B3836887BB85B3886385BB84B3886323
:1001F00084BB82B38C6F82BB81B38C6F81BB85B5AE
:10020000826085BD14BC89B7806489BF1092B30138
:100210001092B101E4EBF1E08FEF80838183828360
:1002200083830895DC0111968C9111973AE0632F36
:10023000A9DBE92FF0E0E05AFF4F90819093B401E1
:10024000E82FF0E0E05AFF4F80818093B5011296CD
:100250002C911297822F96DBE92FF0E0E05AFF4FA6
:1002600090819093B6012A3080F41092B7018C915E
:1002700080FF0AC08091B40180688093B4018091AE
:10028000B50180688093B5010895E82FF0E0E05A49
:10029000FF4F80818093B701EACF8F929F92AF92F8
:1002A000BF92CF92DF92EF92FF92CF93C82F8F37FA
:1002B00041F41092B40180E48093B5018093B601BB
:1002C00020C0C82E880FDD08EE08FF08F7FE08C022
:1002D000F094E094D094C094C11CD11CE11CF11C9A
:1002E00089E08C0F833180F41092B401F601E05A5A
:1002F000FF4F80818093B50180E4C7FDDFCF10926E
:10030000B6011092B70121C08AE0882E912CA12C51
:10031000B12CC701B601A501940161DB605A7F4F82
:10032000FB01808193E69C0F973CC8F41092B401C6
:100330008093B501205A3F4FF90180818093B60127
:10034000C7FFDFCF80E48093B701CF91FF90EF909C
:10035000DF90CF90BF90AF909F908F900895809343
:10036000B401C701B60124E630E040E050E037DBDD
:100370006901A501940133DB205A3F4FF9018081C7
:100380008093B501F601E05AFF4F808197CF1F920D
:100390000F920FB60F9211242F933F934F935F93B9
:1003A0006F937F938F939F93AF93BF93EF93FF933D
:1003B0008091B9019091BA0101969093BA0180930E
:1003C000B901E4E8F0E041E050E0A081B1812C9176
:1003D0008281BA0102C0660F771F8A95E2F7CB01CE
:1003E000809582238C93339670E0E039F70769F7A4
:1003F000ECE6F0E081E090E0A081B1812C913281C7
:10040000AC0101C0440F3A95EAF7242B2C933396A4
:1004100020E0E438F20781F7E091B301F0E0EC541A
:10042000FE4F20814091B10130E002C03595279503
:100430004A95E2F720FF24C0E091B101A091B101FB
:100440002A2F30E0D901AA0FBB1FA20FB31FA45956
:10045000BF4F0D90BC91A02D4C912E2F30E0F90193
:10046000EE0FFF1FE20FF31FE459FF4F228102C07E
:10047000880F991F2A95E2F78095909584238C9395
:10048000E091B301A091B3018A2F90E0DC01AA0FA3
:10049000BB1FA80FB91FAC57BF4F0D90BC91A02D2B
:1004A0002C918E2F90E0FC01EE0FFF1FE80FF91F3B
:1004B000EC57FF4F328181E090E001C0880F3A9500
:1004C000EAF7822B8C938091B1018F5F8093B10109
:1004D000883058F01092B1018091B3018F5F809302
:1004E000B301843010F01092B301FF91EF91BF91EE
:1004F000AF919F918F917F916F915F914F913F91BC
:100500002F910F900FBE0F901F901895AA98A29A46
:1005100078948FEB93E00197F1F700C00000F89416
:10052000A29890EA9A95F1F783B37894E7E4F3E020
:100530003197F1F700C00000F89484700895AA98EC
:10054000A29A92E09A95F1F700C08111A29878944E
:1005500080EA8A95F1F7F894A2980895AA98A29A49
:1005600082E08A95F1F700C0A29895E29A95F1F79A
:10057000000083B3789498E79A95F1F7F89482FB9A
:10058000882780F90895CF93DF93D82FC8E08D2F67
:100590008170D5DFD695C150D1F7DF91CF91089505
:1005A000CF93DF93D8E0C0E0D9DF20E8829FC0017D
:1005B0001124C695C82BD150B9F78C2FDF91CF915C
:1005C0000895CF92DF92EF92FF920F931F93CF93F4
:1005D000DF93CDB7DEB729970FB6F894DEBF0FBE15
:1005E000CDBF8091B201882359F08091B9019091DB
:1005F000BA018137914010F01092B2018EE706C027
:10060000F89484DF882389F078948FE729960FB6D1
:10061000F894DEBF0FBECDBFDF91CF911F910F9138
:10062000FF90EF90DF90CF9008958CECACDF8EEBD5
:10063000AADF8E010F5F1F4F6E018AE0C80ED11C2A
:100640007801AEDFF80181938F01EC15FD05C9F744
:10065000789468E070E0C701E4D2998589133BC0C3
:100660006A81862F90E0982F88276981680F792FFB
:10067000711D072E000C880B990B1DDA20E030E06D
:1006800040E85DE37CDA6B017C01F8943FDF811187
:10069000BBCF8CEC78DF8EE476DF8FE174DF78946B
:1006A0008FEC97E00197F1F700C00000F8942EDF7F
:1006B0008111AACF8CEC67DF84E465DF7894109217
:1006C000BA011092B90181E08093B201C701B6016D
:1006D000C4D9862F9BCFC12CD12C8EEFE82E82E47B
:1006E000F82ED3CF6AE04ED9292F30E1839FC00185
:1006F0001124822B0895282F2F70982F9295977090
:10070000822F3AE0939F800D11240895C398C49AD4
:10071000BD9A30E020E090E0C39842E04A95F1F7BE
:1007200000C0AC01022E02C0559547950A94E2F72D
:1007300040FF0CC0C59AC39A42E04A95F1F700C049
:100740002F5F3F4F2830310539F70895C598F3CF13
:10075000BD98C59A30E020E080E061E070E0C39889
:10076000AB01022E01C0440F0A94EAF7B59B10C0FA
:10077000842B92E09A95F1F700C0C39A92E09A9583
:10078000F1F700C02F5F3F4F2830310541F7089542
:1007900040958423EECFC498C3980895BC9AC4981A
:1007A000BB9AC398BD980895CF93DF93EC0181E87D
:1007B000ADDFCEDFA0DF8883EEDF83E8A7DFC8DF11
:1007C0009ADF8983E8DF85E8A1DFC2DF8A83E3DF80
:1007D0008A81982F90729B83982F90789C8387FFB3
:1007E0001EC08F718A838A8186DF8A8387E88EDFC5
:1007F000AFDF81DF8E83CFDF89E888DFA9DF7BDF92
:100800008F83C9DF8BE882DFA3DF8D83C4DF8DE8B0
:100810007DDF9EDF70DF8887DF91CF91BCCF8F7344
:10082000E1CF1F93CF93DF93EC018EE86FDF80E081
:100830006DDFB1DF80E86ADF888154DF67DFABDF1F
:1008400082E864DF89814EDF61DFA5DF8A814ADFCC
:100850001B819C81192B182B84E858DF812F56DFD0
:100860009ADF86E853DF8E813DDF50DF94DF88E832
:100870004DDF8F8137DF4ADF8EDF8AE847DF8D81EA
:1008800045DF89DF8CE842DF88852CDF3FDFDF91A1
:10089000CF911F9180CFCF93C0E08F3130F4880F7C
:1008A0008F5334DF55DFC82F76DF8C2FCF9108951B
:1008B000CF93C62F8F3138F4805A880F27DF8C2FC3
:1008C00025DFCF9168CFCF9108951F93CF93DF930A
:1008D000182FEB01E0DF888381E0810FDCDF898363
:1008E00082E0810FD8DF8A8383E0810FD4DF8B839E
:1008F00084E0810FD0DF8C8385E0810FCCDF8D8396
:1009000086E0810FC8DF8E8387E0810FC4DF8F838D
:1009100088E0810FC0DF8887DF91CF911F91089514
:100920000F931F93CF93C82F8B01FB016081C0DF12
:10093000F801618181E08C0FBBDFF801628182E008
:100940008C0FB6DFF801638183E08C0FB1DFF80113
:10095000648184E08C0FACDFF801658185E08C0F49
:10096000A7DFF801668186E08C0FA2DFF8016781BE
:1009700087E08C0F9DDFF801608588E08C0FCF91B8
:100980001F910F9195CFFC01DB0180819C91890F14
:1009900080838C3330F091818C53808381E0890F88
:1009A0008183818111969C911197890F81838C336A
:1009B00030F092818C53818381E0890F8283828120
:1009C00012969C91890F8283883150F025819681FF
:1009D0008851828381E0820F858381E0890F86833D
:1009E0008581883010F081E085838781A82FB0E071
:1009F000A057BF4F2C919085823021F4392F33704E
:100A000009F42F5F3681231720F421E026838F5FBE
:100A1000878387818D3020F081E087839F5F908777
:100A20008085843608F010860895FC01DB01208162
:100A30009C91822F891B2917B0F5845C808391E0FB
:100A4000418111962C911197842F821B290F3327F6
:100A5000331F4217130654F5845C891B818391E090
:100A6000428112962C91842F821B290F3327331F2A
:100A700042171306FCF4885E891B828386818230CC
:100A8000E0F487818230E0F0815087839781A92F3D
:100A9000B0E0A057BF4F8C91923081F49085937055
:100AA00069F48F5F0BC0808390E0CACF891B81837C
:100AB00090E0D6CF891B8283089581508683089564
:100AC0008CE087838085882319F081508087DECF72
:100AD00083E6FCCF1F920F920FB60F9211242F9333
:100AE0008F939F93EF93FF938BB19CB1E0914E0155
:100AF000EF5FEF7120914D012E1799F08871E0930F
:100B00004E01F0E0EF5AFE4F908380934C01FF912D
:100B1000EF919F918F912F910F900FBE0F901F908B
:100B2000189582E0F2CF1F920F920FB60F92112408
:100B30008F939F93EF93FF939091500180914F017A
:100B40009817A1F0E0914F01EF5FEF71E0934F0133
:100B5000F0E0EF58FE4F80818CB9FF91EF919F91AB
:100B60008F910F900FBE0F901F9018955598F5CF4D
:100B70001092500110924F0110924E0110924D01AF
:100B800097FF03C022E02BB99F7790BD89B988E910
:100B90008AB986E880BD089590914E0180914D01FB
:100BA000981799F0E0914D01EF5FEF71E0934D01DF
:100BB000F0E0EF5AFE4F208190914C01892F90E098
:100BC000982F8827820F911D089580E091E0089565
:100BD000909150019F5F9F7120914F012917E1F380
:100BE000E92FF0E0EF58FE4F808390935001559A23
:100BF0000895CF93DF93EC018991811103C0DF91B8
:100C0000CF910895E5DFF8CFCF93DF93EC01FE019C
:100C100084912196811103C0DF91CF910895D8DF8F
:100C2000F6CFFC01680F791F80E048E1E617F7076F
:100C300009F40895219198E0382F3227532F5170ED
:100C400030FD842786955111806826959150A1F733
:100C5000EDCF379A86B1866086B9089597B1907FB7
:100C600097B997B1892B87B9369A3699FECF24B1B7
:100C700035B181E02130324008F480E00895BA9A1D
:100C8000C29883E083BF8CE882BF89B7816089BF47
:100C900082E28FBD89E18EBD8FEF9FEF97BD86BD4C
:100CA00019BC18BC1092BB0184E68093B80108956A
:100CB0008CE882BF89B7816089BF089581E0809305
:100CC000BB01F6CF1092BB01F3CF1F920F920FB66C
:100CD0000F9211242F933F934F935F938F939F9382
:100CE0008CE882BF2091B8018FEF9FEF243639F056
:100CF0004FE852E0249FC001259F900D11242091C0
:100D0000BB012223F1F028B539B52817390780F443
:100D100088B599B5019699BD88BD9F918F915F91D6
:100D20004F913F912F910F900FBE0F901F901895EC
:100D300028B539B58217930740F488B599B501975E
:100D4000EACF88B599B5892BC1F789B78E7F89BF5E
:100D5000E4CFCF93DF93CDB7DEB76C970FB6F8949F
:100D6000DEBF0FBECDBFBE9AC698A19AA99AA09A1F
:100D7000A89A33DA13DD83E390E0FADE6ADF7FDFDF
:100D800088E19FE00FB6F894A89581BD0FBE91BD94
:100D900090E080E07FD7F82E81E090E07BD7182F9D
:100DA0008DE090E077D78093B80182E090E072D731
:100DB000C82E83E090E06ED7982E84E090E06AD74A
:100DC000782E85E090E066D7E82E86E090E062D746
:100DD000D82E87E090E05ED7882E88E090E05AD742
:100DE0008E8B1D8A1C8A89E090E054D78B8B1F8ADA
:100DF0008AE090E04FD7888F8BE090E04BD7898FC7
:100E00008CE090E047D7082FBE016F5F7F4F80E0F6
:100E10005CDD7894A8988FE19EE40197F1F700C01B
:100E20000000A89A9FEFE4E3FCE09150E040F0401E
:100E3000E1F700C00000A895CE010A96B5DC0130AC
:100E400009F47CC0023009F47DC0FB8E1A8FEFE7F5
:100E5000FE2E1C8E11E0612C512C412C2FEF421ADA
:100E6000520AA895C20168EE73E0A5D55C01892BF2
:100E700041F4CE010A9698DC013019F4CE010A96AD
:100E8000D1D94114510449F4AE014D5E5F4FBE010A
:100E90006F5F7F4FCE010A9654D9C20168E873E1B3
:100EA0008AD5892B01F5498D4136E9F48C85C81620
:100EB00068F08C1508F44CC09B85991638F099158C
:100EC00008F446C09A85971508F442C08E1550F074
:100ED000E816F0F18B858D1528F0D816C8F18A85B3
:100EE0008815B0F5EBDEC20168EB7BE064D5892B99
:100EF000E9F467DB8F3771F55C8D5523A1F1A99873
:100F00008FE19EE40197F1F700C00000A99AEFE19C
:100F1000FEE43197F1F700C000001092B2017FE7C4
:100F2000F72E1C8E023011F48F2DB7D9488D413623
:100F300039F55FE7F5121AC0C69822C0CE010A96AD
:100F400071D983CF8FE7A9D980CF612C132D86CF9C
:100F5000B9DEC9CF8E3731F3FFE7FF1202C0853506
:100F600009F3F82EDFCF21E02C8FDCCF8B8DF81624
:100F700014F4B69BC69A9A8D9F1514F4B699DCCFDB
:100F8000312EAB28E9F486E069DE382E1817C1F05F
:100F9000EFE7F8E321E0E150F0402040E1F700C046
:100FA000000086E05BDE382E181751F0882341F0F0
:100FB000013079F1023089F1602F8CE090E072D637
:100FC000EBDD6BE3262E9C012227232B09F0BECFFD
:100FD00011E0160DE62DF0E0EF56FE4F8083103243
:100FE00008F0B3CF412F4150550BFA01EF56FE4F99
:100FF0005F012081283011F02F37A1F4123008F45E
:10100000A4CF6A9488E0E4DD80E2E2DD88E0E0DD00
:101010009DCF8F2D42D902E0CFCFCE010A9602D9C3
:1010200001E0CACFD5DDF50180818A3009F0A6C282
:1010300080919101833709F006C180919201843734
:1010400009F09DC480919301813609F098C4809184
:101050009401843709F093C480919501853709F094
:101060008EC480919601833709F089C48AEA90E0A2
:10107000C0DD62E08889F3D78EE2AADD62E089896B
:10108000EED78EE2A5DD62E08A89E9D780E2A0DDB5
:10109000EF85E150E73070F4F0E0E05BF74F099442
:1010A00006C0A0C0A2C0A4C0A6C0A8C0AAC081EBB0
:1010B00090E09FDD8AEE90E09CDD62E08C85CFD7EA
:1010C0008AE386DD62E08B85CAD78AE381DD62E050
:1010D0008A85C5D783EF90E08CDD8E8979DD60E06D
:1010E0008B89BDD786EF90E084DDBE016F5F7F4FB7
:1010F00080E0EBDB62E08B81B2D78AE369DD62E0FE
:101100008A81ADD78AE364DD62E08981A8D789E26C
:101110005FDD8FEF90E06DDDFFE7FF1275C088E0C7
:1011200091E067DD8BE091E064DDB69B71C084E106
:1011300091E05FDD288D213609F46DC02D3609F46C
:101140006EC088E245DD60E08B8D89D78DE240DDA1
:1011500060E08A8D84D789E23BDD8BE291E049DD56
:101160008091BB01882309F45DC084E191E041DDF9
:10117000498D413609F459C04D3609F45AC088E208
:1011800027DD62E08C2D6BD78AE322DD62E0892DBA
:1011900066D78AE31DDD62E0872D61D78DE218DD19
:1011A00062E08E2D5CD78AE313DD62E08D2D57D788
:1011B0008AE30EDD62E0882D52D789E209DD80E204
:1011C00007DD60E08091B8014AD785E201DD85E363
:1011D00091E00FDD013081F1023091F18FE990E073
:1011E00008DDCBC188EB90E064CF80EC90E061CF6C
:1011F0008AEC90E05ECF83ED90E05BCF8AED90E0EB
:1012000058CF83EE90E055CF60E08F2D28D78ACF5E
:1012100087E191E08ECF8BE191E0EBDC92CF82E22F
:1012200091E0FBCF87E191E0A2CF8BE191E0E1DC9F
:10123000A6CF82E291E0FBCF81E491E0DADCCECF71
:1012400086E491E0FBCF843609F07DC08091920165
:10125000813609F046C380919301843709F08FC32A
:1012600080919401853609F08AC38091950180327E
:1012700009F085C38091960180538A3008F07FC3BE
:101280008091970180538A3008F079C3809198014A
:101290008E3209F074C38091990180538A3008F02E
:1012A0006EC380919A0180538A3008F068C38091A0
:1012B0009B018E3209F063C380919C0180538A3078
:1012C00008F05DC380919D0180538A3008F057C3B8
:1012D00080919E01803209F052C380919F0180531A
:1012E0008A3008F04CC362E085E00AD7888B8032F0
:1012F00010F05FE1588B62E088E002D7898B8D3077
:1013000010F08CE0898B62E08BE0FAD68A8B61E08A
:101310008EE0F6D68F87883010F087E08F87CE0179
:101320000A967FDA89E0FE013A96DE011196019075
:101330000D928A95E1F7BE016F5F7F4F80E0F0DA92
:101340008DE990E04DCF843709F0C3C080919201C0
:10135000893609F014C3809193018D3609F00FC3CB
:1013600080919401853609F00AC3809195018032FD
:1013700009F005C31091960180ED810F8A3008F0C5
:1013800093C08091970180538A3008F0F8C2809111
:1013900098018A3309F0F3C28091990180538A3011
:1013A00008F0EDC280919A0180538A3008F0E7C2BC
:1013B00080919B018A3309F0E2C280919C018053A5
:1013C0008A3008F0DCC280919D0180538A3008F099
:1013D000D6C280919E01803209F04DC080919F015C
:1013E0008B3219F08D3209F046C062E085E088D674
:1013F0009091A00190539A30F0F59091A1019053F3
:101400009A30C8F58C87883110F097E19C8762E0AC
:1014100088E076D68B878C3308F02B8662E08BE0F1
:101420006FD68A878C3308F02A861E861D86CE01E9
:101430000A96F7D989E0FE013A96DE0111960190ED
:101440000D928A95E1F7BE016F5F7F4F80E068DA09
:1014500010919F011E8B62E08FE052D68B8B8C33F4
:1014600008F02B8A612F88E090E01CD46B8989E01A
:1014700090E018D465CF62E085E042D68C87883151
:1014800010F0E7E1EC8762E088E03AD68B878C3396
:1014900008F02B8662E08BE033D68A878C3308F025
:1014A0002A861E861D863BCF1B3219F01D3209F09D
:1014B00066C28091970180538A3008F060C28091A3
:1014C000980180538A3008F05AC21E8B62E086E091
:1014D000C4CF883609F084C080919201853609F026
:1014E0004EC280919301813609F049C280919401E6
:1014F000843709F044C280919501803209F03FC2DF
:101500008091960190ED980F9A3038F5809197016F
:1015100080538A3008F033C2809198018D3209F0EF
:101520002EC28091990180538A3008F028C28091A0
:101530009A0180538A3008F022C262E085E0E0D54B
:101540008B8F62E088E0DCD58A8F6B8D90E080E045
:10155000A9D36A8D81E090E08CCF8F3629F58091F8
:1015600097018E3671F46DE68AE090E09BD3C69ABF
:101570008DE990E03EDBFDE6F88F10E00DDB612E9B
:1015800022CD863609F0FBC180919801863609F09C
:10159000F6C16DE68AE090E085D3C6988DE990E0CB
:1015A00028DB2DE6288FE9CF813609F0E8C180914C
:1015B0009701853709F0E3C180919801843709F0DC
:1015C000DEC1809199018F3609F0D9C161E68AE0C8
:1015D00090E068D38DE990E00CDB41E6488FCDCFF9
:1015E0008C3609F0CCC180919201893609F0C7C1CF
:1015F00080919301873609F0C2C1809194018836A9
:1016000009F0BDC180919501843709F0B8C180917E
:101610009601803209F0B3C18091970190ED980F47
:101620009A3008F0E5C09091980190539A3008F0F4
:101630001EC1909199019A3309F019C190919A01B4
:1016400090539A3008F013C190919B0190539A30B7
:1016500008F00DC190919C019A3309F008C1909156
:101660009D0190539A3008F002C190919E019053D1
:101670009A3008F0FCC090919F019D3209F0F7C0AC
:101680009091A00190539A3008F0F1C09091A1017F
:1016900090539A3008F0EBC09091A2019A3309F070
:1016A000E6C09091A30190539A3008F0E0C0909169
:1016B000A40190539A3008F0DAC09091A5019A33B2
:1016C00009F0D5C09091A60190539A3008F0CFC090
:1016D0009091A70190539A3008F0C9C01091A801C9
:1016E00062E086E00DD5C82E62E089E009D5982E2B
:1016F00062E08CE005D5782E62E08FE001D5E82E1F
:1017000062E082E1FDD4D82E62E085E1F9D45BE3AA
:101710005D1510F45BE3D52E97E19E1510F447E1BB
:10172000E42EEBE3E71510F43BE3732E882EFBE386
:10173000F81710F42BE3822E2BE3291510F49BE30A
:10174000992E47E14C1510F487E1C82E1032B9F5F7
:101750008091A90180538A3090F58091AA0180532D
:101760008A3068F58091AB0180538A3040F56C2D4A
:1017700082E090E097D2692D83E090E093D2672DCC
:1017800084E090E08FD26E2D85E090E08BD26D2DBD
:1017900086E090E087D2682D87E090E083D263E016
:1017A00088E1AED48093B801853618F054E65093A2
:1017B000B8017EDA6091B8018DE090E05ACE6C2DD0
:1017C00082E090E06FD2692D83E090E06BD2672DCC
:1017D00084E090E067D26E2D85E090E063D26D2DBD
:1017E00086E090E05FD2682D87E090E05BD2C5CEC6
:1017F0008F3611F5809198018E3659F46DE68BE0A5
:1018000090E050D25BDA8DE990E0F3D98DE6898FD4
:10181000B4CE863609F0B3C080919901863609F0BE
:10182000AEC06DE68BE090E03DD24CDA8DE990E001
:10183000E0D99DE6998FA1CE8136C9F480919801B7
:10184000853709F09CC080919901843709F097C0D1
:1018500080919A018F3609F092C061E68BE090E0AA
:1018600021D28DE990E0C5D9E1E6E98F86CE8C36AC
:1018700009F085C080919801853609F080C080917B
:101880009901863709F07BC080919A01853609F06D
:1018900076C080919B018C3609F071C080919C01CB
:1018A000803209F06CC080919D0180538A3008F02D
:1018B00066C080919E0180538A3008F060C080919C
:1018C0009F0180538A3008F05AC063E08CE018D43E
:1018D0008093B801853608F46CCFF4E6F093B80134
:1018E00068CF893609F04BC080919301833709F0A6
:1018F00046C080919401803709F041C080919501E4
:101900008C36E9F5809196018136C9F58091970171
:101910008937A9F580919801803289F580919901E4
:10192000843769F580919A018936A1F480919B01F1
:101930008D3629F580919C01853609F5CE010A96F0
:1019400071D461E08CE090E0ADD18DE990E051D9A7
:1019500001E013CE853699F480919B018D3679F4A0
:1019600080919C01803759F48F2D97D462E08CE0F0
:1019700090E098D18DE990E03CD902E0FECD82EA7A
:1019800090E02ECC991B79E004C0991F961708F0BF
:10199000961B881F7A95C9F78095089587FB082EB6
:1019A000062687FD819567FD6195ECDF0EF4919524
:1019B00007FC81950895AA1BBB1B51E107C0AA1F14
:1019C000BB1FA617B70710F0A61BB70B881F991FE0
:1019D0005A95A9F780959095BC01CD010895052EE3
:1019E00097FB16F400940FD057FD05D014D007FCD8
:1019F00002D046F408C050954095309521953F4F50
:101A00004F4F5F4F089590958095709561957F4FEA
:101A10008F4F9F4F0895A1E21A2EAA1BBB1BFD01F9
:101A20000DC0AA1FBB1FEE1FFF1FA217B307E407BD
:101A3000F50720F0A21BB30BE40BF50B661F771F15
:101A4000881F991F1A9469F76095709580959095F5
:101A50009B01AC01BD01CF01089570D088F09F5764
:101A600090F0B92F9927B751A0F0D1F0660F771FEA
:101A7000881F991F1AF0BA95C9F712C0B13081F0CA
:101A800077D0B1E0089574C0672F782F8827B85FAA
:101A900039F0B93FCCF3869577956795B395D9F72B
:101AA0003EF490958095709561957F4F8F4F9F4F35
:101AB0000895E89409C097FB3EF490958095709541
:101AC00061957F4F8F4F9F4F9923A9F0F92F96E98A
:101AD000BB279395F695879577956795B795F111FF
:101AE000F8CFFAF4BB0F11F460FF1BC06F5F7F4F9C
:101AF0008F4F9F4F16C0882311F096E911C07723AE
:101B000021F09EE8872F762F05C0662371F096E8B6
:101B1000862F70E060E02AF09A95660F771F881F85
:101B2000DAF7880F9695879597F9089557FD90589D
:101B3000440F551F59F05F3F71F04795880F97FB91
:101B4000991F61F09F3F79F087950895121613064B
:101B50001406551FF2CF4695F1DF08C0161617067A
:101B60001806991FF1CF86957105610508940895AF
:101B7000E894BB2766277727CB0197F908950BD008
:101B800078C069D028F06ED018F0952309F05AC0BB
:101B90005FC01124EECFCADFA0F3959FD1F3950F5C
:101BA00050E0551F629FF001729FBB27F00DB11DE1
:101BB000639FAA27F00DB11DAA1F649F6627B00D71
:101BC000A11D661F829F2227B00DA11D621F739F5A
:101BD000B00DA11D621F839FA00D611D221F749F68
:101BE0003327A00D611D231F849F600D211D822FAF
:101BF000762F6A2F11249F5750408AF0E1F08823F6
:101C00004AF0EE0FFF1FBB1F661F771F881F915002
:101C10005040A9F79E3F510570F014C0AACF5F3F16
:101C2000ECF3983EDCF3869577956795B795F79535
:101C3000E7959F5FC1F7FE2B880F911D96958795BD
:101C400097F9089597F99F6780E870E060E008953C
:101C50009FEF80EC089500240A94161617061806C4
:101C60000906089500240A941216130614060506A0
:101C70000895092E0394000C11F4882352F0BB0F31
:101C800040F4BF2B11F460FF04C06F5F7F4F8F4F94
:101C90009F4F0895E199FECF9FBB8EBBE09A992795
:101CA0008DB30895262FE199FECF9FBB8EBBE09A9E
:101CB00001970DB2021631F02DBB0FB6F894E29ADF
:0A1CC000E19A0FBE0895F894FFCFDB
:101CCA003F065B4F666D7D077F6F633932000432D2
:101CDA0000023200073200053800073200033800DC
:101CEA0000320006380001350005350004350003CE
:101CFA00001F1C1F1E1F1E1F1F1E1F1E1F4F4B0DC6
:101D0A000A004552524F520D0A00446174653A2046
:101D1A00004D6F6E64617900547565736461790072
:101D2A005765646E6573646179005468757273648B
:101D3A0061790046726964617900536174757264ED
:101D4A0061790053756E646179000D0A54696D6595
:101D5A003A20002028002073656320617420000D5A
:101D6A000A54656D703A20002D2D000D0A486561F0
:101D7A00743A20004F4E004F464600206175746F3A
:101D8A002000206D616E75616C20000D0A4C696738
:101D9A0068743A20000D0A446973706C61793A20BC
:0C1DAA000074696D650074656D700000C8
:00000001FF
