:1000000012C02CC02BC02AC0FBC128C027C026C0EC
:1000100025C001C723C005C62DC620C01FC01EC0F5
:100020001DC01CC01BC011241FBECFE5D4E0DEBF25
:10003000CDBF11E0A0E6B0E0E6E9FCE102C005902A
:100040000D92A034B107D9F721E0A0E4B1E001C0DE
:100050001D92A03BB207E1F723D71BCED1CFCF92A1
:10006000DF92EF92FF92CF93DF93C82FD62F87FFB7
:1000700002C08DE253D6CC2E0C2E000CDD08EE080B
:10008000FF08F7FE08C0F094E094D094C094C11C1F
:10009000D11CE11CF11C84E6C816D104E104F10472
:1000A00014F4D33050F0C701B60124E630E040E04C
:1000B00050E07BDC80E3820F31D68AE0C816D104A1
:1000C000E104F10414F4D23078F0C701B60124E65B
:1000D00030E040E050E069DC2AE030E040E050E011
:1000E00064DC80E3820F1AD68C2F6AE051DC80E357
:1000F000890FDF91CF91FF90EF90DF90CF900EC6E8
:10010000E82FF0E0EB57FE4F80E090E03AE09613E6
:1001100001C008952191839F200D1124822F8053C7
:100120009F5FF5CF882319F08DE990E008C682EA39
:1001300090E0FCCF90ED980F81E09A3008F080E0DD
:100140000895EF92FF920F931F93CF93DF93EC01EB
:100150008B017A01A1D4672B682B692BB9F1F701C8
:100160008081882399F19A81F8018281891760F052
:1001700098132CC099818181891730F0981326C07B
:1001800098818081891710F5F70183818B32B1F056
:100190008D32C1F0CE017CD38885F80180878F81B4
:1001A00087838E8186838D818583B80180E0DF918E
:1001B000CF911F910F91FF90EF90EAC3B701CE014D
:1001C00086D4E8CFB701CE01D3D4E4CFDF91CF916D
:1001D0001F910F91FF90EF90089588B3836888BBBB
:1001E00087B3836887BB85B3886385BB84B3886323
:1001F00084BB82B38C6F82BB81B38C6F81BB85B5AE
:10020000826085BD14BC89B7806489BF1092A70144
:100210001092A501E8EAF1E08FEF80838183828369
:10022000838308950F931F93CF93DF93CDB7DEB7EA
:1002300029970FB6F894DEBF0FBECDBF09831A838E
:100240002B833C834D835E836F83788789873AE075
:10025000812F632F91DBE92FF0E0E05AFF4F90816F
:100260009093A801E82FF0E0E05AFF4F808180933F
:10027000A901822F81DBE92FF0E0E05AFF4F908146
:100280009093AA012A30D0F41092AB01898180FFAB
:100290000AC08091A80180688093A8018091A9017B
:1002A00080688093A90129960FB6F894DEBF0FBE2F
:1002B000CDBFDF91CF911F910F910895E82FF0E00E
:1002C000E05AFF4F80818093AB01E0CF8F929F92E5
:1002D000AF92BF92CF92DF92EF92FF92CF93C82F4F
:1002E0008F3741F41092A80180E48093A901809394
:1002F000AA0121C0C82E880FDD08EE08FF0889E09A
:100300008C0F8331D8F41092A801F7FE08C0F09446
:10031000E094D094C094C11CD11CE11CF11CF601E6
:10032000E05AFF4F80818093A901C7FF02C080E49B
:10033000DECF1092AA011092AB0127C083E68C0F8A
:10034000873C68F51092A801C701B601F7FE07C007
:1003500090958095709561957F4F8F4F9F4F2AE0C4
:1003600030E040E050E021DB605A7F4FFB018081AC
:100370008093A901205A3F4FF90180818093AA01FF
:10038000C7FFD9CF80E48093AB01CF91FF90EF906E
:10039000DF90CF90BF90AF909F908F900895F7FE21
:1003A00008C0F094E094D094C094C11CD11CE11C0E
:1003B000F11C8AE0882E912CA12CB12CC701B6012A
:1003C000A5019401F2DA605A7F4FFB01808180938E
:1003D000A801C701B60124E630E040E050E0E5DACC
:1003E00069017A01A5019401E0DA205A3F4FF90131
:1003F00080818093A901F601E05AFF4F808177CF79
:100400001F920F920FB60F9211242F933F934F9389
:100410005F936F937F938F939F93AF93BF93EF936C
:10042000FF938091AD019091AE0101969093AE0142
:100430008093AD01E4E8F0E041E050E0A081B181BB
:100440002C918281BA0102C0660F771F8A95E2F76C
:10045000CB01809582238C93339670E0E039F707C7
:1004600069F7ECE6F0E081E090E0A081B1812C91A9
:100470003281AC0101C0440F3A95EAF7242B2C934A
:10048000339620E0E438F20781F7E091A701F0E02D
:10049000E855FE4F20814091A50130E002C035951E
:1004A00027954A95E2F720FF24C0E091A501A0918D
:1004B000A5012A2F30E0D901AA0FBB1FA20FB31F3D
:1004C000A459BF4F0D90BC91A02D4C912E2F30E020
:1004D000F901EE0FFF1FE20FF31FE459FF4F2281D6
:1004E00002C0880F991F2A95E2F780959095842382
:1004F0008C93E091A701A091A7018A2F90E0DC01E5
:10050000AA0FBB1FA80FB91FAC57BF4F0D90BC91CE
:10051000A02D2C918E2F90E0FC01EE0FFF1FE80F15
:10052000F91FEC57FF4F328181E090E001C0880F46
:100530003A95EAF7822B8C938091A5018F5F809387
:10054000A501883058F01092A5018091A7018F5F16
:100550008093A701843010F01092A701FF91EF91D2
:10056000BF91AF919F918F917F916F915F914F91CB
:100570003F912F910F900FBE0F901F901895AA9842
:10058000A29A78948FEB93E00197F1F700C00000F6
:10059000F894A29890EA9A95F1F783B37894E7E4F7
:1005A000F3E03197F1F700C00000F89484700895EB
:1005B000AA98A29A92E09A95F1F700C08111A298A8
:1005C000789480EA8A95F1F7F894A2980895AA9809
:1005D000A29A82E08A95F1F700C0A29895E29A95D6
:1005E000F1F7000083B3789498E79A95F1F7F894BF
:1005F00082FB882780F90895CF93DF93D82FC8E036
:100600008D2F8170D5DFD695C150D1F7DF91CF9175
:100610000895CF93DF93D8E0C0E0D9DF20E8829F30
:10062000C0011124C695C82BD150B9F78C2FDF918A
:10063000CF910895CF92DF92EF92FF920F931F9385
:10064000CF93DF93CDB7DEB729970FB6F894DEBF0F
:100650000FBECDBF8091A601882359F08091AD01D6
:100660009091AE018137914010F01092A6018EE773
:1006700006C0F89484DF882389F078948FE7299660
:100680000FB6F894DEBF0FBECDBFDF91CF911F91A3
:100690000F91FF90EF90DF90CF9008958CECACDF3E
:1006A0008EEBAADF8E010F5F1F4F6E018AE0C80E2E
:1006B000D11C7801AEDFF80181938F01EC15FD05A7
:1006C000C9F7789468E070E0C70151D39985891320
:1006D00039C06A8170E0762F66278981680F711DA5
:1006E000072E000C880B990BCCD920E030E040E8B5
:1006F0005DE32BDA6B017C01F89441DF8111BDCF02
:100700008CEC7ADF8EE478DF8FE176DF78948FEC03
:1007100097E00197F1F700C00000F89430DF8111F5
:10072000ACCF8CEC69DF84E467DF78941092AE0183
:100730001092AD0181E08093A601C701B60173D983
:10074000862F9DCFC12CD12C8EEFE82E82E4F82E7F
:10075000D3CF6AE011D9292F30E1839FC001112442
:10076000822B0895282F2F70982F92959770822FA3
:100770003AE0939F800D11240895C398C49ABD9ABE
:1007800020E030E090E0C39842E04A95F1F700C0E5
:10079000AC01022E02C0559547950A94E2F740FF3E
:1007A0000CC0C59AC39A42E04A95F1F700C02F5F8A
:1007B0003F4F2830310539F70895C598F3CFBD98DC
:1007C000C59A20E030E080E061E070E0C398AB01C2
:1007D000022E01C0440F0A94EAF7B59B10C0842B87
:1007E00092E09A95F1F700C0C39A92E09A95F1F7DA
:1007F00000C02F5F3F4F2830310541F708954095E5
:100800008423EECFC498C3980895BC9AC498BB9A29
:10081000C398BD980895CF93DF93EC0181E8ADDFD5
:10082000CEDFA0DF8883EEDF83E8A7DFC8DF9ADFB3
:100830008983E8DF85E8A1DFC2DF8A83E3DF8A817D
:10084000982F90729B83982F90789C8387FF1EC06F
:100850008F718A838A8186DF8A8387E88EDFAFDFA4
:1008600081DF8E83CFDF89E888DFA9DF7BDF8F839D
:10087000C9DF8BE882DFA3DF8D83C4DF8DE87DDFF6
:100880009EDF70DF8887DF91CF91BCCF8F73E1CF80
:100890001F93CF93DF93EC018EE86FDF80E06DDF75
:1008A000B1DF80E86ADF888154DF67DFABDF82E891
:1008B00064DF89814EDF61DFA5DF8A814ADF1B812A
:1008C0009C81192B182B84E858DF812F56DF9ADF83
:1008D00086E853DF8E813DDF50DF94DF88E84DDF0F
:1008E0008F8137DF4ADF8EDF8AE847DF8D8145DF82
:1008F00089DF8CE842DF88852CDF3FDFDF91CF91F5
:100900001F9180CFCF938F3148F4880F8F5335DFFD
:1009100056DFC82F77DF8C2FCF910895C0E0FBCF33
:10092000CF93C62F8F3138F4880F805426DF8C2F59
:1009300024DFCF9167CFCF9108951F93CF93DF939B
:10094000182FEB01DFDF888381E0810FDBDF8983F4
:1009500082E0810FD7DF8A8383E0810FD3DF8B832F
:1009600084E0810FCFDF8C8385E0810FCBDF8D8327
:1009700086E0810FC7DF8E8387E0810FC3DF8F831F
:1009800088E0810FBFDF8887DF91CF911F910895A5
:100990000F931F93CF93C82F8B01FB016081C0DFA2
:1009A000F801618181E08C0FBBDFF801628182E098
:1009B0008C0FB6DFF801638183E08C0FB1DFF801A3
:1009C000648184E08C0FACDFF801658185E08C0FD9
:1009D000A7DFF801668186E08C0FA2DFF80167814E
:1009E00087E08C0F9DDFF801608588E08C0FCF9148
:1009F0001F910F9195CFCF92DF92EF92FF920F93BD
:100A00001F93FC014085042F10E08DE691E0089FC4
:100A10006001099FD00C189FD00C11240D2C000CE4
:100A2000EE08FF08442381F0015011091595079540
:100A3000159507950F5F1F4F012E000C220B330BEE
:100A4000C00ED11EE21EF31E3781A1E9B0E021E005
:100A5000542F5370231770F02681C701B601620F1F
:100A6000711D811D911D1F910F91FF90EF90DF90DF
:100A7000CF9008951D91C10ED11CE11CF11C2230B4
:100A800049F4442311F0511105C08FEFC81AD80A58
:100A9000E80AF80A2F5FDECFCF92DF92EF92FF9243
:100AA000CF93DF93EB01A7DF6B017C01CE01A3DFC6
:100AB000A7019601261B370B480B590BCA01B90138
:100AC000DF91CF91FF90EF90DF90CF900895FC01E0
:100AD000DB0180819C91890F8C33A8F58083818113
:100AE00011969C911197890F8C3398F5818382819F
:100AF00012969C91890F883190F582838581883088
:100B000010F081E085838781A82FB0E0A057BF4F08
:100B10002C919085823021F4392F337009F42F5FA6
:100B20003681231720F421E026838F5F8783878116
:100B30008D3020F081E087839F5F908780858436A9
:100B400008F0108608958C53808381818F5F8183A4
:100B5000C6CF8C53818382818F5F8283C8CF8851B7
:100B6000828385818F5F858386818F5F8683C6CFF1
:100B7000FC01DB0120819C91822F891B2917D0F574
:100B8000845C808391E0818111964C911197682F4C
:100B900070E0292F30E0240F311D841B621773078A
:100BA00064F5845C891B818391E0828112964C916B
:100BB000682F70E0292F30E0240F311D841B62174D
:100BC0007307FCF4885E891B828386818230E0F49F
:100BD00087818230E0F0815087839781A92FB0E030
:100BE000A057BF4F8C91923081F49085937069F437
:100BF0008F5F0BC0808390E0C6CF891B818390E01C
:100C0000D4CF891B828308958150868308958CE018
:100C100087838085882319F081508087DECF83E623
:100C2000FCCF1F920F920FB60F9211242F938F9328
:100C30009F93EF93FF938BB19CB18871E091420138
:100C4000EF5FEF7120914101E21791F0E0934201D3
:100C5000F0E0EB5BFE4F908380934001FF91EF91BA
:100C60009F918F912F910F900FBE0F901F9018950D
:100C700082E0F2CF1F920F920FB60F9211248F9342
:100C80009F93EF93FF9390914401809143019817B4
:100C9000A1F0E0914301EF5FEF71E0934301F0E0D9
:100CA000EB59FE4F80818CB9FF91EF919F918F910D
:100CB0000F900FBE0F901F9018955598F5CF10927A
:100CC000440110924301109242011092410197FF9A
:100CD00003C022E02BB99F7790BD89B988E98AB912
:100CE00086E880BD08959091420180914101981756
:100CF00091F0E0914101EF5FEF71E0934101F0E08D
:100D0000EB5BFE4F20818091400190E0982F882777
:100D1000820F911D089580E091E008959091440123
:100D20009F5F9F71209143019217E1F3E92FF0E05B
:100D3000EB59FE4F808390934401559A0895CF93C9
:100D4000DF93EC018991811103C0DF91CF91089568
:100D5000E5DFF8CFCF93DF93EC01FE01849121967C
:100D6000811103C0DF91CF910895D8DFF6CFFC0148
:100D7000680F791F80E048E1E617F70709F4089546
:100D8000219198E0382F3227532F517030FD84275E
:100D900086955111806826959150A1F7EDCF379A2D
:100DA00086B1866086B9089597B1907F97B997B15B
:100DB000892B87B9369A3699FECF24B135B181E0B7
:100DC0002130324008F480E00895BA9AC29883E056
:100DD00083BF8CE882BF89B7816089BF82E28FBD03
:100DE00089E18EBD8FEF9FEF97BD86BD19BC18BC02
:100DF0001092AF0184E68093AC0108958CE882BF25
:100E000089B7816089BF089581E08093AF01F6CFF3
:100E10001092AF01F3CF1F920F920FB60F921124D1
:100E20002F933F934F935F938F939F938CE882BF51
:100E30002091AC01243601F14FE852E0249FC0011B
:100E4000259F900D11242091AF01222309F128B58F
:100E500039B52817390798F488B599B5019699BD21
:100E600088BD9F918F915F914F913F912F910F90EE
:100E70000FBE0F901F9018958FEF9FEFE4CF28B50E
:100E800039B58217930740F488B599B50197E7CF34
:100E900088B599B5892BC1F789B78E7F89BFE1CF16
:100EA000CF93DF93CDB7DEB7A3970FB6F894DEBF2D
:100EB0000FBECDBFBE9AC698A19AA99AA09AA89A29
:100EC0008CD9A3DC83E390E0FADE69DF7EDF9FE06C
:100ED00088E10FB6F894A89581BD0FBE91BD80E062
:100EE00090E0BED6482E81E090E0BAD6582E8DE034
:100EF00090E0B6D68093AC0182E090E0B1D6B82EF7
:100F000083E090E0ADD6C82E84E090E0A9D6782E9C
:100F100085E090E0A5D6982E86E090E0A1D6A82E98
:100F200087E090E09DD6682E88E090E099D68F8F7C
:100F30001E8E1D8E89E090E093D68C8F18A28AE0D9
:100F400090E08ED68AA38BE090E08AD68BA38CE0CB
:100F500090E086D689A3BE01665F7F4F80E0EDDC1E
:100F60007894A8988FE19EE40197F1F700C0000003
:100F7000A89A9FEFE4E3FCE09150E040F040E1F7F5
:100F800000C00000A8951092A8011092A90110922B
:100F9000AA011092AB012FEF80E792E02150804030
:100FA0009040E1F700C000001FE7D12C01E0312C98
:100FB0007BE3872EA895CE0143962DDCAE01445EDF
:100FC0005F4FBE01665F7F4FCE014396BAD8EBA15B
:100FD000E13601F58D89B81668F08B1508F47BC0F1
:100FE0009C89C91638F09C1508F475C09B89971523
:100FF00008F471C0891568F0981608F46CC08C89E3
:101000008A1538F0A81608F466C08B89861508F092
:1010100062C0FADE0FDBE82EFFE78F135EC0DD2033
:1010200009F467C0A9988FE19EE40197F1F700C029
:101030000000A99AEFE1FEE43197F1F700C000004B
:101040001092A601FAA1D12CF13609F44EC086E027
:10105000ABDE282E081771F0882361F099A191303A
:1010600009F458C0923011F4E1E0E9A369A18CE0E1
:1010700090E0FED529A1213009F44FC0223009F4B7
:1010800057C031DE9C012227232B11F5FF24F39456
:10109000F30CE32DF0E0EB57FE4F8083EFE1EF150B
:1010A000B0F00F2D10E00C571E4FF80120812830B2
:1010B00019F02F3709F03FC0F1E0FF1540F43A94E2
:1010C00088E02CDE80E22ADE88E028DE01C0312CB8
:1010D0001E2D022D6FCF9CDE9DCF2EE78213B2C254
:1010E0008AA18136A9F41F3739F4C6986FE7E62E36
:1010F000AECFDD24D394F4CFE12EE41414F4B69BE8
:10110000C69A5E140CF0A3CFB69BA1CFC6989FCF12
:10111000E12E9DCFF2E0F9A3A9CF0B891C892D897F
:101120003E894F89588D698D7A8D8B8D7BD8A9CF5B
:101130008E2DCCD8A6CFF2DDF80180818A3009F05F
:1011400090C180918501833709F007C180918601A4
:10115000843709F01BC180918701813609F016C1DF
:1011600080918801843709F011C180918901853708
:1011700009F00CC180918A01833709F007C162E050
:10118000898D6DD78EE2CADD62E08A8D68D78AEAE2
:1011900090E0D5DD62E08B8D62D780E2BFDDE88D27
:1011A0008E2F90E0FC013197E730F10568F4E652AC
:1011B000F74F099406C0A0C0A2C0A4C0A6C0A8C092
:1011C000AAC08EEA90E0BBDD80E2A8DD62E08D89F6
:1011D00046D78AE3A3DD62E08C8941D78AE39EDDAE
:1011E00062E08B893CD787EE90E0A9DD8F8D96DD9C
:1011F00060E08C8D34D78AEE90E0A1DDBE016F5F98
:101200007F4F80E09ADB62E08B8129D78AE386DD1D
:1012100062E08A8124D78AE381DD62E089811FD779
:1012200089E27CDD83EF90E08ADDFFE7EF1276C094
:101230008CEF90E084DD8FEF90E081DDB69B72C093
:1012400088E091E07CDD2AA1213609F46EC02D36BC
:1012500009F46FC088E262DD60E0842D00D78DE282
:101260005DDD60E0852DFBD689E258DD8FE191E000
:1012700066DD8091AF01882309F45EC088E091E0CB
:101280005EDD8BA1813609F45AC08D3609F45BC04E
:1012900088E244DD62E08B2DE2D68AE33FDD62E046
:1012A0008C2DDDD68AE33ADD62E0872DD8D68DE23B
:1012B00035DD62E0892DD3D68AE330DD62E08A2D08
:1012C000CED68AE32BDD62E0862DC9D689E226DD03
:1012D00080E224DD60E08091AC01C1D685E21EDDB4
:1012E00089E291E02CDD99A1913081F1923091F168
:1012F0008FE990E024DDB4C085EB90E064CF8DEB06
:1013000090E061CF87EC90E05ECF80ED90E05BCF26
:1013100087ED90E058CF80EE90E055CF60E08E2DC5
:101320009ED689CF8BE091E08DCF8FE091E007DDF5
:1013300091CF86E191E0FBCF8BE091E0A1CF8FE0F0
:1013400091E0FDDCA5CF86E191E0FBCF85E391E064
:10135000F6DCCECF8AE391E0FBCF8436D1F48091E6
:101360008601813609F019C180918701843771F4B3
:1013700080918801853651F480918901803231F461
:1013800080918A0180538A3008F461C182EA90E03A
:10139000B1CF8437B1F5809186018936B9F7809154
:1013A00087018D3699F780918801853679F780918C
:1013B0008901803259F710918A0180ED810F8A30BE
:1013C00008F49FC11B3211F01D3201F780918B018F
:1013D00080538A30D8F680918C0180538A30B0F6E1
:1013E0001F8F62E086E08CD68C8F8C3308F08C8E59
:1013F000612F88E090E03CD46C8D89E090E038D497
:101400007DC1883609F043C080918601853609F098
:10141000BDCF80918701813609F0B8CF80918801D6
:10142000843709F0B3CF80918901803209F0AECFC3
:1014300090918A0180ED890F8A3008F4A3C19F360C
:1014400009F0AEC180918B018E3671F46DE68AE0B1
:1014500090E00ED4C69A8DE990E071DC8DE68AA307
:10146000F12C41DC3F2C0ECE863609F08FCF8091D7
:101470008C01863609F08ACF6DE68AE090E0F8D3D9
:10148000C6988DE990E05BDC9DE69AA3E9CF8C36A7
:1014900009F07CCF80918601893609F077CF809161
:1014A0008701873609F072CF80918801883609F06C
:1014B0006DCF80918901843709F068CF80918A01CE
:1014C000803209F063CF80918B0190ED980F9A30B4
:1014D00008F497C18F3609F0A2C180918C018E3635
:1014E00059F46DE68BE090E0C3D38EDC8DE990E09B
:1014F00026DCFDE6FBA3B4CF863609F047CF80910A
:101500008D01863609F042CF6DE68BE090E0B0D3D6
:101510007FDC8DE990E013DC2DE62BA3A1CF8C3688
:1015200009F034CF80918C01853609F02FCF80915E
:101530008D01863709F02ACF80918E01853609F01A
:1015400025CF80918F018C3609F020CF80919001BA
:10155000803209F01BCF8091910180538A3008F0CE
:1015600015CF8091920180538A3008F00FCF80917F
:10157000930180538A3008F009CF63E08CE0C0D536
:101580008093AC01853618F094E69093AC0136DC7C
:101590006091AC018DE090E032CF893609F0F6CE53
:1015A00080918701833709F0F1CE809188018037DF
:1015B00009F0ECCE809189018C3609F0E7CE80915C
:1015C0008A01813609F0E2CE80918B01893709F0DA
:1015D000DDCE80918C01803209F0D8CE80918D01D2
:1015E000843709F0D3CE80918E018936A1F48091A1
:1015F0008F018D3609F0CACE80919001853609F0B1
:10160000C5CE61E08CE090E033D38DE990E097DBCC
:10161000E1E0E9A325CF853609F0B8CE80918F01AE
:101620008D3609F0B3CE80919001803709F0AECEAF
:1016300062E08CE090E01CD38DE990E080DBF2E08A
:10164000F9A30ECF2AA1213609F001CD56CD809104
:101650008B0180538A3008F099CE80918C018E32B4
:1016600009F094CE80918D0180538A3008F08ECE9F
:1016700080918E0180538A3008F088CE80918F014E
:101680008E3209F083CE8091900180538A3008F029
:101690007DCE8091910180538A3008F077CE809181
:1016A0009201803209F072CE8091930180538A308A
:1016B00008F06CCE62E085E023D5898F803210F08F
:1016C000EFE1E98F62E088E01BD58A8F8D3010F062
:1016D0008CE08A8F62E08BE013D58B8F61E08EE027
:1016E0000FD5888F883010F0F7E0F88FCE01439641
:1016F000CFD8BE016D5E7F4F80E04AD98DE990E082
:10170000F9CD80918B0180538A3008F03FCE8091D3
:101710008C018A3309F03ACE80918D0180538A3052
:1017200008F034CE80918E0180538A3008F02ECE9E
:1017300080918F018A3309F029CE809190018053E6
:101740008A3008F023CE8091910180538A3008F0CE
:101750001DCE62E085E0D4D48D8B883110F027E176
:101760002D8B62E088E0CCD48C8B8C3308F08C8A93
:1017700062E08BE0C5D48B8B8C3308F08B8A1F8A98
:101780001E8AB4CF80918B0180538A3048F48091B7
:101790008C018D3229F480918D0180538A30E0F0E4
:1017A000913609F0F3CD80918B01853709F0EECDAC
:1017B00080918C01843709F0E9CD80918D018F36BD
:1017C00009F0E4CD61E68AE090E052D28DE990E044
:1017D000B6DAE1E6EAA344CE80918E0180538A30E6
:1017E000F8F662E085E08CD4482E62E088E088D488
:1017F000582E642D80E090E03BD2652D81E090E092
:10180000FECD90918C0190539A3048F490918D01C7
:101810009A3329F490918E0190539A30E0F08136FA
:1018200009F07DCE80918C01853709F0AFCD809194
:101830008D01843709F0AACD80918E018F3609F091
:10184000A5CD61E68BE090E013D28DE990E077DAE8
:1018500081E68BA305CE90918F0190539A30F8F6D4
:10186000909190019A33D9F69091910190539A30CA
:10187000B0F69091920190539A3088F6909193012E
:101880009D3269F69091940190539A3040F6909170
:10189000950190539A3018F6909196019A3309F079
:1018A000BECF9091970190539A3008F0B8CF9091A5
:1018B000980190539A3008F0B2CF909199019A33E1
:1018C00009F0ADCF90919A0190539A3008F0A7CFCC
:1018D00090919B0190539A3008F0A1CF62E086E08E
:1018E0000FD4B82E87E18B1510F457E1B52E62E0C6
:1018F00089E006D4C82E9BE3981710F44BE3C42E5E
:1019000062E08CE0FDD3782EEBE3E81710F43BE3C4
:10191000732E62E08FE0F4D3982EF7E1F81710F4FD
:1019200027E1922E62E082E1EBD3A82E2BE3281769
:1019300010F49BE3A92E62E085E1E2D3682E8BE3ED
:10194000861510F48BE3682E6B2D82E090E090D129
:101950006C2D83E090E08CD1672D84E090E088D1FD
:10196000692D85E090E084D16A2D86E090E080D1F9
:10197000662D87E090E043CD991B79E004C0991F64
:10198000961708F0961B881F7A95C9F780950895D9
:1019900087FB082E062687FD819567FD6195ECDFA4
:1019A0000EF4919507FC81950895052E97FB16F48A
:1019B00000940FD057FD05D014D007FC02D046F498
:1019C00008C050954095309521953F4F4F4F5F4F40
:1019D000089590958095709561957F4F8F4F9F4F9B
:1019E0000895A1E21A2EAA1BBB1BFD010DC0AA1F60
:1019F000BB1FEE1FFF1FA217B307E407F50720F078
:101A0000A21BB30BE40BF50B661F771F881F991FF2
:101A10001A9469F760957095809590959B01AC013B
:101A2000BD01CF01089570D088F09F5790F0B92F75
:101A30009927B751A0F0D1F0660F771F881F991F23
:101A40001AF0BA95C9F712C0B13081F077D0B1E081
:101A5000089574C0672F782F8827B85F39F0B93F91
:101A6000CCF3869577956795B395D9F73EF4909525
:101A70008095709561957F4F8F4F9F4F0895E894A3
:101A800009C097FB3EF490958095709561957F4FC6
:101A90008F4F9F4F9923A9F0F92F96E9BB27939574
:101AA000F695879577956795B795F111F8CFFAF484
:101AB000BB0F11F460FF1BC06F5F7F4F8F4F9F4FB5
:101AC00016C0882311F096E911C0772321F09EE813
:101AD000872F762F05C0662371F096E8862F70E079
:101AE00060E02AF09A95660F771F881FDAF7880F53
:101AF0009695879597F9089557FD9058440F551F6F
:101B000059F05F3F71F04795880F97FB991F61F07F
:101B10009F3F79F087950895121613061406551FF6
:101B2000F2CF4695F1DF08C0161617061806991F62
:101B3000F1CF86957105610508940895E894BB2757
:101B400066277727CB0197F908950BD078C069D025
:101B500028F06ED018F0952309F05AC05FC0112408
:101B6000EECFCADFA0F3959FD1F3950F50E0551F3C
:101B7000629FF001729FBB27F00DB11D639FAA27E2
:101B8000F00DB11DAA1F649F6627B00DA11D661F31
:101B9000829F2227B00DA11D621F739FB00DA11D52
:101BA000621F839FA00D611D221F749F3327A00D0C
:101BB000611D231F849F600D211D822F762F6A2FA8
:101BC00011249F5750408AF0E1F088234AF0EE0F2D
:101BD000FF1FBB1F661F771F881F91505040A9F73A
:101BE0009E3F510570F014C0AACF5F3FECF3983EC2
:101BF000DCF3869577956795B795F795E7959F5FA1
:101C0000C1F7FE2B880F911D9695879597F908953A
:101C100097F99F6780E870E060E008959FEF80EC9F
:101C2000089500240A941616170618060906089542
:101C300000240A9412161306140605060895092EA8
:101C40000394000C11F4882352F0BB0F40F4BF2B17
:101C500011F460FF04C06F5F7F4F8F4F9F4F089557
:101C6000E199FECF9FBB8EBBE09A99278DB3089573
:101C7000262FE199FECF9FBB8EBBE09A01970DB254
:101C8000021631F02DBB0FB6F894E29AE19A0FBE1E
:061C90000895F894FFCF57
:101C96003F065B4F666D7D077F6F63393200043206
:101CA6000002320007320005380007320003380010
:101CB6000032000638000135000535000435000302
:101CC600001F1C1F1E1F1E1F1F1E1F1E1F4F4B0DFA
:101CD6000A004552524F520D0A002E3230004D6F07
:101CE6006E64617900547565736461790057656443
:101CF6006E65736461790054687572736461790006
:101D06004672696461790053617475726461790021
:101D160053756E6461790020280020736563206125
:101D26007420000D0A54656D703A20002D2D000DAB
:101D36000A486561743A20004F4E004F464600201F
:101D46006175746F2000206D616E75616C20000DE9
:101D56000A4C696768743A20000D0A446973706C0E
:101D660061793A200074696D650074656D700000D4
:00000001FF
