:1000000012C02CC02BC02AC0C2C128C027C026C025
:1000100025C08DC623C05EC586C520C01FC01EC0BA
:100020001DC01CC01BC011241FBECFE5D4E0DEBF25
:10003000CDBF11E0A0E6B0E0E4E0FEE102C0059033
:100040000D92AE36B107D9F722E0AEE6B1E001C0BD
:100050001D92A034B207E1F7AFD6D2CED1CFCF9266
:10006000DF92EF92FF92CF93DF93C82FD62F87FFB7
:1000700002C08DE2ADD5CC2E0C2E000CDD08EE08B2
:10008000FF08F7FE08C0F094E094D094C094C11C1F
:10009000D11CE11CF11C84E6C816D104E104F10472
:1000A00014F4D33050F0C701B60124E630E040E04C
:1000B00050E032DD80E3820F8BD58AE0C816D10490
:1000C000E104F10414F4D23078F0C701B60124E65B
:1000D00030E040E050E020DD2AE030E040E050E059
:1000E0001BDD80E3820F74D58C2F6AE0F4DC80E3A3
:1000F000890FDF91CF91FF90EF90DF90CF9068C58F
:10010000E82FF0E0ED50FE4F80E090E03AE09613EB
:1001100001C008952191839F200D1124822F8053C7
:100120009F5FF5CF882319F08CEB90E062C581ECDE
:1001300090E0FCCF90ED980F81E09A3008F080E0DD
:1001400008950F931F93CF93DF93EC018B01BA01B6
:100150009885F8018085891760F0981339C09F81D0
:100160008781891730F0981333C09E818681891763
:1001700078F59A81F8018281891760F0981328C078
:1001800099818181891730F0981322C098818081EC
:100190008917F0F4FB0183818B32A1F08D32A9F035
:1001A000CE013FD38885F80180878F8187838E8138
:1001B00086838D818583B80180E0DF91CF911F9187
:1001C0000F91AEC3CE01DFD3EBCFCE012ED4E8CF5B
:1001D000DF91CF911F910F91089588B3836888BBF9
:1001E00087B3836887BB85B3886385BB84B3886323
:1001F00084BB82B38C6F82BB81B38C6F81BB85B5AE
:10020000826085BD14BC89B7806489BF10923502B5
:1002100010923302E6E3F2E08FEF808381838283E2
:1002200083830895DC0111968C9111973AE0632F36
:1002300046DCE92FF0E0E05AFF4F908190933602C0
:10024000E82FF0E0E05AFF4F80818093370212964A
:100250002C911297822F33DCE92FF0E0E05AFF4F08
:100260009081909338022A3080F4109239028C9158
:1002700080FF0AC0809136028068809336028091A8
:1002800037028068809337020895E82FF0E0E05A43
:10029000FF4F808180933902EACF8F929F92AF9275
:1002A000BF92CF92DF92EF92FF92CF93C82F8F37FA
:1002B00041F41092360280E4809337028093380232
:1002C00020C0C82E880FDD08EE08FF08F7FE08C022
:1002D000F094E094D094C094C11CD11CE11CF11C9A
:1002E00089E08C0F833180F410923602F601E05AD7
:1002F000FF4F80818093370280E4C7FDDFCF1092EB
:1003000038021092390221C08AE0882E912CA12C4B
:10031000B12CC701B601A5019401FEDB605A7F4FE5
:10032000FB01808193E69C0F973CC8F41092360243
:1003300080933702205A3F4FF90180818093380221
:10034000C7FFDFCF80E480933902CF91FF90EF9019
:10035000DF90CF90BF90AF909F908F900895809343
:100360003602C701B60124E630E040E050E0D4DBBD
:100370006901A5019401D0DB205A3F4FF90180812A
:1003800080933702F601E05AFF4F808197CF1F928A
:100390000F920FB60F9211242F933F934F935F93B9
:1003A0006F937F938F939F93AF93BF93EF93FF933D
:1003B00080913D0290913E02019690933E0280937F
:1003C0003D02E4E8F0E041E050E0A081B1812C91F1
:1003D0008281BA0102C0660F771F8A95E2F7CB01CE
:1003E000809582238C93339670E0E039F70769F7A4
:1003F000ECE6F0E081E090E0A081B1812C913281C7
:10040000AC0101C0440F3A95EAF7242B2C933396A4
:1004100020E0E438F20781F7E0913502F0E0EA5C91
:10042000FD4F20814091330230E002C03595279581
:100430004A95E2F720FF24C0E0913302A0913302F5
:100440002A2F30E0D901AA0FBB1FA20FB31FA45956
:10045000BF4F0D90BC91A02D4C912E2F30E0F90193
:10046000EE0FFF1FE20FF31FE459FF4F228102C07E
:10047000880F991F2A95E2F78095909584238C9395
:10048000E0913502A09135028A2F90E0DC01AA0F9D
:10049000BB1FA80FB91FAC57BF4F0D90BC91A02D2B
:1004A0002C918E2F90E0FC01EE0FFF1FE80FF91F3B
:1004B000EC57FF4F328181E090E001C0880F3A9500
:1004C000EAF7822B8C93809133028F5F8093330203
:1004D000883058F010923302809135028F5F8093FC
:1004E0003502843010F010923502FF91EF91BF91E8
:1004F000AF919F918F917F916F915F914F913F91BC
:100500002F910F900FBE0F901F901895AA98A29A46
:1005100078948FEB93E00197F1F700C00000F89416
:10052000A29890EA9A95F1F783B37894E7E4F3E020
:100530003197F1F700C00000F89484700895AA98EC
:10054000A29A92E09A95F1F700C08111A29878944E
:1005500080EA8A95F1F7F894A2980895AA98A29A49
:1005600082E08A95F1F700C0A29895E29A95F1F79A
:10057000000083B3789498E79A95F1F7F89482FB9A
:10058000882780F90895CF93DF93D82FC8E08D2F67
:100590008170D5DFD695C150D1F7DF91CF91089505
:1005A000CF93DF93D8E0C0E0D9DF20E8829FC0017D
:1005B0001124C695C82BD150B9F78C2FDF91CF915C
:1005C0000895CF92DF92EF92FF920F931F93CF93F4
:1005D000DF93CDB7DEB729970FB6F894DEBF0FBE15
:1005E000CDBF80913402882359F080913D029091D3
:1005F0003E028137914010F0109234028EE706C01F
:10060000F89484DF882389F078948FE729960FB6D1
:10061000F894DEBF0FBECDBFDF91CF911F910F9138
:10062000FF90EF90DF90CF9008958CECACDF8EEBD5
:10063000AADF8E010F5F1F4F6E018AE0C80ED11C2A
:100640007801AEDFF80181938F01EC15FD05C9F744
:10065000789468E070E0C701E4D2998589133BC0C3
:100660006A81862F90E0982F88276981680F792FFB
:10067000711D072E000C880B990BBADA20E030E0D0
:1006800040E85DE319DB6B017C01F8943FDF8111E9
:10069000BBCF8CEC78DF8EE476DF8FE174DF78946B
:1006A0008FEC97E00197F1F700C00000F8942EDF7F
:1006B0008111AACF8CEC67DF84E465DF7894109217
:1006C0003E0210923D0281E080933402C701B601E0
:1006D00061DA862F9BCFC12CD12C8EEFE82E82E4DD
:1006E000F82ED3CF6AE0EBD9292F30E1839FC001E8
:1006F0001124822B0895282F2F70982F9295977090
:10070000822F3AE0939F800D11240895C398C49AD4
:10071000BD9A30E020E090E0C39842E04A95F1F7BE
:1007200000C0AC01022E02C0559547950A94E2F72D
:1007300040FF0CC0C59AC39A42E04A95F1F700C049
:100740002F5F3F4F2830310539F70895C598F3CF13
:10075000BD98C59A30E020E080E061E070E0C39889
:10076000AB01022E01C0440F0A94EAF7B59B10C0FA
:10077000842B92E09A95F1F700C0C39A92E09A9583
:10078000F1F700C02F5F3F4F2830310541F7089542
:1007900040958423EECFC498C3980895BC9AC4981A
:1007A000BB9AC398BD980895CF93DF93EC0181E87D
:1007B000ADDFCEDFA0DF8883EEDF83E8A7DFC8DF11
:1007C0009ADF8983E8DF85E8A1DFC2DF8A83E3DF80
:1007D0008A81982F90729B83982F90789C8387FFB3
:1007E0001EC08F718A838A8186DF8A8387E88EDFC5
:1007F000AFDF81DF8E83CFDF89E888DFA9DF7BDF92
:100800008F83C9DF8BE882DFA3DF8D83C4DF8DE8B0
:100810007DDF9EDF70DF8887DF91CF91BCCF8F7344
:10082000E1CF1F93CF93DF93EC018EE86FDF80E081
:100830006DDFB1DF80E86ADF888154DF67DFABDF1F
:1008400082E864DF89814EDF61DFA5DF8A814ADFCC
:100850001B819C81192B182B84E858DF812F56DFD0
:100860009ADF86E853DF8E813DDF50DF94DF88E832
:100870004DDF8F8137DF4ADF8EDF8AE847DF8D81EA
:1008800045DF89DF8CE842DF88852CDF3FDFDF91A1
:10089000CF911F9180CFCF93C0E08F3130F4880F7C
:1008A0008F5334DF55DFC82F76DF8C2FCF9108951B
:1008B000CF93C62F8F3138F4805A880F27DF8C2FC3
:1008C00025DFCF9168CFCF9108951F93CF93DF930A
:1008D000182FEB01E0DF888381E0810FDCDF898363
:1008E00082E0810FD8DF8A8383E0810FD4DF8B839E
:1008F00084E0810FD0DF8C8385E0810FCCDF8D8396
:1009000086E0810FC8DF8E8387E0810FC4DF8F838D
:1009100088E0810FC0DF8887DF91CF911F91089514
:100920000F931F93CF93C82F8B01FB016081C0DF12
:10093000F801618181E08C0FBBDFF801628182E008
:100940008C0FB6DFF801638183E08C0FB1DFF80113
:10095000648184E08C0FACDFF801658185E08C0F49
:10096000A7DFF801668186E08C0FA2DFF8016781BE
:1009700087E08C0F9DDFF801608588E08C0FCF91B8
:100980001F910F9195CFFC01DB0180819C91890F14
:1009900080838C3330F091818C53808381E0890F88
:1009A0008183818111969C911197890F81838C336A
:1009B00030F092818C53818381E0890F8283828120
:1009C00012969C91890F8283883150F025819681FF
:1009D0008851828381E0820F858381E0890F86833D
:1009E0008581883010F081E085838781A82FB0E071
:1009F000A057BF4F2C919085823021F4392F33704E
:100A000009F42F5F3681231720F421E026838F5FBE
:100A1000878387818D3020F081E087839F5F908777
:100A20008085843608F010860895FC01DB01208162
:100A30009C91822F891B2917B0F5845C808391E0FB
:100A4000418111962C911197842F821B290F3327F6
:100A5000331F4217130654F5845C891B818391E090
:100A6000428112962C91842F821B290F3327331F2A
:100A700042171306FCF4885E891B828386818230CC
:100A8000E0F487818230E0F0815087839781A92F3D
:100A9000B0E0A057BF4F8C91923081F49085937055
:100AA00069F48F5F0BC0808390E0CACF891B81837C
:100AB00090E0D6CF891B8283089581508683089564
:100AC0008CE087838085882319F081508087DECF72
:100AD00083E6FCCF1F920F920FB60F9211242F9333
:100AE0008F939F93EF93FF938BB19CB1E091700133
:100AF000EF5FEF7320916F012E1799F08871E093EB
:100B00007001F0E0ED58FE4F908380936E01FF91ED
:100B1000EF919F918F912F910F900FBE0F901F908B
:100B2000189582E0F2CF1F920F920FB60F92112408
:100B30008F939F93EF93FF93909172018091710136
:100B40009817A1F0E0917101EF5FEF73E0937101ED
:100B5000F0E0ED54FE4F80818CB9FF91EF919F91B1
:100B60008F910F900FBE0F901F9018955598F5CF4D
:100B700010927201109271011092700110926F0127
:100B800097FF03C022E02BB99F7790BD89B988E910
:100B90008AB986E880BD08959091700180916F01B7
:100BA000981799F0E0916F01EF5FEF73E0936F0199
:100BB000F0E0ED58FE4F208190916E01892F90E07A
:100BC000982F8827820F911D089580E091E0089565
:100BD000909172019F5F9F73209171012917E1F33A
:100BE000E92FF0E0ED54FE4F808390937201559A07
:100BF0000895CF93DF93EC018991811103C0DF91B8
:100C0000CF910895E5DFF8CFCF93DF93EC01FE019C
:100C100084912196811103C0DF91CF910895D8DF8F
:100C2000F6CFFC01680F791F80E048E1E617F7076F
:100C300009F40895219198E0382F3227532F5170ED
:100C400030FD842786955111806826959150A1F733
:100C5000EDCF379A86B1866086B9089597B1907FB7
:100C600097B997B1892B87B9369A3699FECF24B1B7
:100C700035B181E02130324008F480E00895BA9A1D
:100C8000C29885E083BF89E282BF89B7816089BF4E
:100C900082E28FBD89E18EBD8FEF9FEF97BD86BD4C
:100CA00019BC18BC81E080933C02E0913C02F0E06A
:100CB000E356FF4F808180933A0210923F0284E610
:100CC00080933B02089580913C02882379F0E09163
:100CD0003C02F0E0E356FF4F808180933A0280911E
:100CE0003A0282BF89B7816089BF089589B78E7F34
:100CF00089BF80913F02882381F020913B028FEFD2
:100D00009FEF243639F04FE852E0249FC001259F21
:100D1000900D112499BD88BD089590E080E0FACF30
:100D200081E080933F02CFCF10923F02CCCF1F9241
:100D30000F920FB60F9211242F933F934F935F930F
:100D40008F939F9380913A0282BF20913B028FEF55
:100D50009FEF243639F04FE852E0249FC001259FD1
:100D6000900D112420913F022223F1F028B539B5CE
:100D70002817390780F488B599B5019699BD88BDC3
:100D80009F918F915F914F913F912F910F900FBE47
:100D90000F901F90189528B539B58217930740F426
:100DA00088B599B50197EACF88B599B5892BC1F770
:100DB00089B78E7F89BFE4CFCF93DF93CDB7DEB7FE
:100DC0006D970FB6F894DEBF0FBECDBFBE9AC69822
:100DD000A19AA99AA09AA89A00DAE0DC83E390E0AD
:100DE000C7DE37DF4CDF88E19FE00FB6F894A895A7
:100DF00081BD0FBE91BD90E080E0E9D7682E81E013
:100E000090E0E5D7082F8DE090E0E1D780933B029A
:100E10008EE090E0DCD780933C0282E090E0D7D770
:100E2000D82E83E090E0D3D7C82E84E090E0CFD7CF
:100E3000882E85E090E0CBD7F82E86E090E0C7D7EB
:100E4000E82E87E090E0C3D7982E88E090E0BFD7E7
:100E50008E8B1D8A1C8A89E090E0B9D78B8B1F8A04
:100E60008AE090E0B4D7888F8BE090E0B0D7898F8C
:100E70008CE090E0ACD7182FBE016F5F7F4F80E011
:100E800024DD7894A8988FE19EE40197F1F700C0E3
:100E90000000A89A9FEFE4E3FCE09150E040F040AE
:100EA000E1F700C00000A895CE010A967DDC113064
:100EB00009F466C0123009F467C00B8F0FE71A8E71
:100EC00033243394712C512C412C2FEF421A520AA7
:100ED000A895C20168EE73E00BD65C01892B41F442
:100EE000CE010A9661DC113019F4CE010A969AD926
:100EF0004114510449F4AE014D5E5F4FBE016F5F76
:100F00007F4FCE010A961DD9C20168E873E1F0D582
:100F1000892BE9F4498D4136D1F48C85D81650F0EF
:100F20008D15C0F19B85C91628F09C1598F19A85FE
:100F3000981580F18F1550F0F81660F18B858E159D
:100F400028F0E81638F18A85891520F5E9DEC20116
:100F500068EB7BE0CDD5892B61F433DB8F3779F5F6
:100F60005A8D5430C8F45F5F5A8F123011F4802FBD
:100F700094D9F88DF136A1F50F3749F5C69830C0F0
:100F8000CE010A964FD999CF8FE787D996CF712C8A
:100F9000322C9BCFC9DEDBCFA9988FE19EE401976D
:100FA000F1F700C00000A99AEFE1FEE43197F1F7F4
:100FB00000C00000109234020FE71A8ED6CF8E3791
:100FC000A1F20F3711F4853581F2082FCECF061527
:100FD00014F4B69BC69A2B8D201714F4B699CECF75
:100FE000232CAB28E9F486E039DE282E3816C1F030
:100FF0004FE758E381E0415050408040E1F700C0A6
:10100000000086E02BDE282E381651F0882341F0B0
:10101000113099F11230A9F1612F8CE090E0DFD608
:10102000BBDD6BE3A62E9C012227232B09F0B0CF5A
:1010300033243394370CE72DF0E0ED50FE4F8083DE
:10104000EFE3E31508F4A3CF432D4150550BFA010C
:10105000ED50FE4FFD8FEC8F2081283011F02F379F
:10106000A9F4F1E0F31508F092CF7A9488E0B0DDAE
:1010700080E2AEDD88E0ACDD8BCF802F0ED912E0B0
:10108000CBCFCE010A96CED811E0C6CFA1DDEC8D34
:10109000FD8D80818A3009F0B0C28091F3018337E1
:1010A00009F00FC18091F401843709F005C58091E2
:1010B000F501813609F000C58091F601843709F009
:1010C000FBC48091F701853709F0F6C48091F801DF
:1010D000833709F0F1C489EC90E08BDD62E0888908
:1010E000BED78EE275DD62E08989B9D78EE270DD08
:1010F00062E08A89B4D780E26BDDEF85E150E730AA
:1011000070F4F0E0EB57F74F099406C0A9C0ABC0EC
:10111000ADC0AFC0B1C0B3C080ED90E06ADD89E082
:1011200091E067DD62E08C859AD78AE351DD62E069
:101130008B8595D78AE34CDD62E08A8590D782E182
:1011400091E057DD8E8944DD60E08B8988D785E1A9
:1011500091E04FDDBE016F5F7F4F80E0B6DB62E064
:101160008B817DD78AE334DD62E08A8178D78AE398
:101170002FDD62E0898173D789E22ADD8EE191E07B
:1011800038DD0F3709F07EC087E291E032DD8AE278
:1011900091E02FDDB69B7AC083E391E02ADDF88DE4
:1011A000F13609F476C0FD3609F477C088E210DD27
:1011B00060E0862D54D78DE20BDD60E08B8D4FD73C
:1011C00089E206DD8AE491E014DD80913F02882304
:1011D00009F466C083E391E00CDD298D213609F422
:1011E00062C02D3609F463C088E2F2DC62E08D2D26
:1011F00036D78AE3EDDC62E08C2D31D78AE3E8DC78
:1012000062E0882D2CD78DE2E3DC62E08F2D27D7BA
:101210008AE3DEDC62E08E2D22D78AE3D9DC62E04D
:10122000892D1DD789E2D4DC80E2D2DC60E0809198
:101230003B0215D785E2CCDC80E2CADC80913C021F
:1012400060E00DD784E591E0D4DC88E591E0D1DC65
:10125000113081F1123091F18EEB90E0CADCCCC1FB
:1012600087ED90E05BCF8FED90E058CF89EE90E076
:1012700055CF82EF90E052CF89EF90E04FCF82E0E0
:1012800091E04CCF60E0802FEAD681CF86E391E0F9
:1012900085CF8AE391E0ADDC89CF81E491E0FBCF9B
:1012A00086E391E099CF8AE391E0A3DC9DCF81E4CE
:1012B00091E0FBCF84E691E09CDCCECF89E691E023
:1012C000FBCF843609F07DC08091F401813609F0AE
:1012D000A5C38091F501843709F0EEC38091F60132
:1012E000853609F0E9C38091F701803209F0E4C343
:1012F0008091F80180538A3008F0DEC38091F901B3
:1013000080538A3008F0D8C38091FA018E3209F0F8
:10131000D3C38091FB0180538A3008F0CDC3809104
:10132000FC0180538A3008F0C7C38091FD018E32E2
:1013300009F0C2C38091FE0180538A3008F0BCC31B
:101340008091FF0180538A3008F0B6C3809100027B
:10135000803209F0B1C38091010280538A3008F0D5
:10136000ABC362E085E0CCD6888B803210F04FE1D1
:10137000488B62E088E0C4D6898B8D3010F08CE019
:10138000898B62E08BE0BCD68A8B61E08EE0B8D6B8
:101390008F87883010F057E05F87CE010A9641DAD8
:1013A00089E0FE013A96DE01119601900D928A9530
:1013B000E1F7BE016F5F7F4F80E0B2DA8CEB90E027
:1013C0004DCF843709F0C4C08091F401893609F00B
:1013D00073C38091F5018D3609F06EC38091F601DB
:1013E000853609F069C38091F701803209F064C342
:1013F000B090F80180ED8B0D8A3008F093C0809199
:10140000F90180538A3008F057C38091FA018A337A
:1014100009F052C38091FB0180538A3008F04CC31D
:101420008091FC0180538A3008F046C38091FD0111
:101430008A3309F041C38091FE0180538A3008F05D
:101440003BC38091FF0180538A3008F035C38091FF
:101450000002803209F04DC0809101028B3219F0F8
:101460008D3209F046C062E085E04AD690910202D2
:1014700090539A30F0F59091030290539A30C8F54A
:101480008C87883110F087E18C8762E088E038D65D
:101490008B878C3308F0AB8662E08BE031D68A878D
:1014A0008C3308F0AA861E861D86CE010A96B9D90D
:1014B00089E0FE013A96DE01119601900D928A951F
:1014C000E1F7BE016F5F7F4F80E02ADAB090010242
:1014D000BE8A62E08FE014D68B8B8C3308F0AB8A27
:1014E0006B2D88E090E07BD46B8989E090E077D425
:1014F00065CF62E085E004D68C87883110F097E1F3
:101500009C8762E088E0FCD58B878C3308F0AB8643
:1015100062E08BE0F5D58A878C3308F0AA861E86B8
:101520001D863BCFEBE2BE1619F0FDE2BF12C4C22E
:101530008091F90180538A3008F0BEC28091FA018F
:1015400080538A3008F0B8C2BE8A62E086E0C3CF1A
:10155000883609F084C08091F401853609F0ACC268
:101560008091F501813609F0A7C28091F601843798
:1015700009F0A2C28091F701803209F09DC28091EA
:10158000F80190ED980F9A3038F58091F901805369
:101590008A3008F091C28091FA018D3209F08CC234
:1015A0008091FB0180538A3008F086C28091FC0153
:1015B00080538A3008F080C262E085E0A1D5682EB1
:1015C00062E088E09DD58B8F662D90E080E007D4A7
:1015D0006B8D81E090E08BCF8F3629F58091F901FA
:1015E0008E3671F46DE68AE090E0F9D3C69A8CEB02
:1015F00090E0FFDA2DE6288F312CCEDA732C13CD54
:10160000863609F059C28091FA01863609F054C233
:101610006DE68AE090E0E3D3C6988CEB90E0E9DADF
:101620004DE6488FE9CF813609F046C28091F90135
:10163000853709F041C28091FA01843709F03CC234
:101640008091FB018F3609F037C261E68AE090E0B5
:10165000C6D38CEB90E0CDDA51E6588FCDCF8C36E7
:1016600009F02AC28091F401893609F025C28091DF
:10167000F501873609F020C28091F601883609F01D
:101680001BC28091F701843709F016C28091F801DE
:10169000803209F011C28091F90190ED980F9A30D3
:1016A00008F00BC19091FA0190539A3008F044C1B0
:1016B0009091FB019A3309F03FC19091FC01905346
:1016C0009A3008F039C19091FD0190539A3008F09A
:1016D00033C19091FE019A3309F02EC19091FF0120
:1016E00090539A3008F028C19091000290539A309C
:1016F00008F022C1909101029D3209F01DC1909124
:10170000020290539A3008F017C19091030290534F
:101710009A3008F011C1909104029A3309F00CC17B
:101720009091050290539A3008F006C190910602FC
:1017300090539A3008F000C1909107029A3309F053
:10174000FBC09091080290539A3008F0F5C0909138
:10175000090290539A3008F0EFC0B0900A0262E09C
:1017600086E0CED4D82E62E089E0CAD4C82E62E0EA
:101770008CE0C6D4882E62E08FE0C2D4F82E62E0FE
:1017800082E1BED4E82E62E085E1BAD49BE39E15E7
:1017900010F45BE3E52EE7E1EF1510F447E1F42EDA
:1017A000FBE3F81510F43BE3832E982E2BE3281768
:1017B00010F42BE3922E4BE34C1510F49BE3C92E4F
:1017C00057E15D1510F487E1D82E80E2B8125CC0B5
:1017D00080910B0280538A3008F056C080910C0231
:1017E00080538A3008F050C080910D0280538A30B7
:1017F00008F04AC080910E02803209F045C0809105
:101800000F0280538A3008F03FC08091100280534D
:101810008A30D0F56D2D82E090E0E1D26C2D83E02E
:1018200090E0DDD2682D84E090E0D9D26F2D85E084
:1018300090E0D5D26E2D86E090E0D1D2692D87E080
:1018400090E0CDD263E088E15BD480933B028536A3
:1018500018F094E690933B0260913B028DE090E09B
:10186000BED262E08CE14CD480933C0280913C0279
:101870008F3118F0EEE1E0933C0260913C028EE083
:1018800090E0ADD220DA9ACD6D2D82E090E0A7D223
:101890006C2D83E090E0A3D2682D84E090E09FD28D
:1018A0006F2D85E090E09BD26E2D86E090E097D280
:1018B000692D87E090E093D29FCE8F3611F580910D
:1018C000FA018E3659F46DE68BE090E088D228DA82
:1018D0008CEB90E08ED9FDE6F98F8ECE863609F03E
:1018E000EBC08091FB01863609F0E6C06DE68BE027
:1018F00090E075D219DA8CEB90E07BD92DE6298F38
:101900007BCE8136C9F48091FA01853709F0D4C0C5
:101910008091FB01843709F0CFC08091FC018F36A4
:1019200009F0CAC061E68BE090E059D28CEB90E000
:1019300060D941E6498F60CE8C36D9F58091FA01A5
:10194000853609F0B9C08091FB01863709F0B4C033
:101950008091FC01853609F0AFC08091FD018C3685
:1019600009F0AAC08091FE01803209F0A5C08091E3
:10197000FF0180538A3008F09FC08091000280539D
:101980008A3008F099C08091010280538A3008F0B3
:1019900093C063E08CE0B4D380933B02853618F0AB
:1019A00054E650933B028FD960913B028DE090E06A
:1019B0009ECD823709F080C08091FA01893609F006
:1019C0007BC08091FB01833709F076C08091FC01D8
:1019D000853609F071C08091FD01803209F06CC03C
:1019E0008091FE0180538A3008F066C08091FF012B
:1019F00080538A3008F060C062E08BE081D380932E
:101A00003C0280913C028F3118F08EE180933C02C1
:101A10005AD960913C028EE090E069CD893609F098
:101A20004BC08091F501833709F046C08091F601E3
:101A3000803709F041C08091F7018C36E9F580913B
:101A4000F8018136C9F58091F9018937A9F58091AE
:101A5000FA01803289F58091FB01843769F5809124
:101A6000FC018936A1F48091FD018D3629F5809124
:101A7000FE01853609F5CE010A96D4D361E08CE0EB
:101A800090E0ADD18CEB90E0B4D811E0B5CD8536C7
:101A900099F48091FD018D3679F48091FE018037B3
:101AA00059F4802FFAD362E08CE090E098D18CEB6F
:101AB00090E09FD812E0A0CD81EC90E0CFCB991BB5
:101AC00079E004C0991F961708F0961B881F7A9535
:101AD000C9F78095089587FB082E062687FD819516
:101AE00067FD6195ECDF0EF4919507FC81950895F3
:101AF000AA1BBB1B51E107C0AA1FBB1FA617B70734
:101B000010F0A61BB70B881F991F5A95A9F780954F
:101B10009095BC01CD010895052E97FB16F4009415
:101B20000FD057FD05D014D007FC02D046F408C0F2
:101B300050954095309521953F4F4F4F5F4F0895F9
:101B400090958095709561957F4F8F4F9F4F089529
:101B5000A1E21A2EAA1BBB1BFD010DC0AA1FBB1FB1
:101B6000EE1FFF1FA217B307E407F50720F0A21B23
:101B7000B30BE40BF50B661F771F881F991F1A9490
:101B800069F760957095809590959B01AC01BD01BA
:101B9000CF01089570D088F09F5790F0B92F992702
:101BA000B751A0F0D1F0660F771F881F991F1AF068
:101BB000BA95C9F712C0B13081F077D0B1E008957D
:101BC00074C0672F782F8827B85F39F0B93FCCF3FE
:101BD000869577956795B395D9F73EF4909580955E
:101BE000709561957F4F8F4F9F4F0895E89409C07E
:101BF00097FB3EF490958095709561957F4F8F4F40
:101C00009F4F9923A9F0F92F96E9BB279395F69555
:101C1000879577956795B795F111F8CFFAF4BB0FD3
:101C200011F460FF1BC06F5F7F4F8F4F9F4F16C037
:101C3000882311F096E911C0772321F09EE8872FC1
:101C4000762F05C0662371F096E8862F70E060E07D
:101C50002AF09A95660F771F881FDAF7880F9695F6
:101C6000879597F9089557FD9058440F551F59F0DF
:101C70005F3F71F04795880F97FB991F61F09F3F79
:101C800079F087950895121613061406551FF2CFA2
:101C90004695F1DF08C0161617061806991FF1CFF2
:101CA00086957105610508940895E894BB27662719
:101CB0007727CB0197F908950BD078C069D028F029
:101CC0006ED018F0952309F05AC05FC01124EECFF2
:101CD000CADFA0F3959FD1F3950F50E0551F629F87
:101CE000F001729FBB27F00DB11D639FAA27F00D75
:101CF000B11DAA1F649F6627B00DA11D661F829F9C
:101D00002227B00DA11D621F739FB00DA11D621F80
:101D1000839FA00D611D221F749F3327A00D611D9D
:101D2000231F849F600D211D822F762F6A2F11247F
:101D30009F5750408AF0E1F088234AF0EE0FFF1FD2
:101D4000BB1F661F771F881F91505040A9F79E3F09
:101D5000510570F014C0AACF5F3FECF3983EDCF35E
:101D6000869577956795B795F795E7959F5FC1F746
:101D7000FE2B880F911D9695879597F9089597F9F1
:101D80009F6780E870E060E008959FEF80EC089521
:101D900000240A941616170618060906089500244A
:101DA0000A9412161306140605060895092E0394C4
:101DB000000C11F4882352F0BB0F40F4BF2B11F438
:101DC00060FF04C06F5F7F4F8F4F9F4F0895E19971
:101DD000FECF9FBB8EBBE09A99278DB30895262F27
:101DE000E199FECF9FBB8EBBE09A01970DB2021620
:101DF00031F02DBB0FB6F894E29AE19A0FBE089528
:041E0000F894FFCF84
:101E04003F065B4F666D7D077F6F63393200043296
:101E140000023200073200053800073200033800A0
:101E24000032000638000135000535000435000392
:101E3400001F1C1F1E1F1E1F1F1E1F1E1F00F9F246
:101E4400EBE3DCD5CEC7C0B8B1AAA39C958E867F40
:101E540078716A635B544D463F3831294F4B0D0A04
:101E6400004552524F520D0A00446174653A2000F5
:101E74004D6F6E64617900547565736461790057C0
:101E840065646E6573646179005468757273646126
:101E94007900467269646179005361747572646192
:101EA400790053756E646179000D0A54696D653A61
:101EB40020002028002073656320617420000D0A2F
:101EC40054656D703A20002D2D000D0A486561742B
:101ED4003A20004F4E004F464600206175746F2033
:101EE40000206D616E75616C20000D0A4C69676895
:101EF400743A20006D696E000D0A446973706C6158
:0E1F0400793A200074696D650074656D700097
:00000001FF
