:1000000012C02CC02BC02AC0E2C128C027C026C005
:1000100025C07CC623C080C5A8C520C01FC01EC087
:100020001DC01CC01BC011241FBECFE5D4E0DEBF25
:10003000CDBF11E0A0E6B0E0EEE7FEE102C0059022
:100040000D92AC34B107D9F721E0ACE4B1E001C0C6
:100050001D92AC3DB207E1F79ED60FCFD1CFCF9224
:10006000DF92EF92FF92CF93DF93C82FD62F87FFB7
:1000700002C08DE2CED5CC2E0C2E000CDD08EE0891
:10008000FF08F7FE08C0F094E094D094C094C11C1F
:10009000D11CE11CF11C84E6C816D104E104F10472
:1000A00014F4D33050F0C701B60124E630E040E04C
:1000B00050E06FDD80E3820FACD58AE0C816D10432
:1000C000E104F10414F4D23078F0C701B60124E65B
:1000D00030E040E050E05DDD2AE030E040E050E01C
:1000E00058DD80E3820F95D58C2F6AE031DD80E307
:1000F000890FDF91CF91FF90EF90DF90CF9089C56E
:10010000E82FF0E0EF54FE4F80E090E03AE09613E5
:1001100001C008952191839F200D1124822F8053C7
:100120009F5FF5CF882319F08DE990E083C582EABF
:1001300090E0FCCF90ED980F81E09A3008F080E0DD
:1001400008950F931F93CF93DF93EC018B01BA01B6
:100150009885F8018085891760F0981339C09F81D0
:100160008781891730F0981333C09E818681891763
:1001700078F59A81F8018281891760F0981328C078
:1001800099818181891730F0981322C098818081EC
:100190008917F0F4FB0183818B32A1F08D32A9F035
:1001A000CE015DD38885F80180878F8187838E811A
:1001B00086838D818583B80180E0DF91CF911F9187
:1001C0000F91CDC3CE01FED3EBCFCE014CD4E8CFFF
:1001D000DF91CF911F910F91089588B3836888BBF9
:1001E00087B3836887BB85B3886385BB84B3886323
:1001F00084BB82B38C6F82BB81B38C6F81BB85B5AE
:10020000826085BD14BC89B7806489BF1092D30118
:100210001092D101E4EDF1E08FEF8083818382833E
:1002200083830895DC0111968C9111973AE0632F36
:1002300083DCE92FF0E0E05AFF4F90819093D401E6
:10024000E82FF0E0E05AFF4F80818093D5011296AD
:100250002C911297822F70DCE92FF0E0E05AFF4FCB
:1002600090819093D6012A3080F41092D7018C911E
:1002700080FF0AC08091D40180688093D40180916E
:10028000D50180688093D5010895E82FF0E0E05A09
:10029000FF4F80818093D701EACF8F929F92AF92D8
:1002A000BF92CF92DF92EF92FF92CF93C82F8F37FA
:1002B00041F41092D40180E48093D5018093D6015B
:1002C00021C0C82E880FDD08EE08FF0889E08C0FDA
:1002D0008331D8F41092D401F7FE08C0F094E09472
:1002E000D094C094C11CD11CE11CF11CF601E05A51
:1002F000FF4F80818093D501C7FF02C080E4DECF2D
:100300001092D6011092D70127C083E68C0F873C4C
:1003100068F51092D401C701B601F7FE07C09095A9
:100320008095709561957F4F8F4F9F4F2AE030E009
:1003300040E050E02EDC605A7F4FFB0180818093CB
:10034000D501205A3F4FF90180818093D601C7FF24
:10035000D9CF80E48093D701CF91FF90EF90DF90C9
:10036000CF90BF90AF909F908F900895F7FE08C0F8
:10037000F094E094D094C094C11CD11CE11CF11CF9
:100380008AE0882E912CA12CB12CC701B601A501C1
:100390009401FFDB605A7F4FFB0180818093D40181
:1003A000C701B60124E630E040E050E0F2DB69012D
:1003B0007A01A5019401EDDB205A3F4FF9018081BC
:1003C0008093D501F601E05AFF4F808177CF1F92CD
:1003D0000F920FB60F9211242F933F934F935F9379
:1003E0006F937F938F939F93AF93BF93EF93FF93FD
:1003F0008091D9019091DA0101969093DA0180936E
:10040000D901E4E8F0E041E050E0A081B1812C9115
:100410008281BA0102C0660F771F8A95E2F7CB018D
:10042000809582238C93339670E0E039F70769F763
:10043000ECE6F0E081E090E0A081B1812C91328186
:10044000AC0101C0440F3A95EAF7242B2C93339664
:1004500020E0E438F20781F7E091D301F0E0EC52BC
:10046000FE4F20814091D10130E002C035952795A3
:100470004A95E2F720FF24C0E091D101A091D1017B
:100480002A2F30E0D901AA0FBB1FA20FB31FA45916
:10049000BF4F0D90BC91A02D4C912E2F30E0F90153
:1004A000EE0FFF1FE20FF31FE459FF4F228102C03E
:1004B000880F991F2A95E2F78095909584238C9355
:1004C000E091D301A091D3018A2F90E0DC01AA0F23
:1004D000BB1FA80FB91FAC57BF4F0D90BC91A02DEB
:1004E0002C918E2F90E0FC01EE0FFF1FE80FF91FFB
:1004F000EC57FF4F328181E090E001C0880F3A95C0
:10050000EAF7822B8C938091D1018F5F8093D10188
:10051000883058F01092D1018091D3018F5F809381
:10052000D301843010F01092D301FF91EF91BF916D
:10053000AF919F918F917F916F915F914F913F917B
:100540002F910F900FBE0F901F901895AA98A29A06
:1005500078948FEB93E00197F1F700C00000F894D6
:10056000A29890EA9A95F1F783B37894E7E4F3E0E0
:100570003197F1F700C00000F89484700895AA98AC
:10058000A29A92E09A95F1F700C08111A29878940E
:1005900080EA8A95F1F7F894A2980895AA98A29A09
:1005A00082E08A95F1F700C0A29895E29A95F1F75A
:1005B000000083B3789498E79A95F1F7F89482FB5A
:1005C000882780F90895CF93DF93D82FC8E08D2F27
:1005D0008170D5DFD695C150D1F7DF91CF910895C5
:1005E000CF93DF93D8E0C0E0D9DF20E8829FC0013D
:1005F0001124C695C82BD150B9F78C2FDF91CF911C
:100600000895CF92DF92EF92FF920F931F93CF93B3
:10061000DF93CDB7DEB729970FB6F894DEBF0FBED4
:10062000CDBF8091D201882359F08091D90190915A
:10063000DA018137914010F01092D2018EE706C0A6
:10064000F89484DF882389F078948FE729960FB691
:10065000F894DEBF0FBECDBFDF91CF911F910F91F8
:10066000FF90EF90DF90CF9008958CECACDF8EEB95
:10067000AADF8E010F5F1F4F6E018AE0C80ED11CEA
:100680007801AEDFF80181938F01EC15FD05C9F704
:10069000789468E070E0C701E5D29985891339C084
:1006A0006A8170E0762F66278981680F711D072E99
:1006B000000C880B990BD9DA20E030E040E85DE3CC
:1006C00038DB6B017C01F89441DF8111BDCF8CECEC
:1006D0007ADF8EE478DF8FE176DF78948FEC97E035
:1006E0000197F1F700C00000F89430DF8111ACCF22
:1006F0008CEC69DF84E467DF78941092DA01109261
:10070000D90181E08093D201C701B60180DA862F3A
:100710009DCFC12CD12C8EEFE82E82E4F82ED3CFC2
:100720006AE00ADA292F30E1839FC0011124822B6D
:100730000895282F2F70982F92959770822F3AE066
:10074000939F800D11240895C398C49ABD9A20E008
:1007500030E090E0C39842E04A95F1F700C0AC0168
:10076000022E02C0559547950A94E2F740FF0CC04F
:10077000C59AC39A42E04A95F1F700C02F5F3F4FF8
:100780002830310539F70895C598F3CFBD98C59A3B
:1007900020E030E080E061E070E0C398AB01022E21
:1007A00001C0440F0A94EAF7B59B10C0842B92E075
:1007B0009A95F1F700C0C39A92E09A95F1F700C0BC
:1007C0002F5F3F4F2830310541F70895409584232E
:1007D000EECFC498C3980895BC9AC498BB9AC398A6
:1007E000BD980895CF93DF93EC0181E8ADDFCEDFB4
:1007F000A0DF8883EEDF83E8A7DFC8DF9ADF898385
:10080000E8DF85E8A1DFC2DF8A83E3DF8A81982FF2
:1008100090729B83982F90789C8387FF1EC08F7166
:100820008A838A8186DF8A8387E88EDFAFDF81DF74
:100830008E83CFDF89E888DFA9DF7BDF8F83C9DF85
:100840008BE882DFA3DF8D83C4DF8DE87DDF9EDF51
:1008500070DF8887DF91CF91BCCF8F73E1CF1F937B
:10086000CF93DF93EC018EE86FDF80E06DDFB1DFC7
:1008700080E86ADF888154DF67DFABDF82E864DF0E
:1008800089814EDF61DFA5DF8A814ADF1B819C8180
:10089000192B182B84E858DF812F56DF9ADF86E862
:1008A00053DF8E813DDF50DF94DF88E84DDF8F819D
:1008B00037DF4ADF8EDF8AE847DF8D8145DF89DF5A
:1008C0008CE842DF88852CDF3FDFDF91CF911F91DD
:1008D00080CFCF938F3148F4880F8F5335DF56DFA9
:1008E000C82F77DF8C2FCF910895C0E0FBCFCF9337
:1008F000C62F8F3138F4880F805426DF8C2F24DFE9
:10090000CF9167CFCF9108951F93CF93DF93182F87
:10091000EB01DFDF888381E0810FDBDF898382E009
:10092000810FD7DF8A8383E0810FD3DF8B8384E05D
:10093000810FCFDF8C8385E0810FCBDF8D8386E055
:10094000810FC7DF8E8387E0810FC3DF8F8388E04D
:10095000810FBFDF8887DF91CF911F9108950F939B
:100960001F93CF93C82F8B01FB016081C0DFF8017B
:10097000618181E08C0FBBDFF801628182E08C0F26
:10098000B6DFF801638183E08C0FB1DFF801648189
:1009900084E08C0FACDFF801658185E08C0FA7DF68
:1009A000F801668186E08C0FA2DFF801678187E09D
:1009B0008C0F9DDFF801608588E08C0FCF911F912F
:1009C0000F9195CFFC01DB0180819C91890F8C33C5
:1009D000A8F58083818111969C911197890F8C33A2
:1009E00098F58183828112969C91890F883190F5C8
:1009F00082838581883010F081E085838781A82FEC
:100A0000B0E0A057BF4F2C919085823021F4392F50
:100A1000337009F42F5F3681231720F421E02683F9
:100A20008F5F878387818D3020F081E087839F5F90
:100A300090878085843608F0108608958C538083D3
:100A400081818F5F8183C6CF8C53818382818F5F49
:100A50008283C8CF8851828385818F5F8583868119
:100A60008F5F8683C6CFFC01DB0120819C91822FA2
:100A7000891B2917D0F5845C808391E081811196D0
:100A80004C911197682F70E0292F30E0240F311D11
:100A9000841B6217730764F5845C891B818391E072
:100AA000828112964C91682F70E0292F30E0240F3C
:100AB000311D841B62177307FCF4885E891B8283D7
:100AC00086818230E0F487818230E0F08150878334
:100AD0009781A92FB0E0A057BF4F8C91923081F43D
:100AE0009085937069F48F5F0BC0808390E0C6CFD0
:100AF000891B818390E0D4CF891B82830895815024
:100B0000868308958CE087838085882319F081503F
:100B10008087DECF83E6FCCF1F920F920FB60F9235
:100B200011242F938F939F93EF93FF938BB19CB1DD
:100B30008871E0914E01EF5FEF7120914D01E21756
:100B400091F0E0934E01F0E0EF5AFE4F90838093D6
:100B50004C01FF91EF919F918F912F910F900FBEBC
:100B60000F901F90189582E0F2CF1F920F920FB650
:100B70000F9211248F939F93EF93FF9390915001C5
:100B800080914F019817A1F0E0914F01EF5FEF7353
:100B9000E0934F01F0E0EF58FE4F80818CB9FF9158
:100BA000EF919F918F910F900FBE0F901F9018950E
:100BB0005598F5CF1092500110924F0110924E01AE
:100BC00010924D0197FF03C022E02BB99F7790BD93
:100BD00089B988E98AB986E880BD089590914E0167
:100BE00080914D01981791F0E0914D01EF5FEF7109
:100BF000E0934D01F0E0EF5AFE4F208180914C01CF
:100C000090E0982F8827820F911D089580E091E051
:100C10000895909150019F5F9F7320914F0192170B
:100C2000E1F3E92FF0E0EF58FE4F808390935001FD
:100C3000559A0895CF93DF93EC018991811103C0F8
:100C4000DF91CF910895E5DFF8CFCF93DF93EC01EB
:100C5000FE0184912196811103C0DF91CF91089507
:100C6000D8DFF6CFFC01680F791F80E048E1E61776
:100C7000F70709F40895219198E0382F3227532F70
:100C8000517030FD842786955111806826959150CA
:100C9000A1F7EDCF379A86B1866086B9089597B1EE
:100CA000907F97B997B1892B87B9369A3699FECF3D
:100CB00024B135B181E02130324008F480E008955C
:100CC000BA9AC29883E083BF8CE882BF89B78160FB
:100CD00089BF82E28FBD89E18EBD8FEF9FEF97BD07
:100CE00086BD19BC18BC1092DB0184E68093D80144
:100CF00008958CE882BF89B7816089BF089581E03B
:100D00008093DB01F6CF1092DB01F3CF1F920F929D
:100D10000FB60F9211242F933F934F935F938F93AE
:100D20009F938CE882BF2091D801243601F14FE8CF
:100D300052E0249FC001259F900D11242091DB01DA
:100D4000222309F128B539B52817390798F488B551
:100D500099B5019699BD88BD9F918F915F914F91F3
:100D60003F912F910F900FBE0F901F9018958FEF0E
:100D70009FEFE4CF28B539B58217930740F488B5C3
:100D800099B50197E7CF88B599B5892BC1F789B790
:100D90008E7F89BFE1CFCF93DF93CDB7DEB72F979B
:100DA0000FB6F894DEBF0FBECDBFBE9AC698A19A0B
:100DB000A99AA09AA89A11DA0FDD83E390E0FADEEF
:100DC00069DF7EDF9FE088E10FB6F894A89581BDCA
:100DD0000FBE91BD80E090E037D8682E81E090E0B2
:100DE00033D8882E8DE090E02FD88093D80182E010
:100DF00090E02AD8082F83E090E026D8F82E84E0EF
:100E000090E022D8D82E85E090E01ED8182F86E0FA
:100E100090E01AD8E82E87E090E016D8C82E88E037
:100E200090E012D88C831B821A8289E090E00CD863
:100E300089831D828AE090E007D88D878BE090E05F
:100E400003D88E878CE090E0FFD78C876885798502
:100E500080E05ADD7894A8988FE19EE40197F1F73D
:100E600000C00000A89A9FEFE4E3FCE09150E0404E
:100E7000F040E1F700C00000A8958A859B85B2DCB0
:100E80002C85213009F4A2C0223009F4A3C0FFE769
:100E90007F2E1F8633243394212C412C512C4FEF6D
:100EA000441A540AA895C20168EE73E05ED65C014C
:100EB000892B49F48A859B8595DC5C85513019F432
:100EC0008A859B85AFD94114510441F468857985A1
:100ED0008A859B85AE014F5F5F4F33D9C20168E8B9
:100EE00073E143D6892B09F045C08E85813609F020
:100EF00041C0EA85FB8582810817E0F0EA85FB8521
:100F00008281801728F0EA85FB858181F81690F0B0
:100F1000EA85FB858281801708F462C0EA85FB853B
:100F200081818F1508F45CC0EA85FB8580818D1571
:100F300008F456C0EA85FB8582818117D0F0EA85E6
:100F4000FB858281181728F0EA85FB8581818E1543
:100F500080F0EA85FB858281181708F441C0EA8594
:100F6000FB858181E816E0F1EA85FB8580818C159F
:100F7000B8F5C5DEC20168EB7BE0F7D5892BF1F44B
:100F800040DB8F3779F59F859923A9F1A998EFE187
:100F9000FEE43197F1F700C00000A99A8FE19EE4CA
:100FA0000197F1F700C000001092D201EFE77E2E0A
:100FB0001F86FC85F23011F4872D6FD92D852136DF
:100FC00029F54FE774121AC0C69820C08A859B8500
:100FD00029D95DCF8FE761D95ACF212C392C5FCF2A
:100FE00092DEC8CF8E3729F39FE7791202C085358C
:100FF00001F3782EDECFE1E0EF87DBCF761414F437
:10100000B69BC69A871414F4B699DECFAB2809F0C4
:1010100051C086E044DE982E3816C9F05FEF80E7B5
:1010200092E0515080409040E1F700C0000086E01F
:1010300036DE982E381659F0882349F0EC85E130D9
:1010400071F1E23089F16C858CE090E005D7C6DD66
:101050009C012227232B11F633243394320CE22DEA
:10106000F0E0EF54FE4F80834FE1431508F4B5CF15
:10107000232D30E0F901E055FE4F5F01208128303B
:1010800011F02F37C9F4F1E0F31508F0A6CF2A9438
:1010900088E0BFDD80E2BDDD88E0BBDD9FCF872D2E
:1010A000FCD8F2E0FC87CFCF8A859B85BBD821E0B6
:1010B0002C87C9CF932CCBCFACDDF50180818A3052
:1010C00009F0A1C18091B101833709F01DC1809160
:1010D000B201843709F031C18091B301813609F042
:1010E0002CC18091B401843709F027C18091B501EA
:1010F000853709F022C18091B601833709F01DC1FF
:101100008AEA90E097DDEA85FB8562E08681A7D7D1
:101110008EE27FDDEA85FB8562E08781A0D78EE2E3
:1011200078DDEA85FB8562E0808599D780E271DD14
:10113000EA85FB85E5818E2F90E0FC013197E73051
:10114000F10568F4EB55F74F099406C0ACC0AEC08A
:10115000B0C0B2C0B4C0B6C081EB90E06BDD8AEE27
:1011600090E068DDEA85FB8562E0828178D78AE3DA
:1011700050DDEA85FB8562E0818171D78AE349DD34
:10118000EA85FB8562E080816AD783EF90E052DDDB
:101190008C813FDD60E0898162D786EF90E04ADD97
:1011A0006E817F8180E0B0DBEE81FF8162E0828131
:1011B00056D78AE32EDDEE81FF8162E081814FD731
:1011C0008AE327DDEE81FF8162E0808148D789E2F2
:1011D00020DD8FEF90E02EDDFFE77F1276C088E004
:1011E00091E028DD8BE091E025DDB69B72C084E1C3
:1011F00091E020DD2D85213609F46EC02D3609F4ED
:101200006FC088E206DD60E0862D29D78DE201DD22
:1012100060E0882D24D789E2FCDC8BE291E00ADDD6
:101220008091DB01882309F45EC084E191E002DD56
:101230004E85413609F45AC04D3609F45BC088E248
:10124000E8DC62E0802F0BD78AE3E3DC62E08F2DDD
:1012500006D78AE3DEDC62E08D2D01D78DE2D9DC92
:1012600062E0812FFCD68AE3D4DC62E08E2DF7D6D3
:101270008AE3CFDC62E08C2DF2D689E2CADC80E220
:10128000C8DC60E08091D801EAD685E2C2DC85E363
:1012900091E0D0DC5C85513081F1523091F18FE9E1
:1012A00090E0C8DCAFC088EB90E058CF80EC90E0D5
:1012B00055CF8AEC90E052CF83ED90E04FCF8AED8E
:1012C00090E04CCF83EE90E049CF60E0872DC7D609
:1012D00089CF87E191E08DCF8BE191E0ABDC91CFBD
:1012E00082E291E0FBCF87E191E0A1CF8BE191E039
:1012F000A1DCA5CF82E291E0FBCF81E491E09ADC12
:10130000CECF86E491E0FBCF8436D1F48091B20158
:10131000813609F010C18091B301843771F4809156
:10132000B401853651F48091B501803231F4809159
:10133000B60180538A3008F458C182EA90E0B1CFF8
:10134000843791F58091B2018936B9F78091B30164
:101350008D3699F78091B401853679F78091B50182
:10136000803259F7B090B60180ED8B0D8A3008F4C9
:10137000B4C14BE2B41619F05DE2B512DECF809134
:10138000B70180538A30C8F68091B80180538A3003
:10139000A0F6BC8262E086E0B3D689838C3308F481
:1013A0005BC28BE3898358C2883609F042C08091C2
:1013B000B201853611F68091B301813609F0BDCFB7
:1013C0008091B401843709F0B8CF8091B5018032A3
:1013D00009F0B3CF9091B60180ED890F8A3008F4FF
:1013E00044C29F3609F04FC28091B7018E3671F426
:1013F0006DE68AE090E030D5C69A8DE990E01ADC7F
:101400009DE69D87312CEADB232C22CE863609F01F
:1014100094CF8091B801863609F08FCF6DE68AE0CF
:1014200090E01AD5C6988DE990E004DCEDE6ED87F2
:10143000E9CF8C3609F081CF8091B201893609F06D
:101440007CCF8091B301873609F077CF8091B401CA
:10145000883609F072CF8091B501843709F06DCFDD
:101460008091B601803209F068CF8091B70190ED8C
:10147000980F9A3008F438C28F3609F043C2809131
:10148000B8018E3659F46DE68BE090E0E5D437DC98
:101490008DE990E0CFDBEDE6EE87B4CF863609F03C
:1014A0004CCF8091B901863609F047CF6DE68BE0CD
:1014B00090E0D2D428DC8DE990E0BCDBFDE6FE872D
:1014C000A1CF8C3609F039CF8091B801853609F06B
:1014D00034CF8091B901863709F02FCF8091BA01BE
:1014E000853609F02ACF8091BB018C3609F025CFD3
:1014F0008091BC01803209F020CF8091BD018053E2
:101500008A3008F01ACF8091BE0180538A3008F0EB
:1015100014CF8091BF0180538A3008F00ECF63E072
:101520008CE0EED58093D801853608F4FFC244E6FE
:101530004093D801FBC2893609F0FFCE8091B301F8
:10154000833709F0FACE8091B401803709F0F5CEE7
:101550008091B5018C3609F0F0CE8091B6018136CC
:1015600009F0EBCE8091B701893709F0E6CE809182
:10157000B801803209F0E1CE8091B901843709F0D9
:10158000DCCE8091BA018936B9F48091BB018D36E9
:1015900009F0D3CE8091BC01853609F0CECE8A8584
:1015A0009B8540D661E08CE090E056D48DE990E0D8
:1015B00041DB51E05C8726CF853609F0BECE8091B5
:1015C000BB018D3609F0B9CE8091BC01803709F09E
:1015D000B4CE872D62D662E08CE090E03DD48DE9F8
:1015E00090E028DB82E08C870DCF8091B70180539B
:1015F0008A3008F0A2CE8091B8018E3209F09DCEDB
:101600008091B90180538A3008F097CE8091BA0159
:1016100080538A3008F091CE8091BB018E3209F060
:101620008CCE8091BC0180538A3008F086CE8091A8
:10163000BD0180538A3008F080CE8091BE01803297
:1016400009F07BCE8091BF0180538A3008F075CEBF
:10165000AA84BB8462E085E053D5F5018683EA85E0
:10166000FB858681803220F0EA85FB858FE18683C9
:10167000AA84BB8462E088E043D5F5018783EA85CC
:10168000FB8587818D3020F0EA85FB858CE08783A0
:10169000AA84BB8462E08BE033D5F5018087AA84FD
:1016A000BB8461E08EE02CD5F5018583EA85FB855E
:1016B0008581883020F0EA85FB8527E025838A85AF
:1016C0009B85CDD88A859B8599878887688579850C
:1016D00080E045D98DE990E0E4CD8091B701805359
:1016E0008A3008F02ACE8091B8018A3309F025CEDD
:1016F0008091B90180538A3008F01FCE8091BA01E1
:1017000080538A3008F019CE8091BB018A3309F0EA
:1017100014CE8091BC0180538A3008F00ECE8091A7
:10172000BD0180538A3008F008CE8091BE0180321E
:1017300059F48091BF018B3211F08D3229F48091E0
:10174000C00180538A30B8F1AA84BB8462E085E08E
:10175000D7D4F5018283EA85FB858281883120F028
:10176000EA85FB8527E12283AA84BB8462E088E0C6
:10177000C7D4F5018183EA85FB8581818C3320F014
:10178000EA85FB852BE32183AA84BB8462E08BE09E
:10179000B7D4F5018083EA85FB8580818C3320F006
:1017A000EA85FB852BE32083EA85FB851482EA85A5
:1017B000FB85138284CF8091C10180538A3020F64B
:1017C000AA84BB8462E085E09BD4F5018283EA852C
:1017D000FB858281883120F0EA85FB8547E14283E1
:1017E000AA84BB8462E088E08BD4F5018183EA851A
:1017F000FB8581818C3320F0EA85FB852BE32183F7
:10180000AA84BB8462E08BE07BD4F5018083EA8507
:10181000FB8580818C3320F0EA85FB852BE32083D8
:10182000EA85FB851482EA85FB8513828A859B8580
:1018300016D88A859B85998788876885798580E011
:101840008ED8B090BF01BC8262E08FE059D489830A
:101850008C3310F04BE349836B2D88E090E0FCD291
:10186000698189E090E0F8D235CF8091B70180534B
:101870008A3048F48091B8018D3229F48091B90101
:1018800080538A30E0F0913609F057CD8091B7014E
:10189000853709F052CD8091B801843709F04DCDDC
:1018A0008091B9018F3609F048CD61E68AE090E079
:1018B000D3D28DE990E0BED9F1E6FD87A3CD80912A
:1018C000BA0180538A30F8F662E085E019D4682EB8
:1018D00062E088E015D4882E662D80E090E0BCD2CE
:1018E000682D81E090E0BFCF9091B80190539A307D
:1018F00048F49091B9019A3329F49091BA01905328
:101900009A30E0F0813609F0DCCD8091B80185375E
:1019100009F013CD8091B901843709F00ECD809183
:10192000BA018F3609F009CD61E68BE090E094D2E0
:101930008DE990E07FD921E62E8764CD9091BB019F
:1019400090539A30F8F69091BC019A33D9F6909161
:10195000BD0190539A30B0F69091BE0190539A30E9
:1019600088F69091BF019D3269F69091C001905325
:101970009A3040F69091C10190539A3018F69091A8
:10198000C2019A3309F0BECF9091C30190539A30AF
:1019900008F0B8CF9091C40190539A3008F0B2CFBC
:1019A0009091C5019A3309F0ADCF9091C601905343
:1019B0009A3008F0A7CF9091C70190539A3008F061
:1019C000A1CF8091C801803231F48091C901805348
:1019D0008A3008F44BC062E086E092D3082F883149
:1019E00008F007E162E089E08BD3F82E4BE348175B
:1019F00010F47BE3F72E62E08CE082D3D82E5BE319
:101A0000581710F46BE3D62E62E08FE079D3182FCD
:101A1000883108F017E162E082E172D3E82E8BE3AF
:101A20008E1510F45BE3E52E62E085E169D3C82EE4
:101A30009BE3981710F44BE3C42E602F82E090E0F4
:101A40000BD26F2D83E090E007D26D2D84E090E003
:101A500003D2612F85E090E0FFD16E2D86E090E00B
:101A6000FBD16C2D87E090E0F7D1CCCC8091CA01FE
:101A700080538A3008F0AFCF8091CB0180538A30F9
:101A800008F0A9CF62E086E03BD3082F883108F048
:101A900007E162E089E034D3F82EFBE3F81710F495
:101AA0003BE3F32E62E08CE02BD3D82E2BE32817F8
:101AB00010F42BE3D22E62E08FE022D3182F88316E
:101AC00008F017E162E082E11BD3E82E4BE34817F0
:101AD00010F49BE3E92E62E085E112D3C82E5BE3AC
:101AE000581710F48BE3C82E602F82E090E0B4D139
:101AF0006F2D83E090E0B0D16D2D84E090E0ACD10B
:101B0000612F85E090E0A8D16E2D86E090E0A4D111
:101B10006C2D87E090E0A0D163E088E1F1D2809362
:101B2000D801853618F024E62093D801E2D86091D8
:101B3000D8018DE090E097CE991B79E004C0991F01
:101B4000961708F0961B881F7A95C9F78095089517
:101B500087FB082E062687FD819567FD6195ECDFE2
:101B60000EF4919507FC81950895AA1BBB1B51E1CA
:101B700007C0AA1FBB1FA617B70710F0A61BB70BFD
:101B8000881F991F5A95A9F780959095BC01CD01A2
:101B90000895052E97FB16F400940FD057FD05D03D
:101BA00014D007FC02D046F408C0509540953095FB
:101BB00021953F4F4F4F5F4F0895909580957095B9
:101BC00061957F4F8F4F9F4F0895A1E21A2EAA1B58
:101BD000BB1BFD010DC0AA1FBB1FEE1FFF1FA217DD
:101BE000B307E407F50720F0A21BB30BE40BF50BDA
:101BF000661F771F881F991F1A9469F76095709563
:101C0000809590959B01AC01BD01CF01089570D0E6
:101C100088F09F5790F0B92F9927B751A0F0D1F0D5
:101C2000660F771F881F991F1AF0BA95C9F712C05F
:101C3000B13081F077D0B1E0089574C0672F782F6C
:101C40008827B85F39F0B93FCCF3869577956795CB
:101C5000B395D9F73EF490958095709561957F4F37
:101C60008F4F9F4F0895E89409C097FB3EF49095DD
:101C70008095709561957F4F8F4F9F4F9923A9F065
:101C8000F92F96E9BB279395F695879577956795F4
:101C9000B795F111F8CFFAF4BB0F11F460FF1BC038
:101CA0006F5F7F4F8F4F9F4F16C0882311F096E9CB
:101CB00011C0772321F09EE8872F762F05C0662379
:101CC00071F096E8862F70E060E02AF09A95660F32
:101CD000771F881FDAF7880F9695879597F90895EB
:101CE00057FD9058440F551F59F05F3F71F04795CD
:101CF000880F97FB991F61F09F3F79F087950895B2
:101D0000121613061406551FF2CF4695F1DF08C0D0
:101D1000161617061806991FF1CF869571056105ED
:101D200008940895E894BB2766277727CB0197F995
:101D300008950BD078C069D028F06ED018F09523A4
:101D400009F05AC05FC01124EECFCADFA0F3959FFF
:101D5000D1F3950F50E0551F629FF001729FBB2792
:101D6000F00DB11D639FAA27F00DB11DAA1F649F3E
:101D70006627B00DA11D661F829F2227B00DA11DF1
:101D8000621F739FB00DA11D621F839FA00D611D77
:101D9000221F749F3327A00D611D231F849F600D98
:101DA000211D822F762F6A2F11249F5750408AF0D1
:101DB000E1F088234AF0EE0FFF1FBB1F661F771F5D
:101DC000881F91505040A9F79E3F510570F014C0F4
:101DD000AACF5F3FECF3983EDCF386957795679545
:101DE000B795F795E7959F5FC1F7FE2B880F911D7B
:101DF0009695879597F9089597F99F6780E870E021
:101E000060E008959FEF80EC089500240A94161670
:101E1000170618060906089500240A9412161306D8
:101E2000140605060895092E0394000C11F4882366
:101E300052F0BB0F40F4BF2B11F460FF04C06F5F82
:101E40007F4F8F4F9F4F0895E199FECF9FBB8EBB71
:101E5000E09A99278DB30895262FE199FECF9FBB75
:101E60008EBBE09A01970DB2021631F02DBB0FB672
:0E1E7000F894E29AE19A0FBE0895F894FFCF1D
:101E7E003F065B4F666D7D077F6F6339320004321C
:101E8E000002320007320005380007320003380026
:101E9E000032000638000135000535000435000318
:101EAE00001F1C1F1E1F1E1F1F1E1F1E1F4F4B0D10
:101EBE000A004552524F520D0A00446174653A2091
:101ECE00004D6F6E646179005475657364617900BD
:101EDE005765646E657364617900546875727364D6
:101EEE006179004672696461790053617475726438
:101EFE0061790053756E646179000D0A54696D65E0
:101F0E003A20002028002073656320617420000DA4
:101F1E000A54656D703A20002D2D000D0A4865613A
:101F2E00743A20004F4E004F464600206175746F84
:101F3E002000206D616E75616C20000D0A4C696782
:101F4E0068743A20000D0A446973706C61793A2006
:0C1F5E000074696D650074656D70000012
:00000001FF
