:1000000019C033C032C031C0D5C12FC02EC02DC0E1
:100010002CC02BC02AC052C47AC427C026C025C019
:1000200024C023C022C0A0C6A2C6A4C6A6C6A8C615
:10003000AAC6ACC611241FBECFE5D4E0DEBFCDBF3B
:1000400011E0A0E6B0E0ECE7F5E102C005900D920A
:10005000A030B107D9F721E0A0E0B1E001C01D92C6
:10006000AB36B207E1F7EAD487CACACFCF92DF92A4
:10007000EF92FF92CF93C82F87FF02C08DE29BD4EF
:10008000CC2E0C2E000CDD08EE08FF08F7FE08C091
:10009000F094E094D094C094C11CD11CE11CF11CDC
:1000A00084E6C816D104E104F10414F081E383D49A
:1000B000C701B60124E630E040E050E0B1D82AE0C4
:1000C00030E040E050E0ACD880E3820F74D48C2F55
:1000D0006AE099D880E3890FCF91FF90EF90DF908D
:1000E000CF9069C4E82FF0E0EB5BFE4F80E020E0AA
:1000F000261751F03191880F982F990F990F890F7A
:100100008053830F2F5FF4CF08958062089590EDA0
:10011000980F81E09A3008F080E0089580E990E03F
:100120005BC492988FE19EE40197F1F700C0000054
:10013000929A9FEF20E782E0915020408040E1F7C3
:1001400000C00000089588B38F6388BB87B38F63B6
:1001500087BB85B38F6085BB84B38F6084BB82B35C
:10016000806C82BB81B3806C81BB85B5826085BDAC
:1001700014BC89B7806489BF109266011092650132
:10018000E7E6F1E080E480838183828383830895BE
:100190000F931F93CF93DF93CDB7DEB729970FB699
:1001A000F894DEBF0FBECDBF09831A832B833C8337
:1001B0004D835E836F83788789873AE0812F632F31
:1001C00016D8E92FF0E0E05AFF4F90819093670135
:1001D000E82FF0E0E05AFF4F808180936801822F82
:1001E00006D8E92FF0E0E05AFF4F90819093690123
:1001F0002A3018F410926A0107C0E82FF0E0E05AA4
:10020000FF4F808180936A01898180FF0AC08091BD
:10021000690180688093690180916A018068809398
:100220006A0129960FB6F894DEBF0FBECDBFDF91ED
:10023000CF911F910F9108954F925F926F927F928D
:100240008F929F92AF92BF92CF92DF92EF92FF92E6
:100250004B015C0194D86B017C0122E538E34EED43
:1002600052ECC501B40126D8811106C01092670175
:1002700080E4809368018DC0D701C6010996A11D55
:10028000B11D4397A105B105D0F410926701D701C4
:10029000C601F7FE07C088279927DC018C199D0944
:1002A000AE09BF09FC01E05AFF4F808180936801CD
:1002B000F7FE02C080E46DC0109269016CC0D701E6
:1002C000C6018D599F4FAF4FBF4F873C9105A10588
:1002D000B10520F510926701C701B601F7FE07C00E
:1002E00066277727CB016C197D098E099F092AE0C3
:1002F00030E040E050E094D7FB01E05AFF4F8081AE
:1003000080936801F901E05AFF4F80818093690171
:10031000F7FE41C080E480936A013FC0F7FE08C049
:10032000F094E094D094C094C11CD11CE11CF11C49
:100330008AE0482E512C612C712CC701B601A30113
:1003400092016ED7FB01E05AFF4F808180936701D5
:1003500094E6892E912CA12CB12CC701B601A501E0
:1003600094015ED7A30192015BD7F901E05AFF4FD8
:10037000808180936801C701B60128EE33E040E038
:1003800050E04ED7A50194014BD7F901E05AFF4F39
:1003900080818093690110926A01FF90EF90DF9055
:1003A000CF90BF90AF909F908F907F906F905F9015
:1003B0004F9008951F920F920FB60F9211242F9312
:1003C0003F934F935F938F939F93AF93BF93EF931D
:1003D000FF93E4E8F0E041E050E0A081B1819C911E
:1003E0009A01028002C0220F331F0A94E2F7822F83
:1003F000809589238C93339680E0E039F80769F77C
:10040000ECE6F0E041E050E0A081B1812C91CA011E
:10041000028002C0880F991F0A94E2F7822B8C9306
:10042000339680E0E438F80779F7E0916601F0E070
:10043000E959FE4F80812091650190E002C09595B9
:1004400087952A95E2F780FF25C08091650120916C
:10045000650130E0F901EE0FFF1F2E0F3F1FF9017C
:10046000E459FF4FA081B1812C9190E0FC01EE0F87
:10047000FF1F8E0F9F1FFC01E459FF4F81E090E0AA
:10048000028002C0880F991F0A94E2F78095909528
:1004900082238C93809166012091660130E0F901FE
:1004A000EE0FFF1F2E0F3F1FF901EC57FF4FA081EA
:1004B000B1812C9190E0FC01EE0FFF1F8E0F9F1F6A
:1004C000FC01EC57FF4F81E090E0028002C0880FF2
:1004D000991F0A94E2F7822B8C93809165018F5FBC
:1004E00080936501883058F0109265018091660113
:1004F0008F5F80936601843010F010926601FF9147
:10050000EF91BF91AF919F918F915F914F913F91EB
:100510002F910F900FBE0F901F90189593988B9A64
:1005200078948FEB93E00197F1F700C00000F89406
:100530008B9890EA9A95F1F780B37894E7E4F3E02A
:100540003197F1F700C00000F894887008959398EF
:100550008B9A92E09A95F1F700C081118B9878946C
:1005600080EA8A95F1F7F8948B98089593988B9A7E
:1005700082E08A95F1F700C08B9895E29A95F1F7A1
:10058000000080B3789498E79A95F1F7F89483FB8C
:10059000882780F90895CF93DF93D82FC9E0C15001
:1005A00029F08D2F8170D3DFD695F9CFDF91CF91D0
:1005B0000895CF93DF93D9E0C0E0D15041F0D6DF6A
:1005C00020E8829FC0011124C695C82BF6CF8C2F3E
:1005D000DF91CF910895CF92DF92FF920F931F93F7
:1005E000CF93DF93CDB7DEB72A970FB6F894DEBF6F
:1005F0000FBECDBFF89492DF811119C08CECCBDF18
:100600008EE4C9DF80E0C7DF80E0C5DF8FE1C3DFB4
:1006100085DF81110CC08CECBEDF84E4BCDF7894F4
:10062000A5DF8823E9F3F89479DF882311F0789423
:1006300030C08CECB0DF8EEBAEDF8E010F5F1F4F52
:100640006E018AE0C80ED11CF02E912F9A87B1DF7F
:10065000F80181938F019A85EC15FD05B9F778941F
:1006600068E070E08F2DD1D19985891312C06A811D
:1006700070E0762F66278981680F711D072E000CA8
:10068000880B990B1DD620E030E040E85DE3A7D64B
:1006900004C062E578E38EED92EC2A960FB6F894EA
:1006A000DEBF0FBECDBFDF91CF911F910F91FF90A5
:1006B000DF90CF9008956AE09AD5292F30E1839F8B
:1006C000C0011124822B0895382F3F70982F9695E2
:1006D000969596959E70292F220F220F892F820FB3
:1006E000830F0895C698959ABF9A20E030E090E075
:1006F000C69842E04A95F1F700C0AC01022E02C054
:10070000559547950A94E2F740FF02C0C79A01C089
:10071000C798C69A42E04A95F1F700C02F5F3F4F55
:100720002830310529F708959598C6980895BF98FF
:10073000C79A20E030E080E061E070E0C698AB014D
:10074000022E01C0440F0A94EAF7B79B02C0842B23
:1007500002C04095842392E09A95F1F700C0C69AB2
:1007600092E09A95F1F700C02F5F3F4F2830310596
:1007700029F79598C69808958D9A9598BE9AC69827
:10078000BF980895AF92BF92CF92DF92EF92FF92FF
:100790000F931F93CF93DF93EC0181E8A3DFC7DFB3
:1007A00093DFA82E83E89EDFC2DF8EDFB82E85E8B8
:1007B00099DFBDDF082F0072182F1078103811F460
:1007C0008F7101C08F7380DFC82E87E88BDFAFDFAA
:1007D0007BDFE82E89E886DFAADF76DFD82E8BE87C
:1007E00081DFA5DFF82E8DE87DDFA1DF6DDFA88238
:1007F000B982CA82DB82EC828D83FE820F831887E6
:10080000CE01DF91CF911F910F91FF90EF90DF907C
:10081000CF90BF90AF9008950F931F93CF93DF9326
:10082000CDB7DEB729970FB6F894DEBF0FBECDBFA8
:1008300009831A832B833C834D835E836F83788780
:1008400089878EE84FDF80E04DDF6EDF80E84ADF8A
:10085000898131DF47DF68DF82E844DF8A812BDF6F
:1008600041DF62DF8B8127DF18859985192B182BD3
:1008700084E838DF812F36DF57DF86E833DF8D816C
:100880001ADF30DF51DF88E82DDF8C8114DF2ADFAB
:100890004BDF8AE827DF8F8125DF46DF8CE822DF08
:1008A0008E8109DF1FDF29960FB6F894DEBF0FBED9
:1008B000CDBFDF91CF911F910F9136CF1F920F9235
:1008C0000FB60F9211242F938F939F93EF93FF9363
:1008D0008BB19CB18871E0910201EF5FEF712091C3
:1008E0000101E21739F0E0930201F0E0EB5FFE4F07
:1008F000908301C082E080930001FF91EF919F916E
:100900008F912F910F900FBE0F901F9018951F92EF
:100910000F920FB60F9211248F939F93EF93FF9333
:100920009091040180910301981761F0E091030117
:10093000EF5FEF71E0930301F0E0EB5DFE4F80812C
:100940008CB901C05598FF91EF919F918F910F90B5
:100950000FBE0F901F901895109204011092030182
:10096000109202011092010197FF03C022E02BB9FF
:100970009F7790BD89B988E98AB986E880BD0895D6
:100980009091020180910101981791F0E09101018D
:10099000EF5FEF71E0930101F0E0EB5FFE4F20812C
:1009A0008091000190E0982F8827820F911D089573
:1009B00080E091E00895909104019F5F9F712091E4
:1009C00003019217E1F3E92FF0E0EB5DFE4F808326
:1009D00090930401559A0895CF93DF93EC01899188
:1009E000882311F0E8DFFBCFDF91CF910895CF93FB
:1009F000DF93FC018491EF012196882319F0DBDF5E
:100A0000FE01F8CFDF91CF910895FC01680F791FA7
:100A100080E048E1E617F70781F0219198E0382F50
:100A20003227532F517030FD84278695513009F4B9
:100A300080682695915099F7EDCF0895CF93DF9375
:100A4000CDB7DEB7A0970FB6F894DEBF0FBECDBF0F
:100A500080E090E078D5882E81E090E074D5382E43
:100A600082E090E070D58D8B83E090E06CD58E8B2A
:100A700084E090E068D5282E85E090E064D58F8BE7
:100A800086E090E060D5888F87E090E05CD5898F24
:100A9000A49AA59A8A9A57DB6FDE83E390E05CDF25
:100AA00078943FDB1C8A21E93FEF4FEF5FEF2A8705
:100AB0003B874C875D8732E53F8748E3488B5EED97
:100AC000598B82EC8A8B1E861B8A1E8ECE01019664
:100AD00059DED980EA80FB80AC80BD80CE809F80CB
:100AE0002F2D30E0A0E1BEE0B7D32B013C012E2D2D
:100AF00030E0ACE3B0E0B0D3460E571E681E791E5E
:100B00004D0C511C611C711C222D30E0A0E1BEE097
:100B1000A3D36A8F7B8F8C8F9D8F9E89292F30E086
:100B2000ACE3B0E099D32A8D3B8D4C8D5D8D260FC3
:100B3000371F481F591FDA01C9013D89830F911DD5
:100B4000A11DB11D481659066A067B0640F1498D64
:100B5000242F30E0A0E1BEE07FD36A8F7B8F8C8FA3
:100B60009D8F588D252F30E0ACE3B0E075D32A8DF2
:100B70003B8D4C8D5D8D260F371F481F591FDA01A5
:100B8000C9013F89830F911DA11DB11D84159505D4
:100B9000A605B70520F09C9905C0AC9A03C09C9BA4
:100BA00002C0AC98BEDA17DD2B013C0122E538E328
:100BB0004EED52EC7FD3811111C04E854530D8F4F3
:100BC0004F5F4E8722E538E34EED52EC6F85788912
:100BD00089899A896FD381111EC016C0B201C301E1
:100BE000CED36A877B878C879D874F86588A698A90
:100BF0007A8A1E8610C081E99FEFAFEFBFEF8A8728
:100C00009B87AC87BD871E86AD988BDA4F86588A46
:100C1000698A7A8A26C0882D082C000C990BAA0BA9
:100C2000BB0B2A853B854C855D85281739074A070C
:100C30005B0724F49D9902C0AD9A73DA832D032CCF
:100C4000000C990BAA0BBB0B2A853B854C855D8557
:100C500082179307A407B50724F49D9B02C0AD98A3
:100C600060DA80B3829581708F8F18A23E8D832FBA
:100C700090E04F8D58A14817590759F080B38295DD
:100C800081708E8F849B05C05B895130B9F41B8ABB
:100C900003C08B89813091F0D982EA82FB82AC82D9
:100CA000BD82CE829F820D2D1E2D2F2D3A2D4B2DD4
:100CB0005C2D692D788589856BDA07C06F85788909
:100CC00089899A89B9DA91E09B8B5ADE9C012227A7
:100CD000232B09F0FBCE1C891F5FAC89EA2FF0E0C3
:100CE000EB5BFE4F8083103210F01C8AEFCEE12FB9
:100CF000F0E0EC5BFE4F80818A3009F03CC18091CE
:100D000045018062833709F0A5C080914601806269
:100D1000843709F02CC1809147018062813609F047
:100D200026C1809148018062843709F020C18091FA
:100D300049018062853609F01AC18B2D97D98EE260
:100D40003ADE8A2D93D985E990E046DE8C2D8ED946
:100D500080E231DE892D90E0FC013197E730F1052A
:100D6000C0F4ED5EFF4F099489E990E011C080EA7C
:100D700090E00EC088EA90E00BC082EB90E008C0E3
:100D80008BEB90E005C082EC90E002C08BEC90E031
:100D900023DE80E210DE8F2D69D98AE30CDE8E2DF2
:100DA00065D98AE308DE8D2D61D982ED90E014DEED
:100DB00022E538E34EED52EC6F85788989899A896E
:100DC00079D2811104C08BED90E006DE02C08A85E5
:100DD0004DD98EED90E000DE9D9B03C087EE90E044
:100DE00002C08AEE90E0F8DD80E2E5DD88E2E3DD36
:100DF000882D3CD98DE2DFDD832D38D989E2DBDD1A
:100E00008EEE90E0E9DD9C9B03C087EE90E002C08F
:100E10008AEE90E0E1DD80E2CEDD88E2CCDD822D5D
:100E200025D98AE3C8DD8E8921D98AE3C4DD8D897D
:100E30001DD98DE2C0DD898D19D98AE3BCDD888D8D
:100E400015D98AE3B8DD8F8911D989E2B4DD82E949
:100E500090E08FC08436F1F4809146018062813643
:100E600009F085C0809147018062843709F07FC016
:100E7000809148018062853609F079C080914901EE
:100E8000803209F074C080914A0180538A3008F49E
:100E900060C06DC08437F1F480914601806289366C
:100EA00009F065C08091470180628D3609F05FC00E
:100EB000809148018062853609F059C080914901CE
:100EC000803209F054C080914A0180538A3008F47E
:100ED00092C04DC08836E1F480914601806285362B
:100EE00009F045C0809147018062813609F03FC01A
:100EF0008091480180628437D1F580914901803228
:100F0000B1F580914A0180538A3008F4BCC02FC0EB
:100F10008C3669F5809146018062893641F5809171
:100F200047018062873619F58091480180628836D2
:100F3000F1F48091490180628437C9F480914A01BB
:100F40008032A9F480914B0180538A3008F4C2C0EA
:100F50000EC080914B0180538A3048F480914C013F
:100F60008E3229F480914D0180538A3038F088EF19
:100F700090E032DD10E004DD1C8BA8CE80914E01A4
:100F800080538A30A0F780914F018E3281F7809193
:100F9000500180538A3058F78091510180538A3034
:100FA00030F780915201803211F7809153018053C4
:100FB0008A30E8F662E085E095D8B82E62E088E0F5
:100FC00091D8A82E62E08BE08DD8C82E61E08EE02B
:100FD00089D8982ED982EA82FB82AC82BD82CE82E9
:100FE0008F830D2D1E2D2F2D3A2D4B2D5C2D682F0F
:100FF0007885898546C080914B0180538A3008F0FE
:10100000B6CF80914C018A3309F0B1CF80914D0168
:1010100080538A3008F0ABCF80914E0180538A30E4
:1010200008F0A5CF80914F018A3309F0A0CF8091BD
:10103000500180538A3008F09ACF8091510180533B
:101040008A3008F094CF62E085E04CD8F82E62E058
:1010500088E048D8E82E62E08BE044D8D82E198684
:1010600018868983EA82FB82AC82BD82CE829F820F
:10107000082F1E2D2F2D3A2D4B2D5C2D692D70E044
:1010800080E0CADBB2C080914B0180538A3008F007
:101090006ECF80914C018D3209F069CF80914D0166
:1010A00080538A3008F063CF80914E0180538A309C
:1010B00008F05DCF62E085E015D8882E62E088E018
:1010C00011D8382E682D80E090E045D2632D81E064
:1010D00090E08AC080914C0180538A3008F047CF5D
:1010E00080914D018A3309F042CF80914E018053A7
:1010F0008A3008F03CCF80914F0180538A3008F04D
:1011000036CF809150018A3309F031CF809151015F
:1011100080538A3008F02BCF8091520180538A305F
:1011200008F025CF809153018D3209F020CF8091B6
:10113000540180538A3008F01ACF809155018053B2
:101140008A3008F014CF809156018A3309F00FCF0E
:101150008091570180538A3008F009CF809158015F
:1011600080538A3008F003CF809159018A3309F007
:10117000FECE80915A0180538A3008F0F8CE8091DB
:101180005B0180538A3008F0F2CE62E086E0AAD795
:10119000282E62E089E0A6D78E8B62E08CE0A2D791
:1011A0008D8B62E08FE09ED7898F62E082E19AD7D3
:1011B000888F62E085E196D78F8B622D84E090E086
:1011C000CAD16E8983E090E0C6D16D8982E090E05B
:1011D000C2D1698D87E090E0BED1688D86E090E055
:1011E000BAD16F8985E090E0B6D198D7C3CE991B6C
:1011F00079E004C0991F961708F0961B881F7A950E
:10120000C9F78095089587FB082E062687FD8195EE
:1012100067FD6195ECDF0EF4919507FC81950895CB
:10122000052E97FB16F400940FD057FD05D020D063
:1012300007FC02D046F408C05095409530952195A2
:101240003F4F4F4F5F4F08959095809570956195F2
:101250007F4F8F4F9F4F0895A29FB001B39FC00152
:10126000A39F01D0B29F700D811D1124911D08957F
:10127000A1E21A2EAA1BBB1BFD010DC0AA1FBB1F9A
:10128000EE1FFF1FA217B307E407F50720F0A21B0C
:10129000B30BE40BF50B661F771F881F991F1A9479
:1012A00069F760957095809590959B01AC01BD01A3
:1012B000CF01089540D008F481E00895E89409C072
:1012C00097FB3EF490958095709561957F4F8F4F79
:1012D0009F4F9923A9F0F92F96E9BB279395F6958F
:1012E000879577956795B795F111F8CFFAF4BB0F0D
:1012F00011F460FF1BC06F5F7F4F8F4F9F4F16C071
:10130000882311F096E911C0772321F09EE8872FFA
:10131000762F05C0662371F096E8862F70E060E0B6
:101320002AF09A95660F771F881FDAF7880F96952F
:10133000879597F90895990F0008550FAA0BE0E8D3
:10134000FEEF16161706E807F907C0F01216130687
:10135000E407F50798F0621B730B840B950B39F4C7
:101360000A2661F0232B242B252B21F408950A262D
:1013700009F4A140A6958FEF811D811D0895C2D06B
:1013800058F19E5758F19851A0F0E9F0983020F5A7
:10139000092E9927660F771F881F991F0A94D1F786
:1013A00012C0062E672F782F8827985F11F4000C43
:1013B00007C0993FB4F38695779567959395D9F7CC
:1013C000611D711D811D3EF490958095709561950C
:1013D0007F4F8F4F9F4F08956894AFC0ADC00BD023
:1013E00078C069D028F06ED018F0952309F05AC063
:1013F0005FC01124A2C07ED0A0F3959FD1F3950FBA
:1014000050E0551F629FF001729FBB27F00DB11D88
:10141000639FAA27F00DB11DAA1F649F6627B00D18
:10142000A11D661F829F2227B00DA11D621F739F01
:10143000B00DA11D621F839FA00D611D221F749F0F
:101440003327A00D611D231F849F600D211D822F56
:10145000762F6A2F11249F5750408AF0E1F088239D
:101460004AF0EE0FFF1FBB1F661F771F881F9150AA
:101470005040A9F79E3F510570F014C05EC05F3F19
:10148000ECF3983EDCF3869577956795B795F795DD
:10149000E7959F5FC1F7FE2B880F911D9695879565
:1014A00097F9089597F99F6780E870E060E00895E4
:1014B0009FEF80EC089500240A941616170618066C
:1014C0000906089500240A94121613061406050648
:1014D0000895092E0394000C11F4882352F0BB0FD9
:1014E00040F4BF2B11F460FF04C06F5F7F4F8F4F3C
:1014F0009F4F089557FD9058440F551F59F05F3F77
:1015000071F04795880F97FB991F61F09F3F79F025
:1015100087950895121613061406551FF2CF4695A7
:10152000F1DF08C0161617061806991FF1CF869529
:101530007105610508940895E894BB27662777270D
:10154000CB0197F90895E199FECF9FBB8EBBE09A3E
:1015500099278DB30895262FE199FECF9FBB8EBBAF
:10156000E09A01970DB2021631F02DBB0FB6F89438
:0C157000E29AE19A0FBE0895F894FFCFB4
:10157C003F305B79746D6F387F7D5C0F38000232C1
:10158C00000635000238000538000438000135002B
:10159C000135000338000338000032000735000025
:1015AC004F4B0D0A002E3230004D6F6E6461790086
:1015BC0054756573646179005765646E6573646115
:1015CC00790054687572736461790046726964615C
:1015DC00790053617475726461790053756E64613E
:1015EC0079000D0A54656D703A20002D2D000D0AFE
:1015FC00486561743A20004F4E004F4646000D0A74
:10160C004C696768743A20004552524F520D0A00DB
:00000001FF
