:1000000012C02CC02BC02AC0C2C128C027C026C025
:1000100025C05BC623C05EC586C520C01FC01EC0EC
:100020001DC01CC01BC011241FBECFE5D4E0DEBF25
:10003000CDBF11E0A0E6B0E0E4EFFDE102C0059025
:100040000D92AC34B107D9F721E0ACE4B1E001C0C6
:100050001D92AC3DB207E1F77CD6CACED1CFCF928C
:10006000DF92EF92FF92CF93DF93C82FD62F87FFB7
:1000700002C08DE2ADD5CC2E0C2E000CDD08EE08B2
:10008000FF08F7FE08C0F094E094D094C094C11C1F
:10009000D11CE11CF11C84E6C816D104E104F10472
:1000A00014F4D33050F0C701B60124E630E040E04C
:1000B00050E02ADD80E3820F8BD58AE0C816D10498
:1000C000E104F10414F4D23078F0C701B60124E65B
:1000D00030E040E050E018DD2AE030E040E050E061
:1000E00013DD80E3820F74D58C2F6AE0ECDC80E3B3
:1000F000890FDF91CF91FF90EF90DF90CF9068C58F
:10010000E82FF0E0EF54FE4F80E090E03AE09613E5
:1001100001C008952191839F200D1124822F8053C7
:100120009F5FF5CF882319F08DE990E062C582EAE0
:1001300090E0FCCF90ED980F81E09A3008F080E0DD
:1001400008950F931F93CF93DF93EC018B01BA01B6
:100150009885F8018085891760F0981339C09F81D0
:100160008781891730F0981333C09E818681891763
:1001700078F59A81F8018281891760F0981328C078
:1001800099818181891730F0981322C098818081EC
:100190008917F0F4FB0183818B32A1F08D32A9F035
:1001A000CE013FD38885F80180878F8187838E8138
:1001B00086838D818583B80180E0DF91CF911F9187
:1001C0000F91AEC3CE01DFD3EBCFCE012ED4E8CF5B
:1001D000DF91CF911F910F91089588B3836888BBF9
:1001E00087B3836887BB85B3886385BB84B3886323
:1001F00084BB82B38C6F82BB81B38C6F81BB85B5AE
:10020000826085BD14BC89B7806489BF1092D30118
:100210001092D101E4EDF1E08FEF8083818382833E
:1002200083830895DC0111968C9111973AE0632F36
:100230003EDCE92FF0E0E05AFF4F90819093D4012B
:10024000E82FF0E0E05AFF4F80818093D5011296AD
:100250002C911297822F2BDCE92FF0E0E05AFF4F10
:1002600090819093D6012A3080F41092D7018C911E
:1002700080FF0AC08091D40180688093D40180916E
:10028000D50180688093D5010895E82FF0E0E05A09
:10029000FF4F80818093D701EACF8F929F92AF92D8
:1002A000BF92CF92DF92EF92FF92CF93C82F8F37FA
:1002B00041F41092D40180E48093D5018093D6015B
:1002C00020C0C82E880FDD08EE08FF08F7FE08C022
:1002D000F094E094D094C094C11CD11CE11CF11C9A
:1002E00089E08C0F833180F41092D401F601E05A3A
:1002F000FF4F80818093D50180E4C7FDDFCF10924E
:10030000D6011092D70121C08AE0882E912CA12C11
:10031000B12CC701B601A5019401F6DB605A7F4FED
:10032000FB01808193E69C0F973CC8F41092D401A6
:100330008093D501205A3F4FF90180818093D601E7
:10034000C7FFDFCF80E48093D701CF91FF90EF907C
:10035000DF90CF90BF90AF909F908F900895809343
:10036000D401C701B60124E630E040E050E0CCDB28
:100370006901A5019401C8DB205A3F4FF901808132
:100380008093D501F601E05AFF4F808197CF1F92ED
:100390000F920FB60F9211242F933F934F935F93B9
:1003A0006F937F938F939F93AF93BF93EF93FF933D
:1003B0008091D9019091DA0101969093DA018093AE
:1003C000D901E4E8F0E041E050E0A081B1812C9156
:1003D0008281BA0102C0660F771F8A95E2F7CB01CE
:1003E000809582238C93339670E0E039F70769F7A4
:1003F000ECE6F0E081E090E0A081B1812C913281C7
:10040000AC0101C0440F3A95EAF7242B2C933396A4
:1004100020E0E438F20781F7E091D301F0E0EC52FC
:10042000FE4F20814091D10130E002C035952795E3
:100430004A95E2F720FF24C0E091D101A091D101BB
:100440002A2F30E0D901AA0FBB1FA20FB31FA45956
:10045000BF4F0D90BC91A02D4C912E2F30E0F90193
:10046000EE0FFF1FE20FF31FE459FF4F228102C07E
:10047000880F991F2A95E2F78095909584238C9395
:10048000E091D301A091D3018A2F90E0DC01AA0F63
:10049000BB1FA80FB91FAC57BF4F0D90BC91A02D2B
:1004A0002C918E2F90E0FC01EE0FFF1FE80FF91F3B
:1004B000EC57FF4F328181E090E001C0880F3A9500
:1004C000EAF7822B8C938091D1018F5F8093D101C9
:1004D000883058F01092D1018091D3018F5F8093C2
:1004E000D301843010F01092D301FF91EF91BF91AE
:1004F000AF919F918F917F916F915F914F913F91BC
:100500002F910F900FBE0F901F901895AA98A29A46
:1005100078948FEB93E00197F1F700C00000F89416
:10052000A29890EA9A95F1F783B37894E7E4F3E020
:100530003197F1F700C00000F89484700895AA98EC
:10054000A29A92E09A95F1F700C08111A29878944E
:1005500080EA8A95F1F7F894A2980895AA98A29A49
:1005600082E08A95F1F700C0A29895E29A95F1F79A
:10057000000083B3789498E79A95F1F7F89482FB9A
:10058000882780F90895CF93DF93D82FC8E08D2F67
:100590008170D5DFD695C150D1F7DF91CF91089505
:1005A000CF93DF93D8E0C0E0D9DF20E8829FC0017D
:1005B0001124C695C82BD150B9F78C2FDF91CF915C
:1005C0000895CF92DF92EF92FF920F931F93CF93F4
:1005D000DF93CDB7DEB729970FB6F894DEBF0FBE15
:1005E000CDBF8091D201882359F08091D90190919B
:1005F000DA018137914010F01092D2018EE706C0E7
:10060000F89484DF882389F078948FE729960FB6D1
:10061000F894DEBF0FBECDBFDF91CF911F910F9138
:10062000FF90EF90DF90CF9008958CECACDF8EEBD5
:10063000AADF8E010F5F1F4F6E018AE0C80ED11C2A
:100640007801AEDFF80181938F01EC15FD05C9F744
:10065000789468E070E0C701E4D2998589133BC0C3
:100660006A81862F90E0982F88276981680F792FFB
:10067000711D072E000C880B990BB2DA20E030E0D8
:1006800040E85DE311DB6B017C01F8943FDF8111F1
:10069000BBCF8CEC78DF8EE476DF8FE174DF78946B
:1006A0008FEC97E00197F1F700C00000F8942EDF7F
:1006B0008111AACF8CEC67DF84E465DF7894109217
:1006C000DA011092D90181E08093D201C701B6010D
:1006D00059DA862F9BCFC12CD12C8EEFE82E82E4E5
:1006E000F82ED3CF6AE0E3D9292F30E1839FC001F0
:1006F0001124822B0895282F2F70982F9295977090
:10070000822F3AE0939F800D11240895C398C49AD4
:10071000BD9A30E020E090E0C39842E04A95F1F7BE
:1007200000C0AC01022E02C0559547950A94E2F72D
:1007300040FF0CC0C59AC39A42E04A95F1F700C049
:100740002F5F3F4F2830310539F70895C598F3CF13
:10075000BD98C59A30E020E080E061E070E0C39889
:10076000AB01022E01C0440F0A94EAF7B59B10C0FA
:10077000842B92E09A95F1F700C0C39A92E09A9583
:10078000F1F700C02F5F3F4F2830310541F7089542
:1007900040958423EECFC498C3980895BC9AC4981A
:1007A000BB9AC398BD980895CF93DF93EC0181E87D
:1007B000ADDFCEDFA0DF8883EEDF83E8A7DFC8DF11
:1007C0009ADF8983E8DF85E8A1DFC2DF8A83E3DF80
:1007D0008A81982F90729B83982F90789C8387FFB3
:1007E0001EC08F718A838A8186DF8A8387E88EDFC5
:1007F000AFDF81DF8E83CFDF89E888DFA9DF7BDF92
:100800008F83C9DF8BE882DFA3DF8D83C4DF8DE8B0
:100810007DDF9EDF70DF8887DF91CF91BCCF8F7344
:10082000E1CF1F93CF93DF93EC018EE86FDF80E081
:100830006DDFB1DF80E86ADF888154DF67DFABDF1F
:1008400082E864DF89814EDF61DFA5DF8A814ADFCC
:100850001B819C81192B182B84E858DF812F56DFD0
:100860009ADF86E853DF8E813DDF50DF94DF88E832
:100870004DDF8F8137DF4ADF8EDF8AE847DF8D81EA
:1008800045DF89DF8CE842DF88852CDF3FDFDF91A1
:10089000CF911F9180CFCF93C0E08F3130F4880F7C
:1008A0008F5334DF55DFC82F76DF8C2FCF9108951B
:1008B000CF93C62F8F3138F4805A880F27DF8C2FC3
:1008C00025DFCF9168CFCF9108951F93CF93DF930A
:1008D000182FEB01E0DF888381E0810FDCDF898363
:1008E00082E0810FD8DF8A8383E0810FD4DF8B839E
:1008F00084E0810FD0DF8C8385E0810FCCDF8D8396
:1009000086E0810FC8DF8E8387E0810FC4DF8F838D
:1009100088E0810FC0DF8887DF91CF911F91089514
:100920000F931F93CF93C82F8B01FB016081C0DF12
:10093000F801618181E08C0FBBDFF801628182E008
:100940008C0FB6DFF801638183E08C0FB1DFF80113
:10095000648184E08C0FACDFF801658185E08C0F49
:10096000A7DFF801668186E08C0FA2DFF8016781BE
:1009700087E08C0F9DDFF801608588E08C0FCF91B8
:100980001F910F9195CFFC01DB0180819C91890F14
:1009900080838C3330F091818C53808381E0890F88
:1009A0008183818111969C911197890F81838C336A
:1009B00030F092818C53818381E0890F8283828120
:1009C00012969C91890F8283883150F025819681FF
:1009D0008851828381E0820F858381E0890F86833D
:1009E0008581883010F081E085838781A82FB0E071
:1009F000A057BF4F2C919085823021F4392F33704E
:100A000009F42F5F3681231720F421E026838F5FBE
:100A1000878387818D3020F081E087839F5F908777
:100A20008085843608F010860895FC01DB01208162
:100A30009C91822F891B2917B0F5845C808391E0FB
:100A4000418111962C911197842F821B290F3327F6
:100A5000331F4217130654F5845C891B818391E090
:100A6000428112962C91842F821B290F3327331F2A
:100A700042171306FCF4885E891B828386818230CC
:100A8000E0F487818230E0F0815087839781A92F3D
:100A9000B0E0A057BF4F8C91923081F49085937055
:100AA00069F48F5F0BC0808390E0CACF891B81837C
:100AB00090E0D6CF891B8283089581508683089564
:100AC0008CE087838085882319F081508087DECF72
:100AD00083E6FCCF1F920F920FB60F9211242F9333
:100AE0008F939F93EF93FF938BB19CB1E0914E0155
:100AF000EF5FEF7120914D012E1799F08871E0930F
:100B00004E01F0E0EF5AFE4F908380934C01FF912D
:100B1000EF919F918F912F910F900FBE0F901F908B
:100B2000189582E0F2CF1F920F920FB60F92112408
:100B30008F939F93EF93FF939091500180914F017A
:100B40009817A1F0E0914F01EF5FEF73E0934F0131
:100B5000F0E0EF58FE4F80818CB9FF91EF919F91AB
:100B60008F910F900FBE0F901F9018955598F5CF4D
:100B70001092500110924F0110924E0110924D01AF
:100B800097FF03C022E02BB99F7790BD89B988E910
:100B90008AB986E880BD089590914E0180914D01FB
:100BA000981799F0E0914D01EF5FEF71E0934D01DF
:100BB000F0E0EF5AFE4F208190914C01892F90E098
:100BC000982F8827820F911D089580E091E0089565
:100BD000909150019F5F9F7320914F012917E1F37E
:100BE000E92FF0E0EF58FE4F808390935001559A23
:100BF0000895CF93DF93EC018991811103C0DF91B8
:100C0000CF910895E5DFF8CFCF93DF93EC01FE019C
:100C100084912196811103C0DF91CF910895D8DF8F
:100C2000F6CFFC01680F791F80E048E1E617F7076F
:100C300009F40895219198E0382F3227532F5170ED
:100C400030FD842786955111806826959150A1F733
:100C5000EDCF379A86B1866086B9089597B1907FB7
:100C600097B997B1892B87B9369A3699FECF24B1B7
:100C700035B181E02130324008F480E00895BA9A1D
:100C8000C29883E083BF8CE882BF89B7816089BF47
:100C900082E28FBD89E18EBD8FEF9FEF97BD86BD4C
:100CA00019BC18BC1092DB0184E68093D80108952A
:100CB0008CE882BF89B7816089BF089581E0809305
:100CC000DB01F6CF1092DB01F3CF1F920F920FB62C
:100CD0000F9211242F933F934F935F938F939F9382
:100CE0008CE882BF2091D8018FEF9FEF243639F036
:100CF0004FE852E0249FC001259F900D11242091C0
:100D0000DB012223F1F028B539B52817390780F423
:100D100088B599B5019699BD88BD9F918F915F91D6
:100D20004F913F912F910F900FBE0F901F901895EC
:100D300028B539B58217930740F488B599B501975E
:100D4000EACF88B599B5892BC1F789B78E7F89BF5E
:100D5000E4CFCF93DF93CDB7DEB769970FB6F894A2
:100D6000DEBF0FBECDBFBE9AC698A19AA99AA09A1F
:100D7000A89A33DA13DD83E390E0FADE6ADF7FDFDF
:100D800088E19FE00FB6F894A89581BD0FBE91BD94
:100D900090E080E014D8482E81E090E010D8082F31
:100DA0008DE090E00CD88093D80182E090E007D8E5
:100DB000E82E83E090E003D8D82E84E090E0FFD7BF
:100DC000882E19861A8685E090E0F9D7F82E86E0FD
:100DD00090E0F5D7982E87E090E0F1D7582E1C824E
:100DE0001D8288E090E0EBD78E871D861C8689E007
:100DF00090E0E5D78B871F868AE090E0E0D78E8B66
:100E00008BE090E0DCD78F8B8CE090E0D8D7182F68
:100E10006A897B8980E059DD7894A8988FE19EE407
:100E20000197F1F700C00000A89A9FEFE4E3FCE00F
:100E30009150E040F040E1F700C00000A8958C8997
:100E40009D89B2DC113009F49DC0123009F49EC0B6
:100E5000088F0FE7198E33243394212C712C612CC9
:100E60002FEF621A720AA895C30168EE73E038D6B4
:100E70005C01892B41F48C899D8996DC113019F431
:100E80008C899D89CFD96114710441F46A897B8969
:100E90008C899D89AE01455F5F4F53D9C30168E8D6
:100EA00073E11ED6892B09F044C04F89413609F001
:100EB00040C0EC89FD898281E816E0F0EC89FD896B
:100EC00082818E1528F0EC89FD898181D81690F0F9
:100ED000EC89FD8982818E1508F45EC0EC89FD895C
:100EE00081818D1508F458C0EC89FD8980818815B1
:100EF00008F452C0EC89FD8982818F15C8F0EC8915
:100F0000FD898281F81628F0EC89FD898181891597
:100F100078F0EC89FD898281F816F0F1EC89FD8981
:100F200081819816C8F1EC89FD8980818515A0F52D
:100F3000C5DEC30168EB7BE0D3D5892BE1F441DB4F
:100F40008F3761F5598D552389F1A9988FE19EE47A
:100F50000197F1F700C00000A99AEFE1FEE4319794
:100F6000F1F700C000001092D2010FE7198E123085
:100F700011F4802F92D92E89213621F50F37C9F42B
:100F8000C69820C08C899D894DD962CF8FE785D9BD
:100F90005FCF212C3C2C64CF95DECBCF8E3739F33D
:100FA0000F3711F4853519F3082FE1CFF1E0F98FF0
:100FB000DECF041514F4B69BC69A488D401714F47E
:100FC000B699DECFC32CAB28E9F486E047DEC82E05
:100FD0003816C1F05FE788E391E0515080409040BF
:100FE000E1F700C0000086E039DEC82E381651F067
:100FF000882341F0113079F1123089F1612F8CE0B2
:1010000090E0E5D6C9DD9C012227232B19F6332475
:101010003394320CE22DF0E0EF54FE4F8083EFE189
:10102000E31508F4B6CF432D4150550BFA01EF54A8
:10103000FE4F5F012081283011F02F37A9F4F1E035
:10104000F31508F0A6CF2A9488E0C2DD80E2C0DD67
:1010500088E0BEDD9FCF802F20D912E0CFCF8C89D2
:101060009D89E0D811E0CACFB3DDF50180818A30D7
:1010700009F018C38091B101833709F019C180913B
:10108000B201843709F010C58091B301813609F0AF
:101090000BC58091B401843709F006C58091B50174
:1010A000853709F001C58091B601833709F0FCC48A
:1010B0008AEA90E09EDDEC89FD8962E08681CFD7E7
:1010C0008EE286DDEC89FD8962E08781C8D78EE2F9
:1010D0007FDDEC89FD8962E08085C1D780E278DD23
:1010E000EC89FD89E581E150E73070F4F0E0E658E5
:1010F000F74F099406C0ABC0ADC0AFC0B1C0B3C01C
:10110000B5C081EB90E075DD8AEE90E072DDEC8990
:10111000FD8962E08281A3D78AE35ADDEC89FD89EB
:1011200062E081819CD78AE353DDEC89FD8962E02E
:10113000808195D783EF90E05CDD8E8549DD60E0AE
:101140008B858DD786EF90E054DD6889798980E0C2
:10115000BCDBE889F98962E0828181D78AE338DDE6
:10116000E889F98962E081817AD78AE331DDE8890B
:10117000F98962E0808173D789E22ADD8FEF90E000
:1011800038DD0F3709F075C088E091E032DD8BE083
:1011900091E02FDDB69B71C084E191E02ADDFE89EC
:1011A000F13609F46DC0FD3609F46EC088E210DD39
:1011B00060E0842D54D78DE20BDD60E0888D4FD741
:1011C00089E206DD8BE291E014DD8091DB0188236A
:1011D00009F45DC084E191E00CDD2F89213609F42A
:1011E00059C02D3609F45AC088E2F2DC62E08E2D37
:1011F00036D78AE3EDDC62E08D2D31D78AE3E8DC77
:1012000062E0882D2CD78DE2E3DC62E08F2D27D7BA
:101210008AE3DEDC62E0892D22D78AE3D9DC62E052
:10122000852D1DD789E2D4DC80E2D2DC60E080919C
:10123000D80115D785E2CCDC85E391E0DADC11300A
:1012400081F1123091F18FE990E0D3DC2AC288EB72
:1012500090E059CF80EC90E056CF8AEC90E053CFED
:1012600083ED90E050CF8AED90E04DCF83EE90E09B
:101270004ACF60E0802FF3D68ACF87E191E08ECF0E
:101280008BE191E0B6DC92CF82E291E0FBCF87E187
:1012900091E0A2CF8BE191E0ACDCA6CF82E291E0BD
:1012A000FBCF81E491E0A5DCCECF86E491E0FBCFDB
:1012B000843609F097C08091B201813609F0A6C347
:1012C0008091B301843709F0EFC38091B401853672
:1012D00009F0EAC38091B501803209F0E5C380913D
:1012E000B60180538A3008F0DFC38091B701805384
:1012F0008A3008F0D9C38091B8018E3209F0D4C386
:101300008091B90180538A3008F0CEC38091BA0130
:1013100080538A3008F0C8C38091BB018E3209F037
:10132000C3C38091BC0180538A3008F0BDC3809153
:10133000BD0180538A3008F0B7C38091BE0180326E
:1013400009F0B2C38091BF0180538A3008F0ACC36A
:10135000AC88BD8862E085E0D3D6F5018683EC8950
:10136000FD898681803220F0EC89FD892FE126837A
:10137000AC88BD8862E088E0C3D6F5018783EC893C
:10138000FD8987818D3020F0EC89FD898CE0878391
:10139000AC88BD8862E08BE0B3D6F5018087AC886D
:1013A000BD8861E08EE0ACD6F5018583EC89FD89CE
:1013B0008581883020F0EC89FD8927E025838C89A0
:1013C0009D892FDAEC89FD89AA89BB8989E0019082
:1013D0000D928A95E1F76A897B8980E0A1DA8DE92F
:1013E00090E033CF843709F008C18091B20189368B
:1013F00009F05AC38091B3018D3609F055C380912D
:10140000B401853609F050C38091B501803209F0EE
:101410004BC3B090B60180ED8B0D8A3008F0D0C080
:101420008091B70180538A3008F03EC38091B801A3
:101430008A3309F039C38091B90180538A3008F0AA
:1014400033C38091BA0180538A3008F02DC3809154
:10145000BB018A3309F028C38091BC0180538A30D4
:1014600008F022C38091BD0180538A3008F01CC36C
:101470008091BE01803209F06CC08091BF018B3237
:1014800019F08D3209F065C062E085E039D690919F
:10149000C00190539A3008F05CC09091C101905304
:1014A0009A3008F056C0EC89FD898283EC89FD8969
:1014B0008281883120F0EC89FD8947E14283AC8844
:1014C000BD8862E088E01CD6F5018183EC89FD8946
:1014D00081818C3320F0EC89FD892BE32183AC885A
:1014E000BD8862E08BE00CD6F5018083EC89FD8934
:1014F00080818C3320F0EC89FD892BE32083EC89FB
:10150000FD891482EC89FD8913828C899D8989D992
:10151000EC89FD89AA89BB8989E001900D928A95A1
:10152000E1F76A897B8980E0FBD9B090BF01BE8674
:1015300062E08FE0E5D58B878C3310F04BE34B876F
:101540006B2D88E090E043D46B8589E090E03FD438
:1015500046CFAC88BD8862E085E0D2D5F5018283B4
:10156000EC89FD898281883120F0EC89FD8927E1B1
:101570002283AC88BD8862E088E0C2D5F501818312
:10158000EC89FD8981818C3320F0EC89FD892BE386
:101590002183AC88BD8862E08BE0B2D5F501808301
:1015A000EC89FD8980818C3320F0EC89FD892BE367
:1015B0002083EC89FD891482EC89FD891382FFCE9A
:1015C0004BE2B41619F05DE2B5126EC28091B7011C
:1015D00080538A3008F068C28091B80180538A3005
:1015E00008F062C2BE8662E086E08AD58B878C33C3
:1015F00008F4A6CF8BE38B87A3CF883609F084C08D
:101600008091B201853609F04FC28091B3018136D5
:1016100009F04AC28091B401843709F045C2809133
:10162000B501803209F040C28091B60190ED980F6B
:101630009A3038F58091B70180538A3008F034C26F
:101640008091B8018D3209F02FC28091B901805389
:101650008A3008F029C28091BA0180538A3008F09C
:1016600023C262E085E04CD5482E62E088E048D590
:10167000888F642D90E080E0AAD3688D81E090E0AF
:1016800066CF8F3629F58091B7018E3671F46DE6FD
:101690008AE090E09CD3C69A8DE990E0AADA9DE6B4
:1016A0009E8B312C79DA232CAECC863609F0FCC126
:1016B0008091B801863609F0F7C16DE68AE090E0C6
:1016C00086D3C6988DE990E094DAEDE6EE8BE9CF0B
:1016D000813609F0E9C18091B701853709F0E4C18D
:1016E0008091B801843709F0DFC18091B9018F364C
:1016F00009F0DAC161E68AE090E069D38DE990E013
:1017000078DAF1E6FE8BCDCF8C3609F0CDC1809131
:10171000B201893609F0C8C18091B301873609F05A
:10172000C3C18091B401883609F0BEC18091B50172
:10173000843709F0B9C18091B601803209F0B4C193
:101740008091B70190ED980F9A3008F0E6C0909123
:10175000B80190539A3008F01FC19091B9019A33A3
:1017600009F01AC19091BA0190539A3008F014C14F
:101770009091BB0190539A3008F00EC19091BC013A
:101780009A3309F009C19091BD0190539A3008F045
:1017900003C19091BE0190539A3008F0FDC0909122
:1017A000BF019D3209F0F8C09091C00190539A306A
:1017B00008F0F2C09091C10190539A3008F0ECC04B
:1017C0009091C2019A3309F0E7C09091C301905300
:1017D0009A3008F0E1C09091C40190539A3008F01B
:1017E000DBC09091C5019A3309F0D6C09091C60133
:1017F00090539A3008F0D0C09091C70190539A301E
:1018000008F0CAC0B090C80162E086E079D4E82E42
:1018100062E089E075D4D82E62E08CE071D4882E25
:1018200062E08FE06DD4F82E62E082E169D4982EF8
:1018300062E085E165D42BE3291510F45BE3952E76
:1018400047E14F1510F447E1F42E5BE3581510F40F
:101850003BE3832E582E8BE3851510F42BE3522E99
:101860009BE39D1510F49BE3D92EE7E1EE1510F4F0
:1018700087E1E82EF0E2BF1237C08091C9018053A2
:101880008A3090F58091CA0180538A3068F5809142
:10189000CB0180538A3040F56E2D82E090E097D2E4
:1018A0006D2D83E090E093D2682D84E090E08FD29C
:1018B0006F2D85E090E08BD2692D86E090E087D295
:1018C000652D87E090E083D263E088E119D48093AE
:1018D000D801853618F024E62093D801E9D9609123
:1018E000D8018DE090E033CE6E2D82E090E06FD293
:1018F0006D2D83E090E06BD2682D84E090E067D29C
:101900006F2D85E090E063D2692D86E090E05FD294
:10191000652D87E090E05BD2C4CE8F3611F58091C3
:10192000B8018E3659F46DE68BE090E050D2C6D9FE
:101930008DE990E05ED94DE64F8BB3CE863609F047
:10194000B3C08091B901863609F0AEC06DE68BE078
:1019500090E03DD2B7D98DE990E04BD95DE65F8B41
:10196000A0CE8136C9F48091B801853709F09CC0BA
:101970008091B901843709F097C08091BA018F3600
:1019800009F092C061E68BE090E021D28DE990E011
:1019900030D981E68F8B85CE8C3609F085C0809159
:1019A000B801853609F080C08091B901863709F009
:1019B0007BC08091BA01853609F076C08091BB0169
:1019C0008C3609F071C08091BC01803209F06CC086
:1019D0008091BD0180538A3008F066C08091BE01BD
:1019E00080538A3008F060C08091BF0180538A30F4
:1019F00008F05AC063E08CE083D38093D801853629
:101A000008F46CCF94E69093D80168CF893609F03A
:101A10004BC08091B301833709F046C08091B40177
:101A2000803709F041C08091B5018C36E9F580918D
:101A3000B6018136C9F58091B7018937A9F5809142
:101A4000B801803289F58091B901843769F58091B8
:101A5000BA018936A1F48091BB018D3629F58091B8
:101A6000BC01853609F58C899D89DCD361E08CE069
:101A700090E0ADD18DE990E0BCD811E012CE853672
:101A800099F48091BB018D3679F48091BC01803747
:101A900059F4802F02D462E08CE090E098D18DE977
:101AA00090E0A7D812E0FDCD82EA90E0CECB991B62
:101AB00079E004C0991F961708F0961B881F7A9545
:101AC000C9F78095089587FB082E062687FD819526
:101AD00067FD6195ECDF0EF4919507FC8195089503
:101AE000AA1BBB1B51E107C0AA1FBB1FA617B70744
:101AF00010F0A61BB70B881F991F5A95A9F7809560
:101B00009095BC01CD010895052E97FB16F4009425
:101B10000FD057FD05D014D007FC02D046F408C002
:101B200050954095309521953F4F4F4F5F4F089509
:101B300090958095709561957F4F8F4F9F4F089539
:101B4000A1E21A2EAA1BBB1BFD010DC0AA1FBB1FC1
:101B5000EE1FFF1FA217B307E407F50720F0A21B33
:101B6000B30BE40BF50B661F771F881F991F1A94A0
:101B700069F760957095809590959B01AC01BD01CA
:101B8000CF01089570D088F09F5790F0B92F992712
:101B9000B751A0F0D1F0660F771F881F991F1AF078
:101BA000BA95C9F712C0B13081F077D0B1E008958D
:101BB00074C0672F782F8827B85F39F0B93FCCF30E
:101BC000869577956795B395D9F73EF4909580956E
:101BD000709561957F4F8F4F9F4F0895E89409C08E
:101BE00097FB3EF490958095709561957F4F8F4F50
:101BF0009F4F9923A9F0F92F96E9BB279395F69566
:101C0000879577956795B795F111F8CFFAF4BB0FE3
:101C100011F460FF1BC06F5F7F4F8F4F9F4F16C047
:101C2000882311F096E911C0772321F09EE8872FD1
:101C3000762F05C0662371F096E8862F70E060E08D
:101C40002AF09A95660F771F881FDAF7880F969506
:101C5000879597F9089557FD9058440F551F59F0EF
:101C60005F3F71F04795880F97FB991F61F09F3F89
:101C700079F087950895121613061406551FF2CFB2
:101C80004695F1DF08C0161617061806991FF1CF02
:101C900086957105610508940895E894BB27662729
:101CA0007727CB0197F908950BD078C069D028F039
:101CB0006ED018F0952309F05AC05FC01124EECF02
:101CC000CADFA0F3959FD1F3950F50E0551F629F97
:101CD000F001729FBB27F00DB11D639FAA27F00D85
:101CE000B11DAA1F649F6627B00DA11D661F829FAC
:101CF0002227B00DA11D621F739FB00DA11D621F91
:101D0000839FA00D611D221F749F3327A00D611DAD
:101D1000231F849F600D211D822F762F6A2F11248F
:101D20009F5750408AF0E1F088234AF0EE0FFF1FE2
:101D3000BB1F661F771F881F91505040A9F79E3F19
:101D4000510570F014C0AACF5F3FECF3983EDCF36E
:101D5000869577956795B795F795E7959F5FC1F756
:101D6000FE2B880F911D9695879597F9089597F901
:101D70009F6780E870E060E008959FEF80EC089531
:101D800000240A941616170618060906089500245A
:101D90000A9412161306140605060895092E0394D4
:101DA000000C11F4882352F0BB0F40F4BF2B11F448
:101DB00060FF04C06F5F7F4F8F4F9F4F0895E19981
:101DC000FECF9FBB8EBBE09A99278DB30895262F37
:101DD000E199FECF9FBB8EBBE09A01970DB2021630
:101DE00031F02DBB0FB6F894E29AE19A0FBE089538
:041DF000F894FFCF95
:101DF4003F065B4F666D7D077F6F633932000432A7
:101E040000023200073200053800073200033800B0
:101E140000320006380001350005350004350003A2
:101E2400001F1C1F1E1F1E1F1F1E1F1E1F4F4B0D9A
:101E34000A004552524F520D0A00446174653A201B
:101E4400004D6F6E64617900547565736461790047
:101E54005765646E65736461790054687572736460
:101E640061790046726964617900536174757264C2
:101E740061790053756E646179000D0A54696D656A
:101E84003A20002028002073656320617420000D2F
:101E94000A54656D703A20002D2D000D0A486561C5
:101EA400743A20004F4E004F464600206175746F0F
:101EB4002000206D616E75616C20000D0A4C69670D
:101EC40068743A20000D0A446973706C61793A2091
:0C1ED4000074696D650074656D7000009D
:00000001FF
