:1000000012C02CC02BC02AC06DC228C027C026C079
:1000100025C024C023C056C67EC620C01FC01EC037
:100020001DC01CC01BC011241FBECFE5D4E0DEBF25
:10003000CDBF11E0A0E6B0E0EEE3FEE102C0059026
:100040000D92A634B107D9F721E0A6E4B1E001C0D2
:100050001D92A13BB207E1F7F3D6EFCED1CFCF92FD
:10006000DF92EF92FF92CF93C82F87FF02C08DE2FD
:10007000A6D6CC2E0C2E000CDD08EE08FF08F7FEED
:1000800008C0F094E094D094C094C11CD11CE11C31
:10009000F11C84E6C816D104E104F10414F081E3F4
:1000A0008ED6C701B60124E630E040E050E019DD0D
:1000B0002AE030E040E050E014DD80E3820F7FD69C
:1000C0008C2F6AE001DD80E3890FCF91FF90EF90E4
:1000D000DF90CF9074C6E82FF0E0E557FE4F80E048
:1000E00090E03AE0961301C008952191839F200D7E
:1000F0001124822F80539F5FF5CF882319F08DE95B
:1001000090E06EC682EA90E0FCCF8062089590EDA8
:10011000980F81E09A3008F080E008954F925F9246
:100120006F927F928F929F92AF92BF92EF92FF92C7
:100130000F931F93CF93DF93CDB7DEB72E970FB6F4
:10014000F894DEBF0FBECDBF8C017B01BE016F5F97
:100150007F4F80E043D4BE016F5F7F4FC801EDD475
:100160004B015C0182E088169104A104B1040CF4F7
:1001700060C0412C512C32014394F70183818B32B2
:1001800009F44FC08D3209F450C0FFEF4F1A5F0AD7
:100190006F0A7F0A84149504A604B70471F7C80196
:1001A000C8D3F801808589878781888786818F8376
:1001B00085818E8388E18C871B861A86BE01665FE7
:1001C0007F4FCE01019625D5BE016F5F7F4F80E046
:1001D00030D4F80192818B81891760F098132EC07A
:1001E00091818A81891730F0981328C09081898184
:1001F000891720F5F70183818B32A9F18D32B9F18E
:10020000C80197D3F801808589878781888786818F
:100210008F8385818E83BE016F5F7F4F80E009D41D
:100220000DC0B701C801A4D4B0CFB701C801F1D443
:10023000ACCF8A9489288A288B2859F22E960FB63B
:10024000F894DEBF0FBECDBFDF91CF911F910F910C
:10025000FF90EF90BF90AF909F908F907F906F90A6
:100260005F904F900895B701C80182D4C9CFB701FC
:10027000C801CFD4C5CF88B38F6388BB87B38F63E2
:1002800087BB85B38F6085BB84B38F6084BB82B32B
:10029000806C82BB81B3806C81BB85B5826085BD7B
:1002A00014BC89B7806489BF1092AC011092AB0175
:1002B000EDEAF1E080E48083818382838383089583
:1002C0000F931F93CF93DF93CDB7DEB729970FB668
:1002D000F894DEBF0FBECDBF09831A832B833C8306
:1002E0004D835E836F83788789873AE0812F632F00
:1002F000DFDBE92FF0E0E05AFF4F90819093AD01F2
:10030000E82FF0E0E05AFF4F80818093AE01822F0A
:10031000CFDBE92FF0E0E05AFF4F90819093AF01DF
:100320002A30D0F41092B001898180FF0AC08091F8
:10033000AF0180688093AF018091B00180688093A5
:10034000B00129960FB6F894DEBF0FBECDBFDF9186
:10035000CF911F910F910895E82FF0E0E05AFF4FE1
:1003600080818093B001E0CF4F925F926F927F9235
:100370008F929F92AF92BF92CF92DF92EF92FF92B5
:100380004B015C015DDC6B017C0122E538E34EED45
:1003900052ECC501B401EFDB811108C01092AD0130
:1003A00080E48093AE018093AF0122C0D701C601E3
:1003B0000996A11DB11D4397A105B105E0F4109266
:1003C000AD01D701C601F7FE07C088279927DC01D8
:1003D0008C199D09AE09BF09805A9F4FFC0180818D
:1003E0008093AE01F7FE02C080E4DDCF1092AF0132
:1003F0001092B0012EC0D701C6018D599F4FAF4F4B
:10040000BF4F873C9105A105B10580F51092AD0164
:10041000C701B601F7FE07C066277727CB016C1925
:100420007D098E099F092AE030E040E050E059DB69
:10043000605A7F4FFB0180818093AE01205A3F4F6D
:10044000F90180818093AF01F7FED2CF80E48093E1
:10045000B001FF90EF90DF90CF90BF90AF909F9052
:100460008F907F906F905F904F900895F7FE08C037
:10047000F094E094D094C094C11CD11CE11CF11CF8
:100480008AE0482E512C612C712CC701B601A301C2
:10049000920127DB605A7F4FFB0180818093AD0181
:1004A00094E6892E912CA12CB12CC701B601A5018F
:1004B000940117DBA301920114DB205A3F4FF9018D
:1004C00080818093AE01C701B60128EE33E040E0A1
:1004D00050E007DBA501940104DB205A3F4FF901EE
:1004E000808161CF1F920F920FB60F9211242F932C
:1004F0003F934F935F936F937F938F939F93AF93AC
:10050000BF93EF93FF93E4E8F0E041E050E0A08177
:10051000B1812C918281BA0102C0660F771F8A9542
:10052000E2F7CB01809582238C93339670E0E0391B
:10053000F70769F7ECE6F0E081E090E0A081B18197
:100540002C913281AC0101C0440F3A95EAF7242B7B
:100550002C93339620E0E438F20781F7E091AC0168
:10056000F0E0E355FE4F20814091AB0130E002C046
:10057000359527954A95E2F720FF24C0E091AB011D
:10058000A091AB012A2F30E0D901AA0FBB1FA20F07
:10059000B31FA459BF4F0D90BC91A02D4C912E2F8D
:1005A00030E0F901EE0FFF1FE20FF31FE459FF4F98
:1005B000228102C0880F991F2A95E2F780959095B5
:1005C00084238C93E091AC01A091AC018A2F90E040
:1005D000DC01AA0FBB1FA80FB91FAC57BF4F0D906E
:1005E000BC91A02D2C918E2F90E0FC01EE0FFF1FEF
:1005F000E80FF91FEC57FF4F328181E090E001C016
:10060000880F3A95EAF7822B8C938091AB018F5F2C
:100610008093AB01883058F01092AB018091AC010F
:100620008F5F8093AC01843010F01092AC01FF9189
:10063000EF91BF91AF919F918F917F916F915F915A
:100640004F913F912F910F900FBE0F901F901895D3
:1006500093988B9A78948FEB93E00197F1F700C011
:100660000000F8948B9890EA9A95F1F780B378940B
:10067000E7E4F3E03197F1F700C00000F8948870E8
:10068000089593988B9A92E09A95F1F700C08111A2
:100690008B98789480EA8A95F1F7F8948B9808956E
:1006A00093988B9A82E08A95F1F700C08B9895E237
:1006B0009A95F1F7000080B3789498E79A95F1F74E
:1006C000F89483FB882780F90895CF93DF93D82F80
:1006D000C8E08D2F8170D5DFD695C150D1F7DF915D
:1006E000CF910895CF93DF93D8E0C0E0D9DF20E821
:1006F000829FC0011124C695C82BD150B9F78C2F09
:10070000DF91CF910895CF92DF92EF92FF920F93F6
:100710001F93CF93DF93CDB7DEB729970FB6F89429
:10072000DEBF0FBECDBFF89493DF882331F07894FD
:1007300062E578E38EED92EC4EC08CECC6DF8EE481
:10074000C4DF80E0C2DF80E0C0DF8FE1BEDF80DF9A
:100750008111EDCF8CECB9DF84E4B7DF78942FE71B
:100760008BE492E0215080409040E1F700C000000F
:10077000F89496DF8823D9F26BDF8111D8CF8CEC07
:10078000A4DF8EEBA2DF8E010F5F1F4F6E01EAE048
:10079000CE0ED11C7801A6DFF80181938F01EC15F4
:1007A000FD05C9F7789468E070E0C70131D39985F9
:1007B0008913BECF6A8170E0762F66278981680F22
:1007C000711D072E000C880B990BDBD920E030E05F
:1007D00040E85DE365DA29960FB6F894DEBF0FBEF8
:1007E000CDBFDF91CF911F910F91FF90EF90DF90E0
:1007F000CF9008956AE05CD9292F30E1839FC00132
:100800001124822B0895282F2F70982F929597707E
:10081000822F3AE0939F800D11240895C698959AEF
:10082000BF9A20E030E090E0C69842E04A95F1F7A8
:1008300000C0AC01022E02C0559547950A94E2F71C
:1008400040FF0CC0C79AC69A42E04A95F1F700C033
:100850002F5F3F4F2830310539F70895C798F3CF00
:10086000BF98C79A20E030E080E061E070E0C69871
:10087000AB01022E01C0440F0A94EAF7B79B10C0E7
:10088000842B92E09A95F1F700C0C69A92E09A956F
:10089000F1F700C02F5F3F4F2830310541F7089531
:1008A00040958423EECF9598C69808958D9A959893
:1008B000BE9AC698BF980895CF93DF93EC0181E864
:1008C000ADDFCEDFA0DF8883EEDF83E8A7DFC8DF00
:1008D0009ADF8983E8DF85E8A1DFC2DF8A83E3DF6F
:1008E0008A81982F90729B83982F90789C8387FFA2
:1008F0001EC08F718A838A8186DF8A8387E88EDFB4
:10090000AFDF81DF8E83CFDF89E888DFA9DF7BDF80
:100910008F83C9DF8BE882DFA3DF8D83C4DF8DE89F
:100920007DDF9EDF70DF8887DF91CF91BCCF8F7333
:10093000E1CF1F93CF93DF93EC018EE86FDF80E070
:100940006DDFB1DF80E86ADF888154DF67DFABDF0E
:1009500082E864DF89814EDF61DFA5DF8A814ADFBB
:100960001B819C81192B182B84E858DF812F56DFBF
:100970009ADF86E853DF8E813DDF50DF94DF88E821
:100980004DDF8F8137DF4ADF8EDF8AE847DF8D81D9
:1009900045DF89DF8CE842DF88852CDF3FDFDF9190
:1009A000CF911F9180CFCF938F3148F4880F8F5311
:1009B00035DF56DFC82F77DF8C2FCF910895C0E049
:1009C000FBCFCF93C62F8F3138F4880F805426DFAA
:1009D0008C2F24DFCF9167CFCF9108951F93CF93B2
:1009E000DF93182FEB01DFDF888381E0810FDBDFEE
:1009F000898382E0810FD7DF8A8383E0810FD3DF91
:100A00008B8384E0810FCFDF8C8385E0810FCBDF88
:100A10008D8386E0810FC7DF8E8387E0810FC3DF80
:100A20008F8388E0810FBFDF8887DF91CF911F918F
:100A300008950F931F93CF93C82F8B01FB01608103
:100A4000C0DFF801618181E08C0FBBDFF8016281BA
:100A500082E08C0FB6DFF801638183E08C0FB1DF99
:100A6000F801648184E08C0FACDFF801658185E0DA
:100A70008C0FA7DFF801668186E08C0FA2DFF801FA
:100A8000678187E08C0F9DDFF801608588E08C0F1F
:100A9000CF911F910F9195CFCF92DF92EF92FF925E
:100AA0000F931F93FC014085042F10E08DE691E029
:100AB000089F6001099FD00C189FD00C11240D2CA9
:100AC000000CEE08FF08442381F001501109159530
:100AD0000795159507950F5F1F4F012E000C220BF0
:100AE000330BC00ED11EE21EF31E3781A1E9B0E028
:100AF00021E0542F5370231770F02681C701B601EF
:100B0000620F711D811D911D1F910F91FF90EF903C
:100B1000DF90CF9008951D91C10ED11CE11CF11CF6
:100B2000223049F4442311F0511105C08FEFC81A47
:100B3000D80AE80AF80A2F5FDECFCF92DF92EF9251
:100B4000FF92CF93DF93EB01A7DF6B017C01CE0116
:100B5000A3DFA7019601261B370B480B590BCA01CF
:100B6000B901DF91CF91FF90EF90DF90CF90089582
:100B7000FC01DB0180819C91890F8C33A8F5808377
:100B8000818111969C911197890F8C3398F58183FF
:100B9000828112969C91890F883190F5828385819C
:100BA000883010F081E085838781A82FB0E0A057BE
:100BB000BF4F2C919085823021F4392F337009F486
:100BC0002F5F3681231720F421E026838F5F8783F0
:100BD00087818D3020F081E087839F5F90878085BB
:100BE000843608F0108608958C53808381818F5F4E
:100BF0008183C6CF8C53818382818F5F8283C8CFEC
:100C00008851828385818F5F858386818F5F86830C
:100C1000C6CFFC01DB0120819C91822F891B291703
:100C2000D0F5845C808391E0818111964C9111977D
:100C3000682F70E0292F30E0240F311D841B6217CC
:100C4000730764F5845C891B818391E0828112962D
:100C50004C91682F70E0292F30E0240F311D841B48
:100C600062177307FCF4885E891B82838681823059
:100C7000E0F487818230E0F0815087839781A92F4B
:100C8000B0E0A057BF4F8C91923081F49085937063
:100C900069F48F5F0BC0808390E0C6CF891B81838E
:100CA00090E0D4CF891B8283089581508683089574
:100CB0008CE087838085882319F081508087DECF80
:100CC00083E6FCCF1F920F920FB60F9211242F9341
:100CD0008F939F93EF93FF938BB19CB18871E091B9
:100CE0004801EF5FEF7120914701E21791F0E09327
:100CF0004801F0E0E55BFE4F908380934601FF9151
:100D0000EF919F918F912F910F900FBE0F901F9099
:100D1000189582E0F2CF1F920F920FB60F92112416
:100D20008F939F93EF93FF9390914A018091490194
:100D30009817A1F0E0914901EF5FEF71E09349014D
:100D4000F0E0E559FE4F80818CB9FF91EF919F91C2
:100D50008F910F900FBE0F901F9018955598F5CF5B
:100D600010924A01109249011092480110924701D5
:100D700097FF03C022E02BB99F7790BD89B988E91E
:100D80008AB986E880BD0895909148018091470115
:100D9000981791F0E0914701EF5FEF71E093470101
:100DA000F0E0E55BFE4F20818091460190E0982FB6
:100DB0008827820F911D089580E091E00895909119
:100DC0004A019F5F9F71209149019217E1F3E92F3A
:100DD000F0E0E559FE4F808390934A01559A0895BB
:100DE000CF93DF93EC018991811103C0DF91CF9103
:100DF0000895E5DFF8CFCF93DF93EC01FE018491F6
:100E00002196811103C0DF91CF910895D8DFF6CFED
:100E1000FC01680F791F80E048E1E617F70709F445
:100E20000895219198E0382F3227532F517030FDCB
:100E3000842786955111806826959150A1F7EDCFB2
:100E4000CF93DF93CDB7DEB7A8970FB6F894DEBF88
:100E50000FBECDBF80E090E0D7D7882E81E090E034
:100E6000D3D7982E82E090E0CFD7A82E83E090E0F1
:100E7000CBD7B82E84E090E0C7D7C82E85E090E0AD
:100E8000C3D7D82E86E090E0BFD78D8F87E090E063
:100E9000BBD78C8F88E090E0B7D78E8B1D8A89E016
:100EA00090E0B2D78C8B8AE090E0AED78B8B1F8A14
:100EB0008BE090E0A9D7898F8CE090E0A5D78A8F4E
:100EC0008DE090E0A1D7888FA59AAD98A49AAC98B0
:100ED000D2D9ECDC83E390E043DF9FE088E10FB6FA
:100EE000F894A89581BD0FBE91BD789481E9482EF4
:100EF00055245A94652C752C22E52E8F38E33F8FAC
:100F00004EED48A352EC59A31B8E81E08EA3212CF9
:100F1000A895CE010A96D0DCBE016D5E7F4FCE0152
:100F20000A96FCD89A8D913609F05AC02C8530E08B
:100F3000A0E1BEE0F2D57B018C012B8530E0ACE373
:100F4000B0E0EBD56E0D7F1D801F911F2A857B01C0
:100F50008C01E20EF11C011D111D2A2D30E0A0E1D3
:100F6000BEE0DBD56AA37BA38CA39DA32B2D30E031
:100F7000ACE3B0E0D2D52AA13BA14CA15DA1620FA8
:100F8000731F841F951F6C0D711D811D911DE61629
:100F9000F7060807190708F443C02D2D30E0A0E13B
:100FA000BEE0BBD56AA37BA38CA39DA34D8D242F4C
:100FB00030E0ACE3B0E0B1D52AA13BA14CA15DA1EA
:100FC000620F731F841F951F3C8D630F711D811D60
:100FD000911D6E157F058007910710F19C9BAC9ABF
:100FE00092DBF62E372E8C0122E538E34EED52ECE3
:100FF000C2D5811119C04B8D4530B0F44F5F4B8F76
:10100000598D5136B9F522E538E34EED52EC6E8D2F
:101010007F8D88A199A1AFD5811112C0AD982AC04A
:101020009C9BDECFAC98DCCF6F2D732DC80108D60A
:101030002B013C01FE8E3F8E08A319A31B8EE0CF2F
:10104000882D082C000C990BAA0BBB0B48165906CF
:101050006A067B0614F49D9BAD9A892D092C000C21
:10106000990BAA0BBB0B84159505A605B70514F4BF
:101070009D99D4CF80B3829581708FA318A62EA19D
:10108000822F90E04FA158A54817590789F080B3E7
:10109000829581708EA3849B0BC0588D5130E9F0EE
:1010A000523011F481E0888F688D8DE090E0B4D6E5
:1010B000288D2130A9F02230F1F066DE8C01C801C4
:1010C0008827892BF1F04FEF50E782E041505040E4
:1010D0008040E1F700C000001BCF92E0988FE4CF82
:1010E0000A851B852C853D854E855F8568897989B4
:1010F0008A89E6D8E2CF6E8D7F8D88A199A134D9F7
:10110000DCCF802F5CDE33243394320CE22DF0E010
:10111000E557FE4F00833FE1331508F463C3E32D29
:10112000F0E0E657FE4F8081883039F441E0341614
:1011300009F44EC033243A94320CE32DF0E0E65724
:10114000FE4F80818A3009F0F8C180918B01806266
:10115000833709F00AC180918C018062843709F0DD
:10116000A5C180918D018062813609F09FC1809177
:101170008E018062843709F099C180918F0180626D
:10118000853709F093C1809190018062833709F01F
:101190008DC1888964D78EE212DE898960D78AEA98
:1011A00090E01EDE8A895BD780E209DEEF858E2F14
:1011B00090E0FC013197E730F10578F4EF51F74FFB
:1011C000099408C0A2C0A4C0A6C0A8C0AAC0ACC050
:1011D000312CB3CF8EEA90E003DE80E2F0DD8C8527
:1011E0003ED78AE3ECDD8B853AD78AE3E8DD8A8552
:1011F00036D787EE90E0F4DD8E89E1DD8C892FD73C
:101200008AE3DDDD8B892BD7BE016F5F7F4F80E0E6
:10121000E5DB80E2D4DD88E2D2DD8F8120D78EE26B
:10122000CEDD88851CD78AEA90E0DADD898517D77C
:1012300080E2C5DD8B8113D78AE3C1DD8A810FD7B8
:101240008AE3BDDD89810BD789E2B9DD8AEF90E0C1
:10125000C7DD22E538E34EED52EC6E8D7F8D88A11F
:1012600099A189D4811163C083E091E0B9DD86E062
:1012700091E0B6DD9D9B5EC08FE091E0B1DD598DC0
:10128000513609F45AC05D3609F45BC088E297DD37
:10129000882DE5D68DE293DD892DE1D689E28FDDBB
:1012A00086E291E09DDD9C9B4FC08FE091E098DD50
:1012B0008A8D813609F44BC08D3609F44CC088E222
:1012C0007EDD8A2DCCD68AE37ADD8B2DC8D68AE3E3
:1012D00076DD8C2DC4D68DE272DD8D2DC0D68AE3ED
:1012E0006EDD8D8DBCD68AE36ADD8C8DB8D689E241
:1012F00066DD80E391E074DD988D913079F1923074
:1013000089F18FE990E06CDD17C185EB90E064CF47
:101310008DEB90E061CF87EC90E05ECF80ED90E0C8
:101320005BCF87ED90E058CF80EE90E055CF842DD5
:1013300096D69DCF82E191E0A1CF86E191E050DD8C
:10134000A5CF8DE191E0FBCF82E191E0B0CF86E1C6
:1013500091E046DDB4CF8DE191E0FBCF8CE391E0ED
:101360003FDDCFCF81E491E0FBCF843609F065C04B
:1013700080918C0180628136A1F480918D01806220
:10138000843779F480918E018062853651F48091A2
:101390008F01803231F48091900180538A3008F4BB
:1013A00023C280918C018062893609F07FC08091D0
:1013B0008D01982F9062933709F0D1C190918E01E1
:1013C0009062903709F0CBC190918F0190629C366A
:1013D00009F0C5C1909190019062913609F0BFC1AA
:1013E000909191019062993709F0B9C19091920161
:1013F000903209F0B4C1909193019062943709F052
:10140000AEC1909194019062993609F0A8C1909173
:10141000950190629D3609F0A2C19091960190626B
:10142000953609F09CC161E08DE090E0F5D48DE93E
:1014300090E0D6DC21E0288F7FC08437D1F5809101
:101440008C01982F90629936A1F490918D01906251
:101450009D3679F490918E019062953651F4909179
:101460008F01903231F49091900190539A3008F4AA
:1014700009C280628936D1F480918D0180628D36F7
:10148000A9F480918E018062853681F480918F016C
:10149000803261F4109190011B3211F01D3231F451
:1014A0008091910180538A3008F423C282EA90E04F
:1014B0002ACF883609F09DC080918C01982F9062C8
:1014C0009536A1F490918D019062913679F49091C6
:1014D0008E019062943751F490918F01903231F4E3
:1014E0009091900190539A3008F430C28062853612
:1014F000E9F680918D01982F9062913611F59091C7
:101500008E0190629437E9F490918F019032C9F482
:101510009091900190629F36A1F490919101906218
:101520009E3679F46DE68BE090E076D4AD9A8DE945
:1015300090E056DC2DE6298F312C26DC8C01232C03
:10154000BECD982F9062913619F590918E019062E0
:101550009437F1F490918F019032D1F490919001F1
:1015600090629F36A9F4909191019062963681F431
:10157000909192019062963659F46DE68BE090E07E
:101580004BD4AD988DE990E02BDC3DE6398FD4CF7C
:101590008062813609F08ACF80918E018062843723
:1015A00009F084CF80918F01803209F07FCF809144
:1015B00090018062813609F079CF8091910180623B
:1015C000853709F073CF809192018062843709F0EA
:1015D0006DCF8091930180628F3609F067CF61E60D
:1015E0008BE090E019D48DE990E0FADB41E6498F79
:1015F000A3CF8C3609F0AFC080918C01982F9062F8
:101600009936C9F490918D0190629736A1F490912A
:101610008E019062983679F490918F0190629437A0
:1016200051F490919001903231F490919101905346
:101630009A3008F4B2C18062893609F037CF8091C0
:101640008D01982F9062973619F590918E019062D6
:101650009836F1F490918F0190629437C9F490918B
:1016600090019032A9F49091910190629F3681F49B
:101670009091920190629E3659F46DE68CE090E074
:10168000CBD3AC9A8DE990E0ABDB5DE65A8F54CFBB
:10169000982F9062973641F590918E01906298361E
:1016A00019F590918F0190629437F1F49091900127
:1016B0009032D1F49091910190629F36A9F490916B
:1016C00092019062963681F49091930190629636E1
:1016D00059F46DE68CE090E09FD3AC988DE990E0F2
:1016E0007FDB8DE68A8F28CF8062873609F0DECED9
:1016F00080918E018062883609F0D8CE80918F016A
:101700008062843709F0D2CE80919001803209F056
:10171000CDCE809191018062813609F0C7CE809153
:1017200092018062853709F0C1CE80919301806279
:10173000843709F0BBCE8091940180628F3609F026
:10174000B5CE61E68CE090E067D38DE990E048DBB0
:1017500091E69A8FF1CE843609F423CEA7CE80622B
:10176000833709F0A3CE80918E018062803709F023
:101770009DCE80918F0180628C3609F097CE80914A
:1017800090018062813609F091CE80919101806252
:10179000893709F08BCE80919201803209F086CE94
:1017A000809193018062843709F080CE809194010A
:1017B0008062853609F07ACE8091950180628D36FF
:1017C00009F074CE809196018062803709F06ECE68
:1017D00062E08DE090E020D38DE990E001DB32E023
:1017E000388FAACE212C6FCC8091910180538A3002
:1017F00008F0D7CD809192018E3209F0D2CD809140
:10180000930180538A3008F0CCCD809194018053AD
:101810008A3008F0C6CD809195018E3209F0C1CD95
:101820008091960180538A3008F0BBCD809197015A
:1018300080538A3008F0B5CD80919801803209F04C
:10184000B0CD8091990180538A3008F0AACD62E032
:1018500085E041D4888B62E088E03DD4898B62E0EA
:101860008BE039D48A8B61E08EE035D48F87CE014E
:101870000A965FD8BE01665F7F4F80E0DAD88DE9B7
:1018800090E041CD9091910190539A3008F0F1CDC4
:10189000909192019A3309F0ECCD9091930190537D
:1018A0009A3008F0E6CD9091940190539A3008F068
:1018B000E0CD909195019A3309F0DBCD909196019E
:1018C00090539A3008F0D5CD9091970190539A306B
:1018D00008F0CFCD62E085E0FED38C8762E088E03F
:1018E000FAD38B8762E08BE0F6D38A871E861D864B
:1018F000BECF8091920180538A3008F0D7CD80917D
:1019000093018A3309F0D2CD8091940180538A30BB
:1019100008F0CCCD8091950180538A3008F0C6CD77
:101920001E8B62E086E0D7D38C8B62E089E0D3D354
:101930008B8B612F88E090E06FD26C8989E090E01A
:101940006BD26B898AE090E067D299CF9091910138
:1019500090539A3008F0CACD909192019D3209F0CF
:10196000C5CD9091930190539A3008F0BFCD9091DE
:10197000940190539A3008F0B9CD62E085E0ABD382
:10198000882E62E088E0A7D3982E682D80E090E052
:1019900043D2692D81E090E0D7CF9091920190538E
:1019A0009A3008F048CE909193019A3309F043CED3
:1019B0009091940190539A3008F03DCE909195010A
:1019C00090539A3008F037CE909196019A3309F0EF
:1019D00032CE9091970190539A3008F02CCE90918E
:1019E000980190539A3008F026CE909199019D323B
:1019F00009F021CE90919A0190539A3008F01BCEB5
:101A000090919B0190539A3008F015CE90919C01D3
:101A10009A3309F010CE90919D0190539A3008F0BE
:101A20000ACE90919E0190539A3008F004CE909186
:101A30009F019A3309F0FFCD9091A00190539A3005
:101A400008F0F9CD9091A10190539A3008F0F3CDB0
:101A500062E086E040D3A82E62E089E03CD3B82E55
:101A600062E08CE038D3C82E62E08FE034D3D82E09
:101A700062E082E130D38D8F62E085E12CD38C8FE0
:101A80006A2D82E090E0C8D16B2D83E090E0C4D154
:101A90006C2D84E090E0C0D16D2D85E090E0BCD14C
:101AA0006D8D86E090E0B8D16C8D87E090E04CCFF2
:101AB000991B79E004C0991F961708F0961B881FA0
:101AC0007A95C9F78095089587FB082E062687FD2D
:101AD000819567FD6195ECDF0EF4919507FC81958A
:101AE0000895052E97FB16F400940FD057FD05D0EE
:101AF00020D007FC02D046F408C0509540953095A0
:101B000021953F4F4F4F5F4F089590958095709569
:101B100061957F4F8F4F9F4F0895A29FB001B39F54
:101B2000C001A39F01D0B29F700D811D1124911D92
:101B30000895A1E21A2EAA1BBB1BFD010DC0AA1F0E
:101B4000BB1FEE1FFF1FA217B307E407F50720F026
:101B5000A21BB30BE40BF50B661F771F881F991FA1
:101B60001A9469F760957095809590959B01AC01EA
:101B7000BD01CF01089540D008F481E00895E894B4
:101B800009C097FB3EF490958095709561957F4FC5
:101B90008F4F9F4F9923A9F0F92F96E9BB27939573
:101BA000F695879577956795B795F111F8CFFAF483
:101BB000BB0F11F460FF1BC06F5F7F4F8F4F9F4FB4
:101BC00016C0882311F096E911C0772321F09EE812
:101BD000872F762F05C0662371F096E8862F70E078
:101BE00060E02AF09A95660F771F881FDAF7880F52
:101BF0009695879597F90895990F0008550FAA0BA8
:101C0000E0E8FEEF16161706E807F907C0F012160F
:101C10001306E407F50798F0621B730B840B950B12
:101C200039F40A2661F0232B242B252B21F4089567
:101C30000A2609F4A140A6958FEF811D811D089504
:101C4000C2D058F19E5758F19851A0F0E9F0983061
:101C500020F5092E9927660F771F881F991F0A9470
:101C6000D1F712C0062E672F782F8827985F11F4BE
:101C7000000C07C0993FB4F38695779567959395C7
:101C8000D9F7611D711D811D3EF490958095709569
:101C900061957F4F8F4F9F4F08956894AFC0ADC03F
:101CA0000BD078C069D028F06ED018F0952309F0D9
:101CB0005AC05FC01124A2C07ED0A0F3959FD1F37B
:101CC000950F50E0551F629FF001729FBB27F00DEA
:101CD000B11D639FAA27F00DB11DAA1F649F66273F
:101CE000B00DA11D661F829F2227B00DA11D621F8E
:101CF000739FB00DA11D621F839FA00D611D221F48
:101D0000749F3327A00D611D231F849F600D211D2B
:101D1000822F762F6A2F11249F5750408AF0E1F0CE
:101D200088234AF0EE0FFF1FBB1F661F771F881F17
:101D300091505040A9F79E3F510570F014C05EC00D
:101D40005F3FECF3983EDCF3869577956795B79502
:101D5000F795E7959F5FC1F7FE2B880F911D96952C
:101D6000879597F9089597F99F6780E870E060E09C
:101D700008959FEF80EC089500240A941616170624
:101D800018060906089500240A941216130614066C
:101D900005060895092E0394000C11F4882352F0CF
:101DA000BB0F40F4BF2B11F460FF04C06F5F7F4F87
:101DB0008F4F9F4F089557FD9058440F551F59F06E
:101DC0005F3F71F04795880F97FB991F61F09F3F28
:101DD00079F087950895121613061406551FF2CF51
:101DE0004695F1DF08C0161617061806991FF1CFA1
:101DF00086957105610508940895E894BB276627C8
:101E00007727CB0197F90895E199FECF9FBB8EBB51
:101E1000E09A99278DB30895262FE199FECF9FBBB5
:101E20008EBBE09A01970DB2021631F02DBB0FB6B2
:0E1E3000F894E29AE19A0FBE0895F894FFCF5D
:101E3E003F305B79746D6F387F7D5C0F38000232F6
:101E4E000006350002380005380004380001350060
:101E5E00013500033800033800003200073500005A
:101E6E00001F1C1F1E1F1E1F1F1E1F1E1F4F4B0D50
:101E7E000A004552524F520D0A002E3230004D6F5D
:101E8E006E64617900547565736461790057656499
:101E9E006E6573646179005468757273646179005C
:101EAE004672696461790053617475726461790078
:101EBE0053756E646179000D0A54696D6520636F08
:101ECE007272656374696F6E20000D0A54656D70D1
:101EDE003A20002D2D000D0A486561743A20004FFE
:101EEE004E004F464600206175746F2000206D61D4
:101EFE006E75616C20000D0A4C696768743A20009B
:101F0E000D0A446973706C61793A200074696D65CD
:061F1E000074656D700007
:00000001FF
