:1000000019C033C032C031C06BC22FC02EC02DC04A
:100010002CC02BC02AC066C68EC627C026C025C0ED
:1000200024C023C022C0C4C8C6C8C8C8CAC8CCC857
:10003000CEC8D0C811241FBECFE5D4E0DEBFCDBFEF
:1000400011E0A0E6B0E0EEEBFDE102C005900D92FC
:10005000A634B107D9F721E0A6E4B1E001C01D92B2
:10006000A13BB207E1F7FED6A8CECACFCF92DF926E
:10007000EF92FF92CF93C82F87FF02C08DE2AFD6D9
:10008000CC2E0C2E000CDD08EE08FF08F7FE08C091
:10009000F094E094D094C094C11CD11CE11CF11CDC
:1000A00084E6C816D104E104F10414F081E397D684
:1000B000C701B60124E630E040E050E0D2DC2AE09F
:1000C00030E040E050E0CDDC80E3820F88D68C2F1A
:1000D0006AE0BADC80E3890FCF91FF90EF90DF9068
:1000E000CF907DC6E82FF0E0E557FE4F80E020E09E
:1000F000261751F03191880F982F990F990F890F7A
:100100008053830F2F5FF4CF08958DE990E078C678
:100110008062089590ED980F81E09A3008F080E0B9
:1001200008954F925F926F927F928F929F92AF92BB
:10013000BF92EF92FF920F931F93CF93DF93CDB7B0
:10014000DEB72E970FB6F894DEBF0FBECDBF8C0181
:100150007B01BE016F5F7F4F80E049D4BE016F5FBE
:100160007F4FC801F8D44B015C0182E088169104EE
:10017000A104B104B4F1412C512C32014394F70194
:1001800083818B3231F08D3239F4B701C8014FD5FC
:1001900003C0B701C801FAD4FFEF4F1A5F0A6F0A14
:1001A0007F0A84149504A604B70449F7C801BBD399
:1001B000F801808589878781888786818F838581FB
:1001C0008E8388E18C871B861A86BE01665F7F4F0F
:1001D000CE0101962CD5BE016F5F7F4F80E032D4F7
:1001E00005C08A9489288A288B2871F5F8019281A4
:1001F0008B81891760F0981327C091818A818917B4
:1002000030F0981321C0908189818917E8F4F701B3
:1002100083818B3231F08D3239F4B701C80107D5B3
:1002200003C0B701C801B2D4C8017DD3F8018085ED
:1002300089878781888786818F8385818E83BE01A8
:100240006F5F7F4F80E0FED32E960FB6F894DEBF2F
:100250000FBECDBFDF91CF911F910F91FF90EF9017
:10026000BF90AF909F908F907F906F905F904F90D6
:10027000089588B38F6388BB87B38F6387BB85B3CB
:100280008F6085BB84B38F6084BB82B3806C82BB7C
:1002900081B3806C81BB85B5826085BD14BC89B794
:1002A000806489BF1092AC011092AB01EDEAF1E0DD
:1002B00080E4808381838283838308950F931F93D7
:1002C000CF93DF93CDB7DEB729970FB6F894DEBF93
:1002D0000FBECDBF09831A832B833C834D835E837E
:1002E0006F83788789873AE0812F632FA1DBE92F1D
:1002F000F0E0E05AFF4F90819093AD01E82FF0E0DD
:10030000E05AFF4F80818093AE01822F91DBE92F6D
:10031000F0E0E05AFF4F90819093AF012A3018F43B
:100320001092B00107C0E82FF0E0E05AFF4F808143
:100330008093B001898180FF0AC08091AF018068FD
:100340008093AF018091B00180688093B0012996BD
:100350000FB6F894DEBF0FBECDBFDF91CF911F91D6
:100360000F9108954F925F926F927F928F929F921A
:10037000AF92BF92CF92DF92EF92FF924B015C015E
:100380001FDC6B017C0122E538E34EED52ECC50128
:10039000B401B1DB811106C01092AD0180E48093FD
:1003A000AE018DC0D701C6010996A11DB11D4397AD
:1003B000A105B105D0F41092AD01D701C601F7FE39
:1003C00007C088279927DC018C199D09AE09BF0950
:1003D000FC01E05AFF4F80818093AE01F7FE02C01E
:1003E00080E46DC01092AF016CC0D701C6018D5979
:1003F0009F4FAF4FBF4F873C9105A105B10520F539
:100400001092AD01C701B601F7FE07C06627772736
:10041000CB016C197D098E099F092AE030E040E08C
:1004200050E01FDBFB01E05AFF4F80818093AE015B
:10043000F901E05AFF4F80818093AF01F7FE41C080
:1004400080E48093B0013FC0F7FE08C0F094E094D0
:10045000D094C094C11CD11CE11CF11C8AE0482E30
:10046000512C612C712CC701B601A3019201F9DA5C
:10047000FB01E05AFF4F80818093AD0194E6892E05
:10048000912CA12CB12CC701B601A5019401E9DA88
:10049000A3019201E6DAF901E05AFF4F80818093CF
:1004A000AE01C701B60128EE33E040E050E0D9DAF2
:1004B000A5019401D6DAF901E05AFF4F80818093BB
:1004C000AF011092B001FF90EF90DF90CF90BF90FE
:1004D000AF909F908F907F906F905F904F90089516
:1004E0001F920F920FB60F9211242F933F934F93A9
:1004F0005F938F939F93AF93BF93EF93FF93E4E842
:10050000F0E041E050E0A081B1819C919A0102802D
:1005100002C0220F331F0A94E2F7822F80958923AD
:100520008C93339680E0E039F80769F7ECE6F0E069
:1005300041E050E0A081B1812C91CA01028002C04B
:10054000880F991F0A94E2F7822B8C93339680E0F0
:10055000E438F80779F7E091AC01F0E0E355FE4F9D
:1005600080812091AB0190E002C0959587952A95F6
:10057000E2F780FF25C08091AB012091AB0130E014
:10058000F901EE0FFF1F2E0F3F1FF901E459FF4F36
:10059000A081B1812C9190E0FC01EE0FFF1F8E0F26
:1005A0009F1FFC01E459FF4F81E090E0028002C0F0
:1005B000880F991F0A94E2F78095909582238C9377
:1005C0008091AC012091AC0130E0F901EE0FFF1FEA
:1005D0002E0F3F1FF901EC57FF4FA081B1812C91E5
:1005E00090E0FC01EE0FFF1F8E0F9F1FFC01EC57E8
:1005F000FF4F81E090E0028002C0880F991F0A94AB
:10060000E2F7822B8C938091AB018F5F8093AB01DB
:10061000883058F01092AB018091AC018F5F8093CD
:10062000AC01843010F01092AC01FF91EF91BF91BA
:10063000AF919F918F915F914F913F912F910F902B
:100640000FBE0F901F90189593988B9A78948FEB0C
:1006500093E00197F1F700C00000F8948B9890EABE
:100660009A95F1F780B37894E7E4F3E03197F1F7E6
:1006700000C00000F8948870089593988B9A92E0D7
:100680009A95F1F700C081118B98789480EA8A9549
:10069000F1F7F8948B98089593988B9A82E08A9555
:1006A000F1F700C08B9895E29A95F1F7000080B3BE
:1006B000789498E79A95F1F7F89483FB882780F966
:1006C0000895CF93DF93D82FC9E0C15029F08D2F23
:1006D0008170D3DFD695F9CFDF91CF910895CF9375
:1006E000DF93D9E0C0E0D15041F0D6DF20E8829F0F
:1006F000C0011124C695C82BF6CF8C2FDF91CF9166
:100700000895CF92DF92FF920F931F93CF93DF93C1
:10071000CDB7DEB72A970FB6F894DEBF0FBECDBFB8
:10072000F89492DF811119C08CECCBDF8EE4C9DF25
:1007300080E0C7DF80E0C5DF8FE1C3DF85DF8111A7
:100740000CC08CECBEDF84E4BCDF7894A5DF88238A
:10075000E9F3F89479DF882311F0789430C08CECB9
:10076000B0DF8EEBAEDF8E010F5F1F4F6E018AE0B0
:10077000C80ED11CF02E912F9A87B1DFF80181931A
:100780008F019A85EC15FD05B9F7789468E070E063
:100790008F2D4FD39985891312C06A8170E0762F0F
:1007A00066278981680F711D072E000C880B990B35
:1007B000A8D920E030E040E85DE332DA04C062E529
:1007C00078E38EED92EC2A960FB6F894DEBF0FBE5A
:1007D000CDBFDF91CF911F910F91FF90DF90CF9010
:1007E00008956AE025D9292F30E1839FC0011124A3
:1007F000822B0895382F3F70982F96959695969551
:100800009E70292F220F220F892F820F830F0895A8
:10081000C698959ABF9A20E030E090E0C69842E0F2
:100820004A95F1F700C0AC01022E02C055954795DC
:100830000A94E2F740FF02C0C79A01C0C798C69A5F
:1008400042E04A95F1F700C02F5F3F4F2830310555
:1008500029F70895BF98C79A20E030E080E061E072
:1008600070E0C698AB01022E01C0440F0A94EAF76B
:10087000B79B02C0842B02C04095842392E09A95D6
:10088000F1F700C0C69A92E09A95F1F700C02F5F89
:100890003F4F2830310529F708959598C698089557
:1008A0008D9A9598BE9AC698BF980895CF93DF9376
:1008B000EC0181E8ADDFCEDF9DDF8883EEDF83E8EA
:1008C000A7DFC8DF97DF8983E8DF85E8A1DFC2DF24
:1008D0008A83E3DF8A81982F90729B83982F907888
:1008E0009C83903811F48F7101C08F738A838A8141
:1008F00081DF8A8387E88CDFADDF7CDF8E83CDDF0D
:1009000089E886DFA7DF76DF8F83C7DF8BE880DFAC
:10091000A1DF8D83C2DF8DE87BDF9CDF6BDF888703
:10092000DF91CF91BACF1F93CF93DF93EC018EE885
:100930006FDF80E06DDFB1DF80E86ADF888151DF43
:1009400067DFABDF82E864DF89814BDF61DFA5DF32
:100950008A8147DF1B819C81192B182B84E858DF83
:10096000812F56DF9ADF86E853DF8E813ADF50DF32
:1009700094DF88E84DDF8F8134DF4ADF8EDF8AE83D
:1009800047DF8D8145DF89DF8CE842DF888529DFFD
:100990003FDFDF91CF911F9180CFCF93DF931F92E5
:1009A000CDB7DEB78F3140F4880F8F5331DF52DF80
:1009B000898373DF898101C080E00F90DF91CF913F
:1009C0000895CF93DF931F92CDB7DEB78F3158F4E0
:1009D000880F805469831CDF6981862F19DF0F908F
:1009E000DF91CF915ACF0F90DF91CF9108951F9350
:1009F000CF93DF93182FEB01D0DF888381E0810F45
:100A0000CCDF898382E0810FC8DF8A8383E0810F96
:100A1000C4DF8B8384E0810FC0DF8C8385E0810F8E
:100A2000BCDF8D8386E0810FB8DF8E8387E0810F86
:100A3000B4DF8F8388E0810FB0DF8887DF91CF91AB
:100A40001F9108950F931F93CF93C82F8B01FB0124
:100A50006081B7DFF801618181E08C0FB2DFF801BE
:100A6000628182E08C0FADDFF801638183E08C0F3F
:100A7000A8DFF801648184E08C0FA3DFF8016581B1
:100A800085E08C0F9EDFF801668186E08C0F99DF90
:100A9000F801678187E08C0F94DFF801608588E0BA
:100AA0008C0FCF911F910F918CCFCF92DF92EF924D
:100AB000FF920F931F93FC014085242F30E08DE6B9
:100AC00091E0289FB001299F700D389F700D11246F
:100AD0006B01770FEE08FF084423A9F0890101504C
:100AE000110917FF02C00D5F1F4F1595079515954A
:100AF00007950F5F1F4F012E000C220B330BC00E0A
:100B0000D11EE21EF31E3781A1E9B0E021E0542F8F
:100B10005370231790F41D91C10ED11CE11CF11CE0
:100B2000223049F4442311F0511105C08FEFC81A47
:100B3000D80AE80AF80A2F5FECCF2681C701B60170
:100B4000620F711D811D911D1F910F91FF90EF90FC
:100B5000DF90CF900895CF92DF92EF92FF92CF93E4
:100B6000DF93EB01A2DF6B017C01CE019EDFA701C9
:100B70009601261B370B480B590BCA01B901DF91AF
:100B8000CF91FF90EF90DF90CF900895FC01DB01B3
:100B900090818C91890F8C3310F4808305C08C5325
:100BA000808381818F5F8183918111968C911197D0
:100BB000890F8C3310F4818305C08C53818382812B
:100BC0008F5F8283928112968C91890F883110F405
:100BD000828308C08851828385818F5F8583868167
:100BE0008F5F86838581883010F081E085838781DF
:100BF000A82FB0E0A057BF4F2C919085823021F4F0
:100C0000392F337009F42F5F3681231720F421E048
:100C100026838F5F878387818D3020F081E08783F3
:100C20009F5F90878085843608F010860895FC01C8
:100C3000DB0180819C91891728F4845C891B808367
:100C400091E003C0891B808390E0818111962C91F3
:100C50001197682F70E0492F50E0420F511D641723
:100C6000750734F4845C821B891B818391E004C086
:100C7000821B891B818390E0828112962C91682FC0
:100C800070E0492F50E0420F511D641775074CF476
:100C9000885E821B891B82838681823030F081507E
:100CA0001FC0821B891B828308958781823018F0C0
:100CB0008150878309C08CE087838085882311F069
:100CC000815001C083E680879781A92FB0E0A057AB
:100CD000BF4F8C91923021F49085937009F48F5F0F
:100CE000868308951F920F920FB60F9211242F93AF
:100CF0008F939F93EF93FF938BB19CB18871E09199
:100D00004801EF5FEF7120914701E21739F0E0935E
:100D10004801F0E0E55BFE4F908301C082E08093E4
:100D20004601FF91EF919F918F912F910F900FBEF0
:100D30000F901F9018951F920F920FB60F921124CB
:100D40008F939F93EF93FF9390914A018091490174
:100D5000981761F0E0914901EF5FEF71E09349016D
:100D6000F0E0E559FE4F80818CB901C05598FF91A4
:100D7000EF919F918F910F900FBE0F901F9018953C
:100D800010924A01109249011092480110924701B5
:100D900097FF03C022E02BB99F7790BD89B988E9FE
:100DA0008AB986E880BD08959091480180914701F5
:100DB000981791F0E0914701EF5FEF71E0934701E1
:100DC000F0E0E55BFE4F20818091460190E0982F96
:100DD0008827820F911D089580E091E008959091F9
:100DE0004A019F5F9F71209149019217E1F3E92F1A
:100DF000F0E0E559FE4F808390934A01559A08959B
:100E0000CF93DF93EC018991882311F0E8DFFBCFCA
:100E1000DF91CF910895CF93DF93FC018491EF018F
:100E20002196882319F0DBDFFE01F8CFDF91CF9107
:100E30000895FC01680F791F80E048E1E617F70785
:100E400081F0219198E0382F3227532F517030FDD7
:100E500084278695513009F480682695915099F73A
:100E6000EDCF0895CF93DF93CDB7DEB7A8970FB638
:100E7000F894DEBF0FBECDBF80E090E085D7882E0E
:100E800081E090E081D7982E82E090E07DD7A82E77
:100E900083E090E079D7B82E84E090E075D7C82E33
:100EA00085E090E071D7D82E86E090E06DD78D8FE9
:100EB00087E090E069D78C8F88E090E065D78E8BD3
:100EC0001D8A89E090E060D78C8B8AE090E05CD747
:100ED0008B8B1F8A8BE090E057D7898F8CE090E056
:100EE00053D78A8F8DE090E04FD7888FA59AAD9821
:100EF000A49AAC98BED9D4DC83E390E041DF789427
:100F000081E9482E55245A94652C752C22E52E8FA4
:100F100038E33F8F4EED48A352EC59A31B8E81E07E
:100F20008EA3312CCE010A96C1DCBE016D5E7F4FCF
:100F3000CE010A96F6D89A8D913609F064C04B8599
:100F40002C8530E0A0E1BEE0A8D57B018C01242FE8
:100F500030E0ACE3B0E0A1D5DC01CB018E0D9F1DEC
:100F6000A01FB11F2A857C018D01E20EF11C011D1D
:100F7000111D2A2D30E0A0E1BEE08FD56AA37BA32E
:100F80008CA39DA32B2D30E0ACE3B0E086D52AA145
:100F90003BA14CA15DA1260F371F481F591FDA0145
:100FA000C9018C0D911DA11DB11DE816F9060A0796
:100FB0001B0738F12D2D30E0A0E1BEE06ED56AA30D
:100FC0007BA38CA39DA34D8D242F30E0ACE3B0E038
:100FD00064D52AA13BA14CA15DA1260F371F481F54
:100FE000591FDA01C9013C8D830F911DA11DB11D4F
:100FF0008E159F05A007B10720F09C9904C0AC9AFC
:1010000002C09C99AC987DDB262EF72E8C0122E540
:1010100038E34EED52EC6FD5811106C04B8D453053
:1010200018F44F5F4B8F0BC0622D7F2DC801C8D5C0
:101030002B013C012E8EFF8E08A319A31B8E598D08
:10104000513629F522E538E34EED52EC6E8D7F8D59
:1010500088A199A150D58823C9F0882D082C000CAF
:10106000990BAA0BBB0B481659066A067B0614F4AB
:101070009D9BAD9A892D092C000C990BAA0BBB0BDB
:1010800084159505A605B70514F49D99AD9880B310
:10109000829581708FA318A62EA1822F90E04FA178
:1010A00058A548175907A1F080B3829581708EA387
:1010B000849B0EC0588D513029F0523029F481E0C4
:1010C000888F02C092E0988F688D8DE090E064D6A2
:1010D000288D213041F0223081F46E8D7F8D88A1E2
:1010E00099A140D90AC00A851B852C853D854E856E
:1010F0005F85688979898A89E1D856DE9C01222733
:10110000232B09F07DC311E0130DE32DF0E0E5572B
:10111000FE4F8083103208F072C3E12FF0E0E657F3
:10112000FE4F8081883031F4113019F01FEF130D1C
:1011300001C010E0E12FF0E0E657FE4F80818A30D9
:1011400009F05AC380918B018062833709F0F3C0A4
:1011500080918C018062843709F04AC380918D01AF
:101160008062813609F044C380918E0180628437A9
:1011700009F03EC380918F018062853609F038C343
:10118000888974D78EE22BDE898970D782EA90E055
:1011900037DE8A896BD780E222DEEF858E2F90E0E2
:1011A000FC013197E730F105C0F4ED5EFF4F099483
:1011B00086EA90E011C08DEA90E00EC085EB90E0E9
:1011C0000BC08FEB90E008C088EC90E005C08FEC7E
:1011D00090E002C088ED90E013DE80E200DE8C85B6
:1011E00045D78AE3FCDD8B8541D78AE3F8DD8A8524
:1011F0003DD78FED90E004DE8E89F1DD8C8936D706
:101200008AE3EDDD8B8932D7BE016F5F7F4F80E0CF
:10121000EEDB80E2E4DD88E2E2DD8F8127D78EE23B
:10122000DEDD888523D782EA90E0EADD89851ED756
:1012300080E2D5DD8B811AD78AE3D1DD8A8116D78A
:101240008AE3CDDD898112D789E2C9DD82EF90E0A2
:10125000D7DD22E538E34EED52EC6E8D7F8D88A10F
:1012600099A149D4811104C08BEF90E0C9DD02C07F
:10127000842DFCD68EEF90E0C3DD9D9B03C087E0FC
:1012800091E002C08AE091E0BBDD398D313629F072
:101290003D3631F485E191E002C08EE091E0B0DDB1
:1012A00088E29DDD882DE2D68DE299DD892DDED69E
:1012B00089E295DD8EE191E0A3DD9C9B03C087E090
:1012C00091E002C08AE091E09BDD4A8D413629F031
:1012D0004D3631F485E191E002C08EE091E090DD81
:1012E00088E27DDD8A2DC2D68AE379DD8B2DBED6DC
:1012F0008AE375DD8C2DBAD68DE271DD8D2DB6D6E3
:101300008AE36DDD8D8DB2D68AE369DD8C8DAED634
:1013100089E265DD88E291E073DD588D513029F076
:10132000523031F489E391E002C084E391E068DD5A
:101330008FE990E05FC28436F9F480918C01982F98
:101340009062913609F0CFC190918D0190629437EF
:1013500009F0C9C190918E019062953609F0C3C120
:1013600090918F01903209F0BEC1909190019053FD
:101370009A3008F4A9C1B7C1843709F046C08091FA
:101380008C018062893609F033C280918D01982FDB
:1013900090629D36E9F490918E0190629536C1F489
:1013A00090918F019032A1F49091900190539A30D6
:1013B00078F49091910190539A3050F49091920169
:1013C0009A3331F49091930190539A3008F455C2B6
:1013D00080628D3609F00CC280918E018062853664
:1013E00009F006C280918F01803209F001C210918C
:1013F00090011B3219F01D3209F0FAC18091910160
:1014000080538A3008F4E5C1F3C1883609F0A2C0E0
:1014100080918C01982F9062953611F590918D01F5
:1014200090629136E9F490918E0190629437C1F404
:1014300090918F019032A1F49091900190539A3045
:1014400078F49091910190539A3050F490919201D8
:101450009D3231F49091930190539A3008F456C222
:101460008062853609F0C4C180918D01982F906209
:101470009136E1F490918E0190629437B9F4909195
:101480008F01903299F49091900190629F3671F49F
:101490009091910190629E3649F46DE68BE090E068
:1014A0007BD4AD9A32D68DE6898FA5C1982F9062F4
:1014B000913609F590918E0190629437E1F4909104
:1014C0008F019032C1F49091900190629F3699F40F
:1014D000909191019062963671F490919201906290
:1014E000963649F46DE68BE090E056D4AD980DD673
:1014F0009DE6998F80C18062813609F079C1809123
:101500008E018062843709F073C180918F0180322F
:1015100009F06EC1809190018062813609F068C146
:10152000809191018062853709F062C180919201BA
:101530008062843709F05CC18091930180628F36AC
:1015400009F056C161E68BE090E026D4DED521E6B5
:10155000298F51C18C3609F04BC180918C01982F95
:101560009062993639F590918D019062973611F518
:1015700090918E0190629836E9F490918F0190627B
:101580009437C1F4909190019032A1F4909191011F
:1015900090539A3078F49091920190539A3050F48D
:1015A000909193019A3331F49091940190539A3031
:1015B00008F4C2C18062893609F01AC180918D0198
:1015C000982F9062973609F590918E019062983627
:1015D000E1F490918F0190629437B9F49091900169
:1015E000903299F49091910190629F3671F49091AC
:1015F000920190629E3649F46DE68CE090E0CCD387
:10160000AC9A83D53DE63A8FF6C0982F9062973614
:1016100031F590918E019062983609F590918F0185
:1016200090629437E1F4909190019032C1F49091DE
:10163000910190629F3699F4909192019062963652
:1016400071F4909193019062963649F46DE68CE0C6
:1016500090E0A2D3AC9859D54DE64A8FCCC08062B9
:10166000873609F0C5C080918E018062883609F006
:10167000BFC080918F018062843709F0B9C080912A
:101680009001803209F0B4C080919101806281366E
:1016900009F0AEC0809192018062853709F0A8C040
:1016A000809193018062843709F0A2C080919401F7
:1016B00080628F3609F09CC061E68CE090E06CD3CC
:1016C00024D551E65A8F97C09091910190539A304A
:1016D00050F4909192019E3231F490919301905385
:1016E0009A3008F497C08062893609F081C08091F1
:1016F0008D01982F90629337A1F590918E019062A1
:10170000903779F590918F0190629C3651F59091C8
:1017100090019062913629F59091910190629937EC
:1017200001F5909192019032E1F4909193019062D1
:101730009437B9F4909194019062993691F4909114
:10174000950190629D3669F490919601906295366C
:1017500041F461E08DE090E01FD3D7D481E0888F21
:101760004AC08062833709F043C080918E01806255
:101770008037F1F580918F0180628C36C9F58091B8
:10178000900180628136A1F5809191018062893754
:1017900079F580919201803259F5809193018062B0
:1017A000843731F5809194018062853609F5809106
:1017B000950180628D36E1F48091960180628037D8
:1017C000B9F462E08DE090E0E7D29FD492E0988F88
:1017D00012C08091920180538A3050F4809193011D
:1017E0008A3331F48091940180538A3008F473C0B5
:1017F0008EE391E005DB10E0D7DA312E7FCC312C7F
:101800002FEF30E742E0215030404040E1F700C088
:10181000000088CB9091940190539A3008F063CFE8
:10182000909195019E3209F05ECF90919601905370
:101830009A3008F058CF9091970190539A3008F061
:1018400052CF90919801903209F04DCF909199012B
:1018500090539A3008F047CF62E085E043D4888BFC
:1018600062E088E03FD4898B62E08BE03BD48A8BD6
:1018700061E08EE037D48F8725C09091940190531A
:101880009A3008F0A5CD909195019A3309F0A0CD3A
:101890009091960190539A3008F09ACD90919701CB
:1018A00090539A3008F094CD62E085E01BD48C8789
:1018B00062E088E017D48B8762E08BE013D48A87DC
:1018C0001E861D86CE010A962ED8BE01665F7F4F0A
:1018D00080E0B8D8ABC08091950180538A3008F081
:1018E00087CF1E8B62E086E0FDD38C8B62E089E0BF
:1018F000F9D38B8B612F88E090E04ED26C8989E020
:1019000090E04AD26B898AE090E08FC09091940178
:1019100090539A3008F0A4CD62E085E0E3D3882E9E
:1019200062E088E0DFD3982E682D80E090E034D22A
:10193000692D81E090E079C09091950190539A30A3
:1019400008F038CE909196019A3309F033CE9091F9
:10195000970190539A3008F02DCE909198019053B2
:101960009A3008F027CE909199019D3209F022CE4D
:1019700090919A0190539A3008F01CCE90919B015F
:1019800090539A3008F016CE90919C019A3309F04A
:1019900011CE90919D0190539A3008F00BCE90910A
:1019A0009E0190539A3008F005CE90919F019A3392
:1019B00009F000CE9091A00190539A3008F0FACD32
:1019C0009091A10190539A3008F0F4CD62E086E046
:1019D00089D3A82E62E089E085D3B82E62E08CE03E
:1019E00081D3C82E62E08FE07DD3D82E62E082E101
:1019F00079D38D8F62E085E175D38C8F6A2D82E07B
:101A000090E0CAD16B2D83E090E0C6D16C2D84E0CC
:101A100090E0C2D16D2D85E090E0BED16D8D86E065
:101A200090E0BAD16C8D87E090E0B6D16ED3E3CE72
:101A3000991B79E004C0991F961708F0961B881F20
:101A40007A95C9F78095089587FB082E062687FDAD
:101A5000819567FD6195ECDF0EF4919507FC81950A
:101A60000895052E97FB16F400940FD057FD05D06E
:101A700020D007FC02D046F408C050954095309520
:101A800021953F4F4F4F5F4F0895909580957095EA
:101A900061957F4F8F4F9F4F0895A29FB001B39FD5
:101AA000C001A39F01D0B29F700D811D1124911D13
:101AB0000895A1E21A2EAA1BBB1BFD010DC0AA1F8F
:101AC000BB1FEE1FFF1FA217B307E407F50720F0A7
:101AD000A21BB30BE40BF50B661F771F881F991F22
:101AE0001A9469F760957095809590959B01AC016B
:101AF000BD01CF01089540D008F481E00895E89435
:101B000009C097FB3EF490958095709561957F4F45
:101B10008F4F9F4F9923A9F0F92F96E9BB279395F3
:101B2000F695879577956795B795F111F8CFFAF403
:101B3000BB0F11F460FF1BC06F5F7F4F8F4F9F4F34
:101B400016C0882311F096E911C0772321F09EE892
:101B5000872F762F05C0662371F096E8862F70E0F8
:101B600060E02AF09A95660F771F881FDAF7880FD2
:101B70009695879597F90895990F0008550FAA0B28
:101B8000E0E8FEEF16161706E807F907C0F0121690
:101B90001306E407F50798F0621B730B840B950B93
:101BA00039F40A2661F0232B242B252B21F40895E8
:101BB0000A2609F4A140A6958FEF811D811D089585
:101BC000C2D058F19E5758F19851A0F0E9F09830E2
:101BD00020F5092E9927660F771F881F991F0A94F1
:101BE000D1F712C0062E672F782F8827985F11F43F
:101BF000000C07C0993FB4F3869577956795939548
:101C0000D9F7611D711D811D3EF4909580957095E9
:101C100061957F4F8F4F9F4F08956894AFC0ADC0BF
:101C20000BD078C069D028F06ED018F0952309F059
:101C30005AC05FC01124A2C07ED0A0F3959FD1F3FB
:101C4000950F50E0551F629FF001729FBB27F00D6A
:101C5000B11D639FAA27F00DB11DAA1F649F6627BF
:101C6000B00DA11D661F829F2227B00DA11D621F0E
:101C7000739FB00DA11D621F839FA00D611D221FC8
:101C8000749F3327A00D611D231F849F600D211DAC
:101C9000822F762F6A2F11249F5750408AF0E1F04F
:101CA00088234AF0EE0FFF1FBB1F661F771F881F98
:101CB00091505040A9F79E3F510570F014C05EC08E
:101CC0005F3FECF3983EDCF3869577956795B79583
:101CD000F795E7959F5FC1F7FE2B880F911D9695AD
:101CE000879597F9089597F99F6780E870E060E01D
:101CF00008959FEF80EC089500240A9416161706A5
:101D000018060906089500240A94121613061406EC
:101D100005060895092E0394000C11F4882352F04F
:101D2000BB0F40F4BF2B11F460FF04C06F5F7F4F07
:101D30008F4F9F4F089557FD9058440F551F59F0EE
:101D40005F3F71F04795880F97FB991F61F09F3FA8
:101D500079F087950895121613061406551FF2CFD1
:101D60004695F1DF08C0161617061806991FF1CF21
:101D700086957105610508940895E894BB27662748
:101D80007727CB0197F90895E199FECF9FBB8EBBD2
:101D9000E09A99278DB30895262FE199FECF9FBB36
:101DA0008EBBE09A01970DB2021631F02DBB0FB633
:0E1DB000F894E29AE19A0FBE0895F894FFCFDE
:101DBE003F305B79746D6F387F7D5C0F3800023277
:101DCE0000063500023800053800043800013500E1
:101DDE0001350003380003380000320007350000DB
:101DEE00001F1C1F1E1F1E1F1F1E1F1E1F4F4B0DD1
:101DFE000A002E3230004D6F6E64617900547565A5
:101E0E0073646179005765646E657364617900541B
:101E1E006875727364617900467269646179005302
:101E2E00617475726461790053756E646179000D29
:101E3E000A54696D6520636F7272656374696F6EA3
:101E4E0020000D0A54656D703A20002D2D000D0AEC
:101E5E00486561743A20004F4E004F46460020619F
:101E6E0075746F2000206D616E75616C20000D0A17
:101E7E004C696768743A20000D0A446973706C618E
:101E8E00793A200074696D650074656D7000455275
:061E9E00524F520D0A0034
:00000001FF
