:1000000012C02CC02BC02AC0E2C128C027C026C005
:1000100025C07CC623C080C5A8C520C01FC01EC087
:100020001DC01CC01BC011241FBECFE5D4E0DEBF25
:10003000CDBF11E0A0E6B0E0E2EDFCE102C005902A
:100040000D92A034B107D9F721E0A0E4B1E001C0DE
:100050001D92A03BB207E1F79ED639CED1CFCF9209
:10006000DF92EF92FF92CF93DF93C82FD62F87FFB7
:1000700002C08DE2CED5CC2E0C2E000CDD08EE0891
:10008000FF08F7FE08C0F094E094D094C094C11C1F
:10009000D11CE11CF11C84E6C816D104E104F10472
:1000A00014F4D33050F0C701B60124E630E040E04C
:1000B00050E099DC80E3820FACD58AE0C816D10409
:1000C000E104F10414F4D23078F0C701B60124E65B
:1000D00030E040E050E087DC2AE030E040E050E0F3
:1000E00082DC80E3820F95D58C2F6AE05BDC80E3B5
:1000F000890FDF91CF91FF90EF90DF90CF9089C56E
:10010000E82FF0E0EB57FE4F80E090E03AE09613E6
:1001100001C008952191839F200D1124822F8053C7
:100120009F5FF5CF882319F08DE990E083C582EABF
:1001300090E0FCCF90ED980F81E09A3008F080E0DD
:1001400008950F931F93CF93DF93EC018B01BA01B6
:100150009885F8018085891760F0981339C09F81D0
:100160008781891730F0981333C09E818681891763
:1001700078F59A81F8018281891760F0981328C078
:1001800099818181891730F0981322C098818081EC
:100190008917F0F4FB0183818B32A1F08D32A9F035
:1001A000CE015DD38885F80180878F8187838E811A
:1001B00086838D818583B80180E0DF91CF911F9187
:1001C0000F91CDC3CE01FED3EBCFCE014CD4E8CFFF
:1001D000DF91CF911F910F91089588B3836888BBF9
:1001E00087B3836887BB85B3886385BB84B3886323
:1001F00084BB82B38C6F82BB81B38C6F81BB85B5AE
:10020000826085BD14BC89B7806489BF1092A70144
:100210001092A501E8EAF1E08FEF80838183828369
:1002200083830895DC0111968C9111973AE0632F36
:10023000ADDBE92FF0E0E05AFF4F90819093A801E9
:10024000E82FF0E0E05AFF4F80818093A9011296D9
:100250002C911297822F9ADBE92FF0E0E05AFF4FA2
:1002600090819093AA012A3080F41092AB018C9176
:1002700080FF0AC08091A80180688093A8018091C6
:10028000A90180688093A9010895E82FF0E0E05A61
:10029000FF4F80818093AB01EACF8F929F92AF9204
:1002A000BF92CF92DF92EF92FF92CF93C82F8F37FA
:1002B00041F41092A80180E48093A9018093AA01DF
:1002C00021C0C82E880FDD08EE08FF0889E08C0FDA
:1002D0008331D8F41092A801F7FE08C0F094E0949E
:1002E000D094C094C11CD11CE11CF11CF601E05A51
:1002F000FF4F80818093A901C7FF02C080E4DECF59
:100300001092AA011092AB0127C083E68C0F873CA4
:1003100068F51092A801C701B601F7FE07C09095D5
:100320008095709561957F4F8F4F9F4F2AE030E009
:1003300040E050E058DB605A7F4FFB0180818093A2
:10034000A901205A3F4FF90180818093AA01C7FF7C
:10035000D9CF80E48093AB01CF91FF90EF90DF90F5
:10036000CF90BF90AF909F908F900895F7FE08C0F8
:10037000F094E094D094C094C11CD11CE11CF11CF9
:100380008AE0882E912CA12CB12CC701B601A501C1
:10039000940129DB605A7F4FFB0180818093A80183
:1003A000C701B60124E630E040E050E01CDB690103
:1003B0007A01A501940117DB205A3F4FF901808192
:1003C0008093A901F601E05AFF4F808177CF1F92F9
:1003D0000F920FB60F9211242F933F934F935F9379
:1003E0006F937F938F939F93AF93BF93EF93FF93FD
:1003F0008091AD019091AE0101969093AE018093F2
:10040000AD01E4E8F0E041E050E0A081B1812C9141
:100410008281BA0102C0660F771F8A95E2F7CB018D
:10042000809582238C93339670E0E039F70769F763
:10043000ECE6F0E081E090E0A081B1812C91328186
:10044000AC0101C0440F3A95EAF7242B2C93339664
:1004500020E0E438F20781F7E091A701F0E0E855E9
:10046000FE4F20814091A50130E002C035952795CF
:100470004A95E2F720FF24C0E091A501A091A501D3
:100480002A2F30E0D901AA0FBB1FA20FB31FA45916
:10049000BF4F0D90BC91A02D4C912E2F30E0F90153
:1004A000EE0FFF1FE20FF31FE459FF4F228102C03E
:1004B000880F991F2A95E2F78095909584238C9355
:1004C000E091A701A091A7018A2F90E0DC01AA0F7B
:1004D000BB1FA80FB91FAC57BF4F0D90BC91A02DEB
:1004E0002C918E2F90E0FC01EE0FFF1FE80FF91FFB
:1004F000EC57FF4F328181E090E001C0880F3A95C0
:10050000EAF7822B8C938091A5018F5F8093A501E0
:10051000883058F01092A5018091A7018F5F8093D9
:10052000A701843010F01092A701FF91EF91BF91C5
:10053000AF919F918F917F916F915F914F913F917B
:100540002F910F900FBE0F901F901895AA98A29A06
:1005500078948FEB93E00197F1F700C00000F894D6
:10056000A29890EA9A95F1F783B37894E7E4F3E0E0
:100570003197F1F700C00000F89484700895AA98AC
:10058000A29A92E09A95F1F700C08111A29878940E
:1005900080EA8A95F1F7F894A2980895AA98A29A09
:1005A00082E08A95F1F700C0A29895E29A95F1F75A
:1005B000000083B3789498E79A95F1F7F89482FB5A
:1005C000882780F90895CF93DF93D82FC8E08D2F27
:1005D0008170D5DFD695C150D1F7DF91CF910895C5
:1005E000CF93DF93D8E0C0E0D9DF20E8829FC0013D
:1005F0001124C695C82BD150B9F78C2FDF91CF911C
:100600000895CF92DF92EF92FF920F931F93CF93B3
:10061000DF93CDB7DEB729970FB6F894DEBF0FBED4
:10062000CDBF8091A601882359F08091AD019091B2
:10063000AE018137914010F01092A6018EE706C0FE
:10064000F89484DF882389F078948FE729960FB691
:10065000F894DEBF0FBECDBFDF91CF911F910F91F8
:10066000FF90EF90DF90CF9008958CECACDF8EEB95
:10067000AADF8E010F5F1F4F6E018AE0C80ED11CEA
:100680007801AEDFF80181938F01EC15FD05C9F704
:10069000789468E070E0C701E5D29985891339C084
:1006A0006A8170E0762F66278981680F711D072E99
:1006B000000C880B990B03DA20E030E040E85DE3A2
:1006C00062DA6B017C01F89441DF8111BDCF8CECC3
:1006D0007ADF8EE478DF8FE176DF78948FEC97E035
:1006E0000197F1F700C00000F89430DF8111ACCF22
:1006F0008CEC69DF84E467DF78941092AE0110928D
:10070000AD0181E08093A601C701B601AAD9862F69
:100710009DCFC12CD12C8EEFE82E82E4F82ED3CFC2
:100720006AE034D9292F30E1839FC0011124822B44
:100730000895282F2F70982F92959770822F3AE066
:10074000939F800D11240895C398C49ABD9A20E008
:1007500030E090E0C39842E04A95F1F700C0AC0168
:10076000022E02C0559547950A94E2F740FF0CC04F
:10077000C59AC39A42E04A95F1F700C02F5F3F4FF8
:100780002830310539F70895C598F3CFBD98C59A3B
:1007900020E030E080E061E070E0C398AB01022E21
:1007A00001C0440F0A94EAF7B59B10C0842B92E075
:1007B0009A95F1F700C0C39A92E09A95F1F700C0BC
:1007C0002F5F3F4F2830310541F70895409584232E
:1007D000EECFC498C3980895BC9AC498BB9AC398A6
:1007E000BD980895CF93DF93EC0181E8ADDFCEDFB4
:1007F000A0DF8883EEDF83E8A7DFC8DF9ADF898385
:10080000E8DF85E8A1DFC2DF8A83E3DF8A81982FF2
:1008100090729B83982F90789C8387FF1EC08F7166
:100820008A838A8186DF8A8387E88EDFAFDF81DF74
:100830008E83CFDF89E888DFA9DF7BDF8F83C9DF85
:100840008BE882DFA3DF8D83C4DF8DE87DDF9EDF51
:1008500070DF8887DF91CF91BCCF8F73E1CF1F937B
:10086000CF93DF93EC018EE86FDF80E06DDFB1DFC7
:1008700080E86ADF888154DF67DFABDF82E864DF0E
:1008800089814EDF61DFA5DF8A814ADF1B819C8180
:10089000192B182B84E858DF812F56DF9ADF86E862
:1008A00053DF8E813DDF50DF94DF88E84DDF8F819D
:1008B00037DF4ADF8EDF8AE847DF8D8145DF89DF5A
:1008C0008CE842DF88852CDF3FDFDF91CF911F91DD
:1008D00080CFCF938F3148F4880F8F5335DF56DFA9
:1008E000C82F77DF8C2FCF910895C0E0FBCFCF9337
:1008F000C62F8F3138F4880F805426DF8C2F24DFE9
:10090000CF9167CFCF9108951F93CF93DF93182F87
:10091000EB01DFDF888381E0810FDBDF898382E009
:10092000810FD7DF8A8383E0810FD3DF8B8384E05D
:10093000810FCFDF8C8385E0810FCBDF8D8386E055
:10094000810FC7DF8E8387E0810FC3DF8F8388E04D
:10095000810FBFDF8887DF91CF911F9108950F939B
:100960001F93CF93C82F8B01FB016081C0DFF8017B
:10097000618181E08C0FBBDFF801628182E08C0F26
:10098000B6DFF801638183E08C0FB1DFF801648189
:1009900084E08C0FACDFF801658185E08C0FA7DF68
:1009A000F801668186E08C0FA2DFF801678187E09D
:1009B0008C0F9DDFF801608588E08C0FCF911F912F
:1009C0000F9195CFFC01DB0180819C91890F8C33C5
:1009D000A8F58083818111969C911197890F8C33A2
:1009E00098F58183828112969C91890F883190F5C8
:1009F00082838581883010F081E085838781A82FEC
:100A0000B0E0A057BF4F2C919085823021F4392F50
:100A1000337009F42F5F3681231720F421E02683F9
:100A20008F5F878387818D3020F081E087839F5F90
:100A300090878085843608F0108608958C538083D3
:100A400081818F5F8183C6CF8C53818382818F5F49
:100A50008283C8CF8851828385818F5F8583868119
:100A60008F5F8683C6CFFC01DB0120819C91822FA2
:100A7000891B2917D0F5845C808391E081811196D0
:100A80004C911197682F70E0292F30E0240F311D11
:100A9000841B6217730764F5845C891B818391E072
:100AA000828112964C91682F70E0292F30E0240F3C
:100AB000311D841B62177307FCF4885E891B8283D7
:100AC00086818230E0F487818230E0F08150878334
:100AD0009781A92FB0E0A057BF4F8C91923081F43D
:100AE0009085937069F48F5F0BC0808390E0C6CFD0
:100AF000891B818390E0D4CF891B82830895815024
:100B0000868308958CE087838085882319F081503F
:100B10008087DECF83E6FCCF1F920F920FB60F9235
:100B200011242F938F939F93EF93FF938BB19CB1DD
:100B30008871E0914201EF5FEF7120914101E2176E
:100B400091F0E0934201F0E0EB5BFE4F90838093E5
:100B50004001FF91EF919F918F912F910F900FBEC8
:100B60000F901F90189582E0F2CF1F920F920FB650
:100B70000F9211248F939F93EF93FF9390914401D1
:100B8000809143019817A1F0E0914301EF5FEF716D
:100B9000E0934301F0E0EB59FE4F80818CB9FF9167
:100BA000EF919F918F910F900FBE0F901F9018950E
:100BB0005598F5CF109244011092430110924201D2
:100BC0001092410197FF03C022E02BB99F7790BD9F
:100BD00089B988E98AB986E880BD08959091420173
:100BE00080914101981791F0E0914101EF5FEF7121
:100BF000E0934101F0E0EB5BFE4F208180914001EA
:100C000090E0982F8827820F911D089580E091E051
:100C10000895909144019F5F9F7120914301921725
:100C2000E1F3E92FF0E0EB59FE4F8083909344010C
:100C3000559A0895CF93DF93EC018991811103C0F8
:100C4000DF91CF910895E5DFF8CFCF93DF93EC01EB
:100C5000FE0184912196811103C0DF91CF91089507
:100C6000D8DFF6CFFC01680F791F80E048E1E61776
:100C7000F70709F40895219198E0382F3227532F70
:100C8000517030FD842786955111806826959150CA
:100C9000A1F7EDCF379A86B1866086B9089597B1EE
:100CA000907F97B997B1892B87B9369A3699FECF3D
:100CB00024B135B181E02130324008F480E008955C
:100CC000BA9AC29883E083BF8CE882BF89B78160FB
:100CD00089BF82E28FBD89E18EBD8FEF9FEF97BD07
:100CE00086BD19BC18BC1092AF0184E68093AC019C
:100CF00008958CE882BF89B7816089BF089581E03B
:100D00008093AF01F6CF1092AF01F3CF1F920F92F5
:100D10000FB60F9211242F933F934F935F938F93AE
:100D20009F938CE882BF2091AC01243601F14FE8FB
:100D300052E0249FC001259F900D11242091AF0106
:100D4000222309F128B539B52817390798F488B551
:100D500099B5019699BD88BD9F918F915F914F91F3
:100D60003F912F910F900FBE0F901F9018958FEF0E
:100D70009FEFE4CF28B539B58217930740F488B5C3
:100D800099B50197E7CF88B599B5892BC1F789B790
:100D90008E7F89BFE1CFCF93DF93CDB7DEB72F979B
:100DA0000FB6F894DEBF0FBECDBFBE9AC698A19A0B
:100DB000A99AA09AA89A11DA0FDD83E390E0FADEEF
:100DC00069DF7EDF9FE088E10FB6F894A89581BDCA
:100DD0000FBE91BD80E090E061D7682E81E090E089
:100DE0005DD78E878DE090E059D78093AC0182E08B
:100DF00090E054D7082F83E090E050D7E82E84E0AD
:100E000090E04CD7782E85E090E048D7F82E86E029
:100E100090E044D7D82E87E090E040D7882E88E035
:100E200090E03CD78C831B821A8289E090E036D711
:100E300089831D828AE090E031D78C878BE090E037
:100E40002DD78D878CE090E029D7182F688579857C
:100E500080E05ADD7894A8988FE19EE40197F1F73D
:100E600000C00000A89A9FEFE4E3FCE09150E0404E
:100E7000F040E1F700C00000A8958A859B85B2DCB0
:100E8000113009F4A0C0123009F4A1C06FE7962E0A
:100E90001F8633243394212C412C512C2FEF421ADE
:100EA000520AA895C20168EE73E089D55C01892BCE
:100EB00041F48A859B8596DC113019F48A859B85DF
:100EC000B1D94114510441F4688579858A859B859F
:100ED000AE014F5F5F4F35D9C20168E873E16FD54E
:100EE000892B09F045C04D85413609F041C0EA859E
:100EF000FB8582810817E0F0EA85FB8582818017F7
:100F000028F0EA85FB858181E81690F0EA85FB856B
:100F10008281801708F461C0EA85FB8581818E1586
:100F200008F45BC0EA85FB858081871508F455C00D
:100F3000EA85FB8582818F15D0F0EA85FB85828169
:100F4000F81628F0EA85FB8581818D1580F0EA8509
:100F5000FB858281F81608F440C0EA85FB85818113
:100F6000D816D8F1EA85FB8580818815B0F5C7DEF3
:100F7000C20168EB7BE023D5892BE9F442DB8F3794
:100F800071F55F855523A1F1A9988FE19EE4019742
:100F9000F1F700C00000A99AEFE1FEE43197F1F704
:100FA00000C000001092A6015FE7952E1F86123048
:100FB00011F4892D72D94C85413631F55FE79512D0
:100FC0001AC0C69821C08A859B852CD95FCF8FE730
:100FD00064D95CCF212C3C2C61CF95DEC9CF8E37F4
:100FE00031F3FFE79F1202C0853509F3982EDFCF5A
:100FF00021E02F87DCCF961414F4B69BC69A8E8519
:10100000891514F4B699DDCFAB2809F04FC086E0FE
:1010100046DEC82E3816C1F09FE7E9EAF3E09150AA
:10102000E040F040E1F700C0000086E038DEC82E66
:10103000381651F0882341F0113079F1123089F1DE
:10104000612F8CE090E032D6C9DD9C012227232B52
:1010500011F633243394320CE22DF0E0EB57FE4FBF
:1010600080832FE1231508F4B5CF232D30E0A901AB
:101070004C575E4F5A01FA012081283011F02F376A
:10108000B9F4F1E0F31508F0A5CF2A9488E0C1DDAA
:1010900080E2BFDD88E0BDDD9ECF892DFED812E065
:1010A000CFCF8A859B85BED811E0CACFC32CCCCFC9
:1010B000B0DDF50180818A3009F0A5C180918501FC
:1010C000833709F019C180918601843709F02DC159
:1010D00080918701813609F028C180918801843789
:1010E00009F023C180918901853709F01EC18091E3
:1010F0008A01833709F019C1EA85FB8562E08681A0
:10110000AED78EE286DDEA85FB8562E08781A7D7D0
:101110008AEA90E08FDDEA85FB8562E080859FD7D3
:1011200080E277DDEA85FB85E5818E2F90E0FC018A
:101130003197E730F10568F4E156F74F099406C09E
:10114000AAC0ACC0AEC0B0C0B2C0B4C08EEA90E01D
:1011500071DD80E25EDDEA85FB8562E082817FD71A
:101160008AE357DDEA85FB8562E0818178D78AE3EF
:1011700050DDEA85FB8562E0808171D787EE90E0E3
:1011800059DD8C8146DD60E0898169D78AEE90E087
:1011900051DD6E817F8180E0B7DBEE81FF8162E00F
:1011A00082815DD78AE335DDEE81FF8162E0818156
:1011B00056D78AE32EDDEE81FF8162E080814FD732
:1011C00089E227DD83EF90E035DDFFE79F1275C0F0
:1011D0008CEF90E02FDD8FEF90E02CDDB69B71C09F
:1011E00088E091E027DD2C85213609F46DC02D368D
:1011F00009F46EC088E20DDD60E0862D30D78DE207
:1012000008DD60E08E852BD789E203DD8FE191E078
:1012100011DD8091AF01882309F45DC088E091E081
:1012200009DD4D85413609F459C04D3609F45AC0DF
:1012300088E2EFDC62E0802F12D78AE3EADC62E02A
:101240008E2D0DD78AE3E5DC62E0872D08D78DE28D
:10125000E0DC62E08F2D03D78AE3DBDC62E08D2DDA
:10126000FED68AE3D6DC62E0882DF9D689E2D1DCAD
:1012700080E2CFDC60E08091AC01F1D685E2C9DC90
:1012800089E291E0D7DC113081F1123091F18FE9E0
:1012900090E0D0DCB7C085EB90E05ACF8DEB90E0CA
:1012A00057CF87EC90E054CF80ED90E051CF87EDA1
:1012B00090E04ECF80EE90E04BCF60E0892DCFD60E
:1012C0008ACF8BE091E08ECF8FE091E0B3DC92CFBC
:1012D00086E191E0FBCF8BE091E0A2CF8FE091E03F
:1012E000A9DCA6CF86E191E0FBCF85E391E0A2DC0B
:1012F000CECF8AE391E0FBCF8436D1F48091860192
:10130000813609F01CC180918701843771F4809186
:101310008801853651F480918901803231F48091C1
:101320008A0180538A3008F462C182EA90E0B1CF2A
:101330008437C9F5809186018936B9F78091870194
:101340008D3699F780918801853679F780918901EA
:10135000803259F7B0908A0180ED8B0D8A3008F405
:10136000BEC14BE2B41619F05DE2B512DECF80913A
:101370008B0180538A30C8F680918C0180538A306B
:10138000A0F6BC8262E086E0BBD689838C3310F085
:101390008BE389836B2D88E090E088D4698189E0B4
:1013A00090E084D499C1883609F043C080918601C9
:1013B000853609F0BACF80918701813609F0B5CF23
:1013C00080918801843709F0B0CF80918901803203
:1013D00009F0ABCF90918A0180ED890F8A3008F433
:1013E000DDC19F3609F0E8C180918B018E3671F422
:1013F0006DE68AE090E05AD4C69A8DE990E01ADC56
:101400009DE69C87312CEADB232C1FCE863609F023
:101410008CCF80918C01863609F087CF6DE68AE00B
:1014200090E044D4C6988DE990E004DCEDE6EC87CA
:10143000E9CF8C3609F079CF80918601893609F0A1
:1014400074CF80918701873609F06FCF8091880132
:10145000883609F06ACF80918901843709F065CF19
:1014600080918A01803209F060CF80918B0190EDEC
:10147000980F9A3008F4D1C18F3609F0DCC1809101
:101480008C018E3659F46DE68BE090E00FD437DC9A
:101490008DE990E0CFDB2DE62D87B4CF863609F0BD
:1014A00044CF80918D01863609F03FCF6DE68BE009
:1014B00090E0FCD328DC8DE990E0BCDB4DE64D8765
:1014C000A1CF8C3609F031CF80918C01853609F09F
:1014D0002CCF80918D01863709F027CF80918E0126
:1014E000853609F022CF80918F018C3609F01DCF0F
:1014F00080919001803209F018CF80919101805342
:101500008A3008F012CF8091920180538A3008F01F
:101510000CCF8091930180538A3008F006CF63E0AE
:101520008CE0EED58093AC01853618F084E680938C
:10153000AC01DFDB6091AC018DE090E032CF893609
:1015400009F0F3CE80918701833709F0EECE8091C8
:101550008801803709F0E9CE809189018C3609F045
:10156000E4CE80918A01813609F0DFCE80918B0133
:10157000893709F0DACE80918C01803209F0D5CE1E
:1015800080918D01843709F0D0CE80918E0189360B
:10159000B1F480918F018D3609F0C7CE8091900112
:1015A000853609F0C2CE8A859B853CD661E08CE009
:1015B00090E07CD38DE990E03DDB11E023CF8536D0
:1015C00009F0B3CE80918F018D3609F0AECE8091B7
:1015D0009001803709F0A9CE892D5FD662E08CE0BA
:1015E00090E064D38DE990E025DB12E00BCF809191
:1015F0008B0180538A3008F098CE80918C018E3216
:1016000009F093CE80918D0180538A3008F08DCE01
:1016100080918E0180538A3008F087CE80918F01AF
:101620008E3209F082CE8091900180538A3008F08A
:101630007CCE8091910180538A3008F076CE8091E3
:101640009201803209F071CE8091930180538A30EB
:1016500008F06BCEAA84BB8462E085E051D5F50129
:101660008683EA85FB858681803220F0EA85FB85CA
:101670005FE15683AA84BB8462E088E041D5F5012E
:101680008783EA85FB8587818D3020F0EA85FB859D
:101690008CE08783AA84BB8462E08BE031D5F501BE
:1016A0008087AA84BB8461E08EE02AD5F50185831A
:1016B000EA85FB858581883020F0EA85FB8527E077
:1016C00025838A859B85CBD88A859B859987888742
:1016D0006885798580E043D98DE990E0DACD809105
:1016E0008B0180538A3008F020CE80918C018A33A0
:1016F00009F01BCE80918D0180538A3008F015CE01
:1017000080918E0180538A3008F00FCE80918F0136
:101710008A3309F00ACE8091900180538A3008F014
:1017200004CE8091910180538A3008F0FECDAA84C6
:10173000BB8462E085E0E4D4F5018283EA85FB8521
:101740008281883120F0EA85FB8547E14283AA84C3
:10175000BB8462E088E0D4D4F5018183EA85FB850F
:1017600081818C3320F0EA85FB852BE32183AA84D9
:10177000BB8462E08BE0C4D4F5018083EA85FB85FD
:1017800080818C3320F0EA85FB852BE32083EA857A
:10179000FB851482EA85FB85138293CF80918B01B0
:1017A00080538A3048F480918C018D3229F48091E5
:1017B0008D0180538A30E0F0913609F0B6CD8091EA
:1017C0008B01853709F0B1CD80918C01843709F008
:1017D000ACCD80918D018F3609F0A7CD61E68AE00E
:1017E00090E064D28DE990E025DAF1E6FC870ACE3C
:1017F00080918E0180538A30F8F662E085E080D4D3
:10180000682E62E088E07CD48E87662D80E090E0D0
:101810004DD26E8581E090E0C4CD90918C019053C3
:101820009A3048F490918D019A3329F490918E0169
:1018300090539A30E0F0813609F043CE80918C01CC
:10184000853709F072CD80918D01843709F06DCD17
:1018500080918E018F3609F068CD61E68BE090E0D3
:1018600025D28DE990E0E6D951E65D87CBCD909108
:101870008F0190539A30F8F6909190019A33D9F6EF
:101880009091910190539A30B0F6909192019053BB
:101890009A3088F6909193019D3269F69091940167
:1018A00090539A3040F69091950190539A3018F6E3
:1018B000909196019A3309F0BECF90919701905381
:1018C0009A3008F0B8CF9091980190539A3008F070
:1018D000B2CF909199019A3309F0ADCF90919A01CE
:1018E00090539A3008F0A7CF90919B0190539A3073
:1018F00008F0A1CF62E086E003D4082F883108F019
:1019000007E162E089E0FCD3E82EFBE3F81710F46E
:101910004BE3E42E62E08CE0F3D3782E2BE3281720
:1019200010F43BE3732E62E08FE0EAD3F82E47E138
:10193000481710F427E1F22E62E082E1E1D3D82EBD
:101940005BE3581710F49BE3D92E62E085E1D8D30E
:10195000882E8BE3881510F48BE3882E602F82E0AD
:1019600090E0A4D16E2D83E090E0A0D1672D84E0BB
:1019700090E09CD16F2D85E090E098D16D2D86E0B0
:1019800090E094D1682D87E090E00BCD991B79E031
:1019900004C0991F961708F0961B881F7A95C9F7FF
:1019A0008095089587FB082E062687FD819567FDA3
:1019B0006195ECDF0EF4919507FC81950895AA1BC3
:1019C000BB1B51E107C0AA1FBB1FA617B70710F02A
:1019D000A61BB70B881F991F5A95A9F7809590955C
:1019E000BC01CD010895052E97FB16F400940FD08D
:1019F00057FD05D014D007FC02D046F408C050951E
:101A00004095309521953F4F4F4F5F4F08959095EA
:101A10008095709561957F4F8F4F9F4F0895A1E2FC
:101A20001A2EAA1BBB1BFD010DC0AA1FBB1FEE1F58
:101A3000FF1FA217B307E407F50720F0A21BB30BA3
:101A4000E40BF50B661F771F881F991F1A9469F71F
:101A500060957095809590959B01AC01BD01CF017B
:101A6000089570D088F09F5790F0B92F9927B751FB
:101A7000A0F0D1F0660F771F881F991F1AF0BA9552
:101A8000C9F712C0B13081F077D0B1E0089574C0C9
:101A9000672F782F8827B85F39F0B93FCCF3869548
:101AA00077956795B395D9F73EF4909580957095A5
:101AB00061957F4F8F4F9F4F0895E89409C097FB22
:101AC0003EF490958095709561957F4F8F4F9F4F15
:101AD0009923A9F0F92F96E9BB279395F695879559
:101AE00077956795B795F111F8CFFAF4BB0F11F41C
:101AF00060FF1BC06F5F7F4F8F4F9F4F16C08823C3
:101B000011F096E911C0772321F09EE8872F762FF8
:101B100005C0662371F096E8862F70E060E02AF039
:101B20009A95660F771F881FDAF7880F9695879525
:101B300097F9089557FD9058440F551F59F05F3F8E
:101B400071F04795880F97FB991F61F09F3F79F0DF
:101B500087950895121613061406551FF2CF469561
:101B6000F1DF08C0161617061806991FF1CF8695E3
:101B70007105610508940895E894BB2766277727C7
:101B8000CB0197F908950BD078C069D028F06ED0BA
:101B900018F0952309F05AC05FC01124EECFCADFB8
:101BA000A0F3959FD1F3950F50E0551F629FF00170
:101BB000729FBB27F00DB11D639FAA27F00DB11DC9
:101BC000AA1F649F6627B00DA11D661F829F222752
:101BD000B00DA11D621F739FB00DA11D621F839FD9
:101BE000A00D611D221F749F3327A00D611D231FAF
:101BF000849F600D211D822F762F6A2F11249F57FD
:101C000050408AF0E1F088234AF0EE0FFF1FBB1F1F
:101C1000661F771F881F91505040A9F79E3F5105BE
:101C200070F014C0AACF5F3FECF3983EDCF38695CA
:101C300077956795B795F795E7959F5FC1F7FE2B69
:101C4000880F911D9695879597F9089597F99F6745
:101C500080E870E060E008959FEF80EC0895002434
:101C60000A941616170618060906089500240A9401
:101C700012161306140605060895092E0394000C87
:101C800011F4882352F0BB0F40F4BF2B11F460FF16
:101C900004C06F5F7F4F8F4F9F4F0895E199FECF34
:101CA0009FBB8EBBE09A99278DB30895262FE199AB
:101CB000FECF9FBB8EBBE09A01970DB2021631F0AA
:101CC0002DBB0FB6F894E29AE19A0FBE0895F894EE
:021CD000FFCF44
:101CD2003F065B4F666D7D077F6F633932000432CA
:101CE20000023200073200053800073200033800D4
:101CF20000320006380001350005350004350003C6
:101D0200001F1C1F1E1F1E1F1F1E1F1E1F4F4B0DBD
:101D12000A004552524F520D0A002E3230004D6FCA
:101D22006E64617900547565736461790057656406
:101D32006E657364617900546875727364617900C9
:101D420046726964617900536174757264617900E5
:101D520053756E64617900202800207365632061E9
:101D62007420000D0A54656D703A20002D2D000D6F
:101D72000A486561743A20004F4E004F46460020E3
:101D82006175746F2000206D616E75616C20000DAD
:101D92000A4C696768743A20000D0A446973706CD2
:101DA20061793A200074696D650074656D70000098
:00000001FF
