:1000000022C03CC03BC03AC0D2C138C037C036C0A5
:1000100035C0C1C633C093C5BBC530C02FC02EC0CC
:100020002DC02CC02BC000F9F2EBE3DCD5CEC7C04D
:10003000B8B1AAA39C958E867F78716A635B544D94
:10004000463F3831290011241FBECFE5D4E0DEBF82
:10005000CDBF11E0A0E6B0E0EEEEFDE102C00590FC
:100060000D92A235B107D9F722E0A2E5B1E001C0B7
:100070001D92A032B207E1F7DBD6B7CEC1CFCF9247
:10008000DF92EF92FF92CF93DF93C82FD62F87FF97
:1000900002C08DE2D2D5CC2E0C2E000CDD08EE086D
:1000A000FF08F7FE08C0F094E094D094C094C11CFF
:1000B000D11CE11CF11C84E6C816D104E104F10452
:1000C00014F4D33050F0C701B60124E630E040E02C
:1000D00050E017DD80E3820FB0D58AE0C816D10466
:1000E000E104F10414F4D23078F0C701B60124E63B
:1000F00030E040E050E005DD2AE030E040E050E054
:1001000000DD80E3820F99D58C2F6AE0D9DC80E393
:10011000890FDF91CF91FF90EF90DF90CF908DC549
:10012000E82FF0E0E052FE4F80E090E03AE09613D6
:1001300001C008952191839F200D1124822F8053A7
:100140009F5FF5CF823019F48FE990E087C584EA8C
:1001500090E0FCCF90ED980F81E09A3008F080E0BD
:1001600008950F931F93CF93DF93EC018B01BA0196
:100170009885F8018085891760F0981339C09F81B0
:100180008781891730F0981333C09E818681891743
:1001900078F59A81F8018281891760F0981328C058
:1001A00099818181891730F0981322C098818081CC
:1001B0008917F0F4FB0183818B32A1F08D32A9F015
:1001C000CE014FD38885F80180878F8187838E8108
:1001D00086838D818583B80180E0DF91CF911F9167
:1001E0000F91D3C3CE0104D4EBCFCE0153D4E8CFCB
:1001F000DF91CF911F910F91089588B3836888BBD9
:1002000087B3836887BB85B3886385BB84B3886302
:1002100084BB82B38C6F82BB81B38C6F81BB85B58D
:10022000826085BD14BC89B7806489BF1092530178
:1002300010925201E4E5F1E08FEF808381838283A5
:1002400083830895DC0111968C9111973AE0632F16
:100250002BDCE92FF0E0EE59FF4F90819093540191
:10026000E82FF0E0EE59FF4F808180935501129600
:100270002C911297822F18DCE92FF0E0EE59FF4FF6
:100280009081909356012A3080F4109257018C91FE
:1002900080FF0AC08091540180688093540180914E
:1002A00055018068809355010895E82FF0E0EE59DC
:1002B000FF4F808180935701EACF8F929F92AF9238
:1002C000BF92CF92DF92EF92FF92CF93C82F8F37DA
:1002D00041F41092540180E48093550180935601BB
:1002E00020C0C82E880FDD08EE08FF08F7FE08C002
:1002F000F094E094D094C094C11CD11CE11CF11C7A
:1003000089E08C0F833180F410925401F601EE598C
:10031000FF4F80818093550180E4C7FDDFCF1092AD
:1003200056011092570121C08AE0882E912CA12CF1
:10033000B12CC701B601A5019401E3DB6E597F4FD3
:10034000FB01808193E69C0F973CC8F41092540106
:10035000809355012E593F4FF901808180935601BA
:10036000C7FFDFCF80E480935701CF91FF90EF90DC
:10037000DF90CF90BF90AF909F908F900895809323
:100380005401C701B60124E630E040E050E0B9DB9B
:100390006901A5019401B5DB2E593F4FF901808118
:1003A00080935501F601EE59FF4F808197CF1F9240
:1003B0000F920FB60F9211242F933F934F935F9399
:1003C0006F937F938F939F93AF93BF93EF93FF931D
:1003D00000D1E6E8F0E041E050E0A081B1812C914D
:1003E0008281BA0102C0660F771F8A95E2F7CB01BE
:1003F000809582238C93339670E0E239F70769F792
:10040000EEE6F0E081E090E0A081B1812C913281B4
:10041000AC0101C0440F3A95EAF7242B2C93339694
:1004200020E0E638F20781F7E0915301F0E0EC5A62
:10043000FE4F20814091520130E002C03595279552
:100440004A95E2F720FF24C0E0915201A0915201A9
:100450002A2F30E0D901AA0FBB1FA20FB31FA25948
:10046000BF4F0D90BC91A02D4C912E2F30E0F90183
:10047000EE0FFF1FE20FF31FE259FF4F228102C070
:10048000880F991F2A95E2F78095909584238C9385
:10049000E0915301A09153018A2F90E0DC01AA0F53
:1004A000BB1FA80FB91FAA57BF4F0D90BC91A02D1D
:1004B0002C918E2F90E0FC01EE0FFF1FE80FF91F2B
:1004C000EA57FF4F328181E090E001C0880F3A95F2
:1004D000EAF7822B8C93809152018F5F80935201B7
:1004E000883058F010925201809153018F5F8093B1
:1004F0005301843010F010925301FF91EF91BF919E
:10050000AF919F918F917F916F915F914F913F91AB
:100510002F910F900FBE0F901F901895AA98A29A36
:1005200078948FEB93E00197F1F700C00000F89406
:10053000A29890EA9A95F1F783B37894E7E4F3E010
:100540003197F1F700C00000F89484700895AA98DC
:10055000A29A92E09A95F1F700C08111A29878943E
:1005600080EA8A95F1F7F894A2980895AA98A29A39
:1005700082E08A95F1F700C0A29895E29A95F1F78A
:10058000000083B3789498E79A95F1F7F89482FB8A
:10059000882780F90895CF93DF93D82FC8E08D2F57
:1005A0008170D5DFD695C150D1F7DF91CF910895F5
:1005B000CF93DF93D8E0C0E0D9DF20E8829FC0016D
:1005C0001124C695C82BD150B9F78C2FDF91CF914C
:1005D00008958091580190915901009729F0019751
:1005E00090935901809358010895A9988FE19EE452
:1005F0000197F1F700C00000A99A8FE19EE40197EE
:10060000F1F700C0000010925901109258010895AE
:10061000CF92DF92EF92FF920F931F93CF93DF93CE
:10062000CDB7DEB729970FB6F894DEBF0FBECDBFAA
:100630008091580190915901892B09F071C0F8946B
:100640006DDF882389F078948FE729960FB6F894A8
:10065000DEBF0FBECDBFDF91CF911F910F91FF90F5
:10066000EF90DF90CF9008958CEC95DF8EEB93DFC9
:100670008E010F5F1F4F6E018AE0C80ED11C7801FA
:1006800097DFF80181938F01EC15FD05C9F7789488
:1006900068E070E0C701FAD2998589133AC06A818F
:1006A000862F90E0982F88276981680F792F711D18
:1006B000072E000C880B990B90DA20E030E040E820
:1006C0005DE3EFDA6B017C01F89428DF8111BBCF89
:1006D0008CEC61DF8EE45FDF8FE15DDF78948FEC7F
:1006E00097E00197F1F700C00000F89417DF81113F
:1006F000AACF8CEC50DF84E44EDF789480E791E061
:100700009093590180935801C701B60138DA862FBA
:100710009CCFC12CD12C8EEFE82E82E4F82ED4CFC2
:100720008EE793CF6AE0C0D9292F30E1839FC001C3
:100730001124822B0895282F2F70982F929597704F
:10074000822F3AE0939F800D11240895C398C49A94
:10075000BD9A30E020E090E0C39842E04A95F1F77E
:1007600000C0AC01022E02C0559547950A94E2F7ED
:1007700040FF0CC0C59AC39A42E04A95F1F700C009
:100780002F5F3F4F2830310539F70895C598F3CFD3
:10079000BD98C59A30E020E080E061E070E0C39849
:1007A000AB01022E01C0440F0A94EAF7B59B10C0BA
:1007B000842B92E09A95F1F700C0C39A92E09A9543
:1007C000F1F700C02F5F3F4F2830310541F7089502
:1007D00040958423EECFC498C3980895BC9AC498DA
:1007E000BB9AC398BD980895CF93DF93EC0181E83D
:1007F000ADDFCEDFA0DF8883EEDF83E8A7DFC8DFD1
:100800009ADF8983E8DF85E8A1DFC2DF8A83E3DF3F
:100810008A81982F90729B83982F90789C8387FF72
:100820001EC08F718A838A8186DF8A8387E88EDF84
:10083000AFDF81DF8E83CFDF89E888DFA9DF7BDF51
:100840008F83C9DF8BE882DFA3DF8D83C4DF8DE870
:100850007DDF9EDF70DF8887DF91CF91BCCF8F7304
:10086000E1CF1F93CF93DF93EC018EE86FDF80E041
:100870006DDFB1DF80E86ADF888154DF8F7766DF64
:10088000AADF82E863DF89814DDF60DFA4DF8A8130
:1008900049DF1B819C81192B182B84E857DF812F9E
:1008A00055DF99DF86E852DF8E813CDF4FDF93DF33
:1008B00088E84CDF8F8136DF49DF8DDF8AE846DF4D
:1008C0008D8144DF88DF8CE841DF88852BDF3EDFC8
:1008D00082DF8EE83BDF80E839DFDF91CF911F9127
:1008E0007ACFCF93C0E08F3130F4880F8F532EDF53
:1008F0004FDFC82F70DF8C2FCF910895CF93DF93F8
:10090000C82FD62F8F3198F48EE820DF80E01EDFCD
:1009100062DF80E68C0F880F19DF8D2F17DF5BDF1A
:100920008EE814DF80E812DFDF91CF9154CFDF91A2
:10093000CF9108951F93CF93DF93182FEB01D1DF51
:10094000888381E0810FCDDF898382E0810FC9DF59
:100950008A8383E0810FC5DF8B8384E0810FC1DF51
:100960008C8385E0810FBDDF8D8386E0810FB9DF49
:100970008E8387E0810FB5DF8F8388E0810FB1DF41
:100980008887DF91CF911F9108950F931F93CF9385
:10099000C82F8B01FB016081B1DFF801618181E02B
:1009A0008C0FACDFF801628182E08C0FA7DFF801C9
:1009B000638183E08C0FA2DFF801648184E08C0FF7
:1009C0009DDFF801658185E08C0F98DFF801668175
:1009D00086E08C0F93DFF801678187E08C0F8EDF54
:1009E000F801608588E08C0FCF911F910F9186CF21
:1009F000FC01DB0180819C91890F80838C3330F076
:100A000091818C53808381E0890F8183818111964C
:100A10009C911197890F81838C3330F092818C5394
:100A2000818381E0890F8283828112969C91890F54
:100A30008283883150F0258196818851828381E0BC
:100A4000820F858381E0890F86838581883010F04D
:100A500081E085838781A82FB0E0AE56BF4F2C91EF
:100A60009085823021F4392F337009F42F5F36815D
:100A7000231720F421E026838F5F878387818D30C1
:100A800020F081E087839F5F90878085843608F01F
:100A900010860895FC01DB0120819C91822F891B27
:100AA0002917B0F5845C808391E0418111962C91E7
:100AB0001197842F821B290F3327331F42171306E8
:100AC00054F5845C891B818391E0428112962C91BC
:100AD000842F821B290F3327331F42171306FCF480
:100AE000885E891B828386818230E0F48781823030
:100AF000E0F0815087839781A92FB0E0AE56BF4FB9
:100B00008C91923081F49085937069F48F5F0BC063
:100B1000808390E0CACF891B818390E0D6CF891B68
:100B2000828308958150868308958CE08783808531
:100B3000882319F081508087DECF83E6FCCF1F9297
:100B40000F920FB60F9211242F938F939F93EF93D1
:100B5000FF938BB19CB1E0915C01EF5FEF7320914B
:100B60005B012E1799F08871E0935C01F0E0E15A87
:100B7000FE4F908380935A01FF91EF919F918F9147
:100B80002F910F900FBE0F901F90189582E0F2CF1B
:100B90001F920F920FB60F9211248F939F93EF9392
:100BA000FF9390915E0180915D019817A1F0E09113
:100BB0005D01EF5FEF73E0935D01F0E0E156FE4F02
:100BC00080818CB9FF91EF919F918F910F900FBE13
:100BD0000F901F9018955598F5CF10925E011092C6
:100BE0005D0110925C0110925B0197FF03C022E04F
:100BF0002BB99F7790BD89B988E98AB986E880BD0D
:100C0000089590915C0180915B01981799F0E091B3
:100C10005B01EF5FEF73E0935B01F0E0E15AFE4FA1
:100C2000208190915A01892F90E0982F8827820F78
:100C3000911D089580E091E0089590915E019F5F7D
:100C40009F7320915D012917E1F3E92FF0E0E15650
:100C5000FE4F808390935E01559A0895CF93DF9362
:100C6000EC018991811103C0DF91CF910895E5DFF7
:100C7000F8CFCF93DF93EC01FE018491219681118F
:100C800003C0DF91CF910895D8DFF6CFFC01680F44
:100C9000791F80E048E1E617F70709F408952191EC
:100CA00098E0382F3227532F517030FD84278695D6
:100CB0005111806826959150A1F7EDCF379A86B1F2
:100CC000866086B9089597B1907F97B997B1892BBF
:100CD00087B9369A3699FECF24B135B181E02130FB
:100CE000324008F480E00895BA9AC29885E083BF44
:100CF00089E282BF89B7816089BF82E28FBD89E1C5
:100D00008EBD8FEF9FEF97BD86BD19BC18BC0895AF
:100D1000E0916000EE2349F0F0E0EA5DFF4FE491DE
:100D2000E2BF89B7816089BF089589B78E7F89BF87
:100D30008091DF01882381F0209161008FEF9FEF88
:100D4000243639F04FE852E0249FC001259F900DD2
:100D5000112499BD88BD089590E080E0FACF80917C
:100D6000600008958F3108F08EE180936000D0CF4D
:100D7000809161000895853608F084E680936100D3
:100D8000C7CF8091DF01089581E08093DF01C0CF5C
:100D90001092DF01BDCF1F920F920FB60F92112458
:100DA0002F933F934F935F938F939F93EF93FF9373
:100DB000E0916000F0E0EA5DFF4FE491E2BF209136
:100DC00061008FEF9FEF243639F04FE852E0249F07
:100DD000C001259F900D11242091DF01222301F1F4
:100DE00028B539B52817390790F488B599B5019613
:100DF00099BD88BDFF91EF919F918F915F914F9128
:100E00003F912F910F900FBE0F901F90189528B50E
:100E100039B58217930740F488B599B50197E8CFA3
:100E200088B599B5892BC1F789B78E7F89BFE2CF85
:100E3000CF93DF93CDB7DEB76C970FB6F894DEBFD4
:100E40000FBECDBFBE9AC698A19AA99AA09AA89A99
:100E50004BDFD3D9C3DC32DF83E390E0BEDE88E131
:100E60009FE00FB6F894A89581BD0FBE91BD90E0AC
:100E700080E0A2D7F82E81E090E09ED7182F8DE079
:100E800090E09AD778DF8EE090E096D76BDF82E033
:100E900090E092D7C82E83E090E08ED7982E84E021
:100EA00090E08AD7782E85E090E086D7E82E86E01D
:100EB00090E082D7D82E87E090E07ED7882E88E019
:100EC00090E07AD78E8B1D8A1C8A89E090E074D7D7
:100ED0008B8B1F8A8AE090E06FD7888F8BE090E041
:100EE0006BD7898F8CE090E067D7082FBE016F5FCA
:100EF0007F4F80E01FDD7894A8988FE19EE40197F2
:100F0000F1F700C00000A89A9FEFE4E3FCE09150E5
:100F1000E040F040E1F700C00000A895CE010A963D
:100F200063DC013009F468C0023009F469C0FC8E4A
:100F30001B8FEFE7FE2E1A8E11E0612C512C412CF5
:100F40002FEF421A520AA895C20168EE73E0C5D588
:100F50005C01892B41F4CE010A9646DC013019F47C
:100F6000CE010A966FD94114510449F4AE014D5E89
:100F70005F4FBE016F5F7F4FCE010A96F2D8C2016C
:100F800068E873E1AAD5892BE9F4498D4136D1F49B
:100F90008C85C81650F08C15C8F19B85991628F0E1
:100FA0009915A0F19A85971588F18E1550F0E816DD
:100FB00068F18B858D1528F0D81640F18A85881543
:100FC00028F5E2DEC20168EB7BE087D5892B61F46E
:100FD0001FDB8F3711F55A8D5430D0F45F5F5A8F75
:100FE000023011F48F2D69D9E88DE13649F5FFE71C
:100FF000FF121CC0C69824C0CE010A9623D997CFF1
:101000008FE75BD994CF612C132D9ACFC1DEDACF55
:10101000ECDA7FE7F72E1A8EE3CF8E3709F39FE7DE
:10102000F91202C08535E1F2F82EDACF2C8DF216D6
:1010300014F4B69BC69A4B8D4F1514F4B699DACFBB
:10104000312EAB28E9F486E03EDE382E1817C1F0C9
:101050005FE788E391E0515080409040E1F700C0A5
:10106000000086E030DE382E181751F0882341F05A
:10107000013081F1023091F1602F8CE090E0A4D634
:10108000C0DD6BE3262E9C012227232B09F0BCCF69
:1010900011E0160DE62DF0E0E052FE4F8083103493
:1010A00008F0B1CFE12FE150FF0BAF0140525E4F8E
:1010B0005A01FA012081283011F02F37A1F41230A3
:1010C00008F4A1CF6A9488E0B8DD80E2B6DD88E05C
:1010D000B4DD9ACF8F2DF1D802E0CECFCE010A96A3
:1010E000B1D801E0C9CFA9DDF50180818A3009F0CE
:1010F000E0C08091E001833709F00FC18091E101E8
:10110000843709F0CFC48091E201813609F0CAC466
:101110008091E301843709F0C5C48091E4018537EB
:1011200009F0C0C48091E501833709F0BBC48CEAA3
:1011300090E094DD62E08889A2D78EE27EDD62E0F5
:1011400089899DD78EE279DD62E08A8998D780E22D
:1011500074DDEF85E150E73070F4F0E0EF54F74FC5
:10116000099406C0A9C0ABC0ADC0AFC0B1C0B3C088
:1011700083EB90E073DD8CEE90E070DD62E08C85B7
:101180007ED78AE35ADD62E08B8579D78AE355DD25
:1011900062E08A8574D785EF90E060DD8E894DDD51
:1011A00060E08B896CD788EF90E058DDBE016F5FFF
:1011B0007F4F80E0BFDB62E08B8161D78AE33DDD5A
:1011C00062E08A815CD78AE338DD62E0898157D7A3
:1011D00089E233DD81E091E041DDFFE7FF127EC06F
:1011E0008AE091E03BDD8DE091E038DDB69B7AC08E
:1011F00086E191E033DD288D213609F476C02D3665
:1012000009F477C088E219DD60E08C8D38D78DE273
:1012100014DD60E08B8D33D789E20FDD8DE291E044
:101220001DDDAFDD882309F467C086E191E016DD9E
:10123000498D413609F463C04D3609F464C088E233
:10124000FCDC62E08C2D1BD78AE3F7DC62E0892DA1
:1012500016D78AE3F2DC62E0872D11D78DE2EDDC50
:1012600062E08E2D0CD78AE3E8DC62E08D2D07D793
:101270008AE3E3DC62E0882D02D789E2DEDC80E2EB
:10128000DCDC76DD60E0FBD685E2D7DC80E2D5DC15
:1012900066DD60E0F4D687E391E0E0DC8BE391E08B
:1012A000DDDC013099F10230A9F181EA90E0D6DC71
:1012B00010E0A7DC612EE7CE8AEB90E05BCF82ECFA
:1012C00090E058CF8CEC90E055CF85ED90E052CF78
:1012D0008CED90E04FCF85EE90E04CCF60E08F2D0D
:1012E000CED681CF89E191E085CF8DE191E0B6DC6A
:1012F00089CF84E291E0FBCF89E191E098CF8DE145
:1013000091E0ACDC9CCF84E291E0FBCF87E491E0FC
:10131000A5DCCBCF8CE491E0FBCF843609F07DC017
:101320008091E101813609F071C38091E201843737
:1013300009F0B8C38091E301853609F0B3C3809109
:10134000E401803209F0AEC38091E50180538A3018
:1013500008F0A8C38091E60180538A3008F0A2C348
:101360008091E7018E3209F09DC38091E80180539E
:101370008A3008F097C38091E90180538A3008F0E1
:1013800091C38091EA018E3209F08CC38091EB0108
:1013900080538A3008F086C38091EC0180538A30F4
:1013A00008F080C38091ED01803209F07BC3809109
:1013B000EE0180538A3008F075C362E085E0B0D654
:1013C000888B803210F05FE1588B62E088E0A8D60D
:1013D000898B8D3010F08CE0898B62E08BE0A0D699
:1013E0008A8B61E08EE09CD68F87883010F087E092
:1013F0008F87CE010A9635DA89E0FE013A96DE0142
:10140000119601900D928A95E1F7BE016F5F7F4FB3
:1014100080E0BBDA82E096D64BCF843709F0C3C0B8
:101420008091E101893609F03DC38091E2018D365A
:1014300009F038C38091E301853609F033C3809108
:10144000E401803209F02EC31091E50180ED810F97
:101450008A3008F093C08091E60180538A3008F00A
:1014600021C38091E7018A3309F01CC38091E80110
:1014700080538A3008F016C38091E90180538A3086
:1014800008F010C38091EA018A3309F00BC3809100
:10149000EB0180538A3008F005C38091EC01805342
:1014A0008A3008F0FFC28091ED01803209F04DC012
:1014B0008091EE018B3219F08D3209F046C062E066
:1014C00085E02ED69091EF0190539A30F0F59091EF
:1014D000F00190539A30C8F58C87883110F097E16D
:1014E0009C8762E088E01CD68B878C3308F02B86C3
:1014F00062E08BE015D68A878C3308F02A861E8638
:101500001D86CE010A96ADD989E0FE013A96DE012C
:10151000119601900D928A95E1F7BE016F5F7F4FA2
:1015200080E033DA1091EE011E8B62E08FE0F8D597
:101530008B8B8C3308F02B8A612F88E090E044D4A9
:101540006B8989E090E040D465CF62E085E0E8D522
:101550008C87883110F0E7E1EC8762E088E0E0D525
:101560008B878C3308F02B8662E08BE0D9D58A8795
:101570008C3308F02A861E861D863BCF1B3219F05D
:101580001D3209F08FC28091E60180538A3008F045
:1015900089C28091E70180538A3008F083C21E8B94
:1015A00062E086E0C4CF883609F07EC08091E10118
:1015B000853609F077C28091E201813609F072C266
:1015C0008091E301843709F06DC28091E40180329B
:1015D00009F068C28091E50190ED980F9A3038F5D6
:1015E0008091E60180538A3008F05CC28091E70167
:1015F0008D3209F057C28091E80180538A3008F09B
:1016000051C28091E90180538A3008F04BC262E0F8
:1016100085E086D58C8F62E088E082D58B8F6C8DDB
:1016200090E080E0D1D36B8D81E090E08CCF8F365D
:1016300001F58091E6018E3651F46DE68AE090E086
:10164000C3D3C69A82E07ED5FDE6F88F31CE8636CA
:1016500009F028C28091E701863609F023C26DE6C1
:101660008AE090E0B1D3C69882E06CD52DE6288F51
:101670001FCE813609F016C28091E601853709F048
:1016800011C28091E701843709F00CC28091E80112
:101690008F3609F007C261E68AE090E095D382E0D8
:1016A00051D541E6488F04CE8C3609F0FBC18091BC
:1016B000E101893609F0F6C18091E201873609F02F
:1016C000F1C18091E301883609F0ECC18091E40119
:1016D000843709F0E7C18091E501803209F0E2C169
:1016E0008091E60190ED980F9A3008F0F7C0909144
:1016F000E70190539A3008F02DC19091E8019A3398
:1017000009F028C19091E90190539A3008F022C164
:101710009091EA0190539A3008F01CC19091EB012E
:101720009A3309F017C19091EC0190539A3008F068
:1017300011C19091ED0190539A3008F00BC1909136
:10174000EE019D3209F006C19091EF0190539A305D
:1017500008F000C19091F00190539A3008F0FAC05F
:101760009091F1019A3309F0F5C09091F2019053F4
:101770009A3008F0EFC09091F30190539A3008F03E
:10178000E9C09091F4019A3309F0E4C09091F50119
:1017900090539A3008F0DEC09091F60190539A3041
:1017A00008F0D8C01091F70162E086E0B9D4C82EE5
:1017B00062E089E0B5D4982E62E08CE0B1D4782E56
:1017C00062E08FE0ADD4E82E62E082E1A9D4D82EA9
:1017D00062E085E1A5D45BE35D1510F45BE3D52EF3
:1017E00097E19E1510F447E1E42EEBE3E71510F4C2
:1017F0003BE3732E882EFBE3F81710F42BE3822EC5
:101800002BE3291510F49BE3992E47E14C1510F4B6
:1018100087E1C82E103209F048C08091F80180534A
:101820008A3008F042C08091F90180538A30E8F58F
:101830008091FA0180538A30C0F58091FB0180329B
:10184000A1F58091FC0180538A3078F58091FD01EB
:1018500080538A3050F56C2D82E090E0B5D2692D2E
:1018600083E090E0B1D2672D84E090E0ADD26E2DA0
:1018700085E090E0A9D26D2D86E090E0A5D2682D9C
:1018800087E090E0A1D263E088E14AD474DA70DAAC
:10189000682F8DE090E098D262E08CE141D462DA6A
:1018A0005EDA682F8EE090E04ECE6C2D82E090E004
:1018B0008BD2692D83E090E087D2672D84E090E0A1
:1018C00083D26E2D85E090E07FD26D2D86E090E092
:1018D0007BD2682D87E090E077D2EACC8F3601F595
:1018E0008091E7018E3651F46DE68BE090E06CD28A
:1018F0004BDA82E027D45DE6598FDACC863609F0E0
:10190000D1C08091E801863609F0CCC06DE68BE04D
:1019100090E05AD23DDA82E015D48DE6898FC8CCAA
:101920008136C1F48091E701853709F0BBC0809111
:10193000E801843709F0B6C08091E9018F3609F0DB
:10194000B1C061E68BE090E03FD282E0FBD391E64C
:10195000998FAECC8C36A1F58091E701853609F0E0
:10196000A1C08091E801863709F09CC08091E9010F
:10197000853609F097C08091EA018C3609F092C053
:101980008091EB01803209F08DC08091EC01805391
:101990008A3008F087C08091ED0180538A3008F0CA
:1019A00081C08091EE0180538A3008F07BC063E0F3
:1019B0008CE0B6D3E0D9DCD9682F8DE090E0C3CDC0
:1019C000823709F06FC08091E701893609F06AC05B
:1019D0008091E801833709F065C08091E90185367F
:1019E00009F060C08091EA01803209F05BC080910B
:1019F000EB0180538A3008F055C08091EC01805390
:101A00008A3008F04FC062E08BE048CF893609F099
:101A100049C08091E201833709F044C08091E3011D
:101A2000803709F03FC08091E4018C36D9F5809170
:101A3000E5018136B9F58091E601893799F5809104
:101A4000E701803279F58091E801843759F580917A
:101A5000E901893699F48091EA018D3619F5809172
:101A6000EB018536F9F4CE010A96ECD361E08CE007
:101A700090E0AAD182E066D301E01ACC853691F4D9
:101A80008091EA018D3671F48091EB01803751F439
:101A90008F2D13D462E08CE090E096D182E052D397
:101AA00002E006CC84E0B7CC991B79E004C0991F12
:101AB000961708F0961B881F7A95C9F780950895A8
:101AC00087FB082E062687FD819567FD6195ECDF73
:101AD0000EF4919507FC81950895AA1BBB1B51E15B
:101AE00007C0AA1FBB1FA617B70710F0A61BB70B8E
:101AF000881F991F5A95A9F780959095BC01CD0133
:101B00000895052E97FB16F400940FD057FD05D0CD
:101B100014D007FC02D046F408C05095409530958B
:101B200021953F4F4F4F5F4F089590958095709549
:101B300061957F4F8F4F9F4F0895A1E21A2EAA1BE8
:101B4000BB1BFD010DC0AA1FBB1FEE1FFF1FA2176D
:101B5000B307E407F50720F0A21BB30BE40BF50B6A
:101B6000661F771F881F991F1A9469F760957095F3
:101B7000809590959B01AC01BD01CF01089570D077
:101B800088F09F5790F0B92F9927B751A0F0D1F066
:101B9000660F771F881F991F1AF0BA95C9F712C0F0
:101BA000B13081F077D0B1E0089574C0672F782FFD
:101BB0008827B85F39F0B93FCCF38695779567955C
:101BC000B395D9F73EF490958095709561957F4FC8
:101BD0008F4F9F4F0895E89409C097FB3EF490956E
:101BE0008095709561957F4F8F4F9F4F9923A9F0F6
:101BF000F92F96E9BB279395F69587957795679585
:101C0000B795F111F8CFFAF4BB0F11F460FF1BC0C8
:101C10006F5F7F4F8F4F9F4F16C0882311F096E95B
:101C200011C0772321F09EE8872F762F05C0662309
:101C300071F096E8862F70E060E02AF09A95660FC2
:101C4000771F881FDAF7880F9695879597F908957B
:101C500057FD9058440F551F59F05F3F71F047955D
:101C6000880F97FB991F61F09F3F79F08795089542
:101C7000121613061406551FF2CF4695F1DF08C061
:101C8000161617061806991FF1CF8695710561057E
:101C900008940895E894BB2766277727CB0197F926
:101CA00008950BD078C069D028F06ED018F0952335
:101CB00009F05AC05FC01124EECFCADFA0F3959F90
:101CC000D1F3950F50E0551F629FF001729FBB2723
:101CD000F00DB11D639FAA27F00DB11DAA1F649FCF
:101CE0006627B00DA11D661F829F2227B00DA11D82
:101CF000621F739FB00DA11D621F839FA00D611D08
:101D0000221F749F3327A00D611D231F849F600D28
:101D1000211D822F762F6A2F11249F5750408AF061
:101D2000E1F088234AF0EE0FFF1FBB1F661F771FED
:101D3000881F91505040A9F79E3F510570F014C084
:101D4000AACF5F3FECF3983EDCF3869577956795D5
:101D5000B795F795E7959F5FC1F7FE2B880F911D0B
:101D60009695879597F9089597F99F6780E870E0B1
:101D700060E008959FEF80EC089500240A94161601
:101D8000170618060906089500240A941216130669
:101D9000140605060895092E0394000C11F48823F7
:101DA00052F0BB0F40F4BF2B11F460FF04C06F5F13
:101DB0007F4F8F4F9F4F0895E199FECF9FBB8EBB02
:101DC000E09A99278DB30895262FE199FECF9FBB06
:101DD0008EBBE09A01970DB2021631F02DBB0FB603
:0E1DE000F894E29AE19A0FBE0895F894FFCFAE
:101DEE0001643F065B4F666D7D077F6F633932007E
:101DFE0004320002320007320005380007320003B9
:101E0E003800003200063800013500053500043573
:101E1E000003001F1C1F1E1F1E1F1F1E1F1E1F4FF5
:101E2E004B0D0A004552524F520D0A004461746523
:101E3E003A20004D6F6E646179005475657364616C
:101E4E0079005765646E65736461790054687572C4
:101E5E0073646179004672696461790053617475C7
:101E6E00726461790053756E646179000D0A54696C
:101E7E006D653A2000202800207365632061742070
:101E8E00000D0A54656D703A20002D2D000D0A4884
:101E9E006561743A20004F4E004F46460020617532
:101EAE00746F2000206D616E75616C20000D0A4C00
:101EBE00696768743A20006D696E000D0A44697393
:101ECE00706C61793A200074696D650074656D708F
:021EDE00000002
:00000001FF
